{
  "contractName": "AddressStorage",
  "abi": [
    {
      "constant": true,
      "inputs": [
        {
          "name": "_key",
          "type": "bytes32"
        }
      ],
      "name": "getAddress",
      "outputs": [
        {
          "name": "",
          "type": "address"
        }
      ],
      "payable": false,
      "stateMutability": "view",
      "type": "function"
    }
  ],
  "bytecode": "0x608060405234801561001057600080fd5b50610100806100206000396000f3fe6080604052348015600f57600080fd5b506004361060285760003560e01c806321f8a72114602d575b600080fd5b605660048036036020811015604157600080fd5b81019080803590602001909291905050506098565b604051808273ffffffffffffffffffffffffffffffffffffffff1673ffffffffffffffffffffffffffffffffffffffff16815260200191505060405180910390f35b600080600083815260200190815260200160002060009054906101000a900473ffffffffffffffffffffffffffffffffffffffff16905091905056fea165627a7a7230582070dda8863687257cd322aff8705dc938f5c82e9cf091f40edd9cafe05bfa0b040029",
  "source": "pragma solidity ^0.5.0;\r\n\r\ncontract AddressStorage {\r\n    mapping(bytes32 => address) private addresses;\r\n\r\n    function getAddress(bytes32 _key) public view returns (address) {\r\n        return addresses[_key];\r\n    }\r\n\r\n    function _setAddress(bytes32 _key, address _value) internal {\r\n        addresses[_key] = _value;\r\n    }\r\n\r\n}\r\n",
  "sourcePath": "C:\\Users\\Jared\\AaveGitBounty\\AaveProtocol\\aave-protocol\\contracts\\configuration\\AddressStorage.sol",
  "compiler": {
    "name": "solc",
    "version": "0.5.8+commit.23d335f2.Emscripten.clang"
  },
  "schemaVersion": "3.0.17",
  "updatedAt": "2019-11-11T01:54:50.329Z",
  "devdoc": {
    "methods": {}
  },
  "userdoc": {
    "methods": {}
  }
}