{
  "contractName": "LendingPoolDataProvider",
  "abi": [
    {
      "constant": false,
      "inputs": [],
      "name": "renounceOwnership",
      "outputs": [],
      "payable": false,
      "stateMutability": "nonpayable",
      "type": "function"
    },
    {
      "constant": true,
      "inputs": [],
      "name": "owner",
      "outputs": [
        {
          "name": "",
          "type": "address"
        }
      ],
      "payable": false,
      "stateMutability": "view",
      "type": "function"
    },
    {
      "constant": true,
      "inputs": [],
      "name": "isOwner",
      "outputs": [
        {
          "name": "",
          "type": "bool"
        }
      ],
      "payable": false,
      "stateMutability": "view",
      "type": "function"
    },
    {
      "constant": true,
      "inputs": [],
      "name": "addressesProvider",
      "outputs": [
        {
          "name": "",
          "type": "address"
        }
      ],
      "payable": false,
      "stateMutability": "view",
      "type": "function"
    },
    {
      "constant": false,
      "inputs": [
        {
          "name": "newOwner",
          "type": "address"
        }
      ],
      "name": "transferOwnership",
      "outputs": [],
      "payable": false,
      "stateMutability": "nonpayable",
      "type": "function"
    },
    {
      "inputs": [
        {
          "name": "_addressesProvider",
          "type": "address"
        }
      ],
      "payable": false,
      "stateMutability": "nonpayable",
      "type": "constructor"
    },
    {
      "anonymous": false,
      "inputs": [
        {
          "indexed": true,
          "name": "previousOwner",
          "type": "address"
        },
        {
          "indexed": true,
          "name": "newOwner",
          "type": "address"
        }
      ],
      "name": "OwnershipTransferred",
      "type": "event"
    },
    {
      "constant": true,
      "inputs": [
        {
          "name": "_user",
          "type": "address"
        }
      ],
      "name": "calculateUserGlobalData",
      "outputs": [
        {
          "name": "totalLiquidityBalanceETH",
          "type": "uint256"
        },
        {
          "name": "totalCollateralBalanceETH",
          "type": "uint256"
        },
        {
          "name": "totalBorrowBalanceETH",
          "type": "uint256"
        },
        {
          "name": "currentLtv",
          "type": "uint256"
        },
        {
          "name": "currentLiquidationThreshold",
          "type": "uint256"
        },
        {
          "name": "healthFactor",
          "type": "uint256"
        }
      ],
      "payable": false,
      "stateMutability": "view",
      "type": "function"
    },
    {
      "constant": true,
      "inputs": [
        {
          "name": "_reserve",
          "type": "address"
        },
        {
          "name": "_user",
          "type": "address"
        }
      ],
      "name": "getUserUnderlyingAssetBalance",
      "outputs": [
        {
          "name": "",
          "type": "uint256"
        }
      ],
      "payable": false,
      "stateMutability": "view",
      "type": "function"
    },
    {
      "constant": true,
      "inputs": [
        {
          "name": "_reserve",
          "type": "address"
        },
        {
          "name": "_user",
          "type": "address"
        },
        {
          "name": "_amount",
          "type": "uint256"
        }
      ],
      "name": "balanceDecreaseAllowed",
      "outputs": [
        {
          "name": "",
          "type": "bool"
        }
      ],
      "payable": false,
      "stateMutability": "view",
      "type": "function"
    },
    {
      "constant": true,
      "inputs": [],
      "name": "getHealthFactorLiquidationThreshold",
      "outputs": [
        {
          "name": "",
          "type": "uint256"
        }
      ],
      "payable": false,
      "stateMutability": "pure",
      "type": "function"
    },
    {
      "constant": true,
      "inputs": [
        {
          "name": "_reserve",
          "type": "address"
        }
      ],
      "name": "getReserveConfigurationData",
      "outputs": [
        {
          "name": "ltv",
          "type": "uint256"
        },
        {
          "name": "liquidationThreshold",
          "type": "uint256"
        },
        {
          "name": "liquidationDiscount",
          "type": "uint256"
        },
        {
          "name": "rateStrategyAddress",
          "type": "address"
        },
        {
          "name": "usageAsCollateralEnabled",
          "type": "bool"
        },
        {
          "name": "borrowingEnabled",
          "type": "bool"
        },
        {
          "name": "fixedBorrowRateEnabled",
          "type": "bool"
        },
        {
          "name": "isActive",
          "type": "bool"
        }
      ],
      "payable": false,
      "stateMutability": "view",
      "type": "function"
    },
    {
      "constant": true,
      "inputs": [
        {
          "name": "_reserve",
          "type": "address"
        }
      ],
      "name": "getReserveData",
      "outputs": [
        {
          "name": "totalLiquidity",
          "type": "uint256"
        },
        {
          "name": "availableLiquidity",
          "type": "uint256"
        },
        {
          "name": "totalBorrowsFixed",
          "type": "uint256"
        },
        {
          "name": "totalBorrowsVariable",
          "type": "uint256"
        },
        {
          "name": "liquidityRate",
          "type": "uint256"
        },
        {
          "name": "variableBorrowRate",
          "type": "uint256"
        },
        {
          "name": "fixedBorrowRate",
          "type": "uint256"
        },
        {
          "name": "averageFixedBorrowRate",
          "type": "uint256"
        },
        {
          "name": "utilizationRate",
          "type": "uint256"
        },
        {
          "name": "liquidityIndex",
          "type": "uint256"
        },
        {
          "name": "variableBorrowIndex",
          "type": "uint256"
        },
        {
          "name": "aTokenAddress",
          "type": "address"
        },
        {
          "name": "lastUpdateTimestamp",
          "type": "uint40"
        }
      ],
      "payable": false,
      "stateMutability": "view",
      "type": "function"
    },
    {
      "constant": true,
      "inputs": [
        {
          "name": "_user",
          "type": "address"
        }
      ],
      "name": "getUserAccountData",
      "outputs": [
        {
          "name": "totalLiquidityETH",
          "type": "uint256"
        },
        {
          "name": "totalCollateralETH",
          "type": "uint256"
        },
        {
          "name": "totalBorrowsETH",
          "type": "uint256"
        },
        {
          "name": "availableBorrowsETH",
          "type": "uint256"
        },
        {
          "name": "currentLiquidationThreshold",
          "type": "uint256"
        },
        {
          "name": "ltv",
          "type": "uint256"
        },
        {
          "name": "healthFactor",
          "type": "uint256"
        }
      ],
      "payable": false,
      "stateMutability": "view",
      "type": "function"
    },
    {
      "constant": true,
      "inputs": [
        {
          "name": "_reserve",
          "type": "address"
        },
        {
          "name": "_user",
          "type": "address"
        }
      ],
      "name": "getUserReserveData",
      "outputs": [
        {
          "name": "currentATokenBalance",
          "type": "uint256"
        },
        {
          "name": "currentUnderlyingBalance",
          "type": "uint256"
        },
        {
          "name": "currentBorrowBalance",
          "type": "uint256"
        },
        {
          "name": "principalBorrowBalance",
          "type": "uint256"
        },
        {
          "name": "borrowRateMode",
          "type": "uint256"
        },
        {
          "name": "borrowRate",
          "type": "uint256"
        },
        {
          "name": "liquidityRate",
          "type": "uint256"
        },
        {
          "name": "originationFee",
          "type": "uint256"
        },
        {
          "name": "variableBorrowIndex",
          "type": "uint256"
        },
        {
          "name": "lastUpdateTimestamp",
          "type": "uint256"
        },
        {
          "name": "usageAsCollateralEnabled",
          "type": "bool"
        }
      ],
      "payable": false,
      "stateMutability": "view",
      "type": "function"
    },
    {
      "constant": true,
      "inputs": [
        {
          "name": "_reserve",
          "type": "address"
        }
      ],
      "name": "getCoreActualReserveBalance",
      "outputs": [
        {
          "name": "",
          "type": "uint256"
        }
      ],
      "payable": false,
      "stateMutability": "view",
      "type": "function"
    }
  ],
  "bytecode": "0x60806040523480156200001157600080fd5b506040516020806200414e833981018060405260208110156200003357600080fd5b8101908080519060200190929190505050620000546200021b60201b60201c565b6000806101000a81548173ffffffffffffffffffffffffffffffffffffffff021916908373ffffffffffffffffffffffffffffffffffffffff1602179055506000809054906101000a900473ffffffffffffffffffffffffffffffffffffffff1673ffffffffffffffffffffffffffffffffffffffff16600073ffffffffffffffffffffffffffffffffffffffff167f8be0079c531659141344cd1fd0a4f28419497f9722a3daafe3b4186f6b6457e060405160405180910390a380600260006101000a81548173ffffffffffffffffffffffffffffffffffffffff021916908373ffffffffffffffffffffffffffffffffffffffff1602179055508073ffffffffffffffffffffffffffffffffffffffff1663ed6ff7606040518163ffffffff1660e01b815260040160206040518083038186803b1580156200019757600080fd5b505afa158015620001ac573d6000803e3d6000fd5b505050506040513d6020811015620001c357600080fd5b8101908080519060200190929190505050600160006101000a81548173ffffffffffffffffffffffffffffffffffffffff021916908373ffffffffffffffffffffffffffffffffffffffff1602179055505062000223565b600033905090565b613f1b80620002336000396000f3fe608060405234801561001057600080fd5b50600436106100ea5760003560e01c806376e9d6151161008c578063b7b2e0b111610066578063b7b2e0b114610569578063bf92857c146105c1578063c72c4d1014610643578063f2fde38b1461068d576100ea565b806376e9d615146104775780638da5cb5b146104fd5780638f32d59b14610547576100ea565b806335ea6a75116100c857806335ea6a75146102a45780633e1501411461038a5780633e44bee81461044f578063715018a61461046d576100ea565b806318a4dbca146100ef57806328dd2d01146101675780632c6d0e9b14610229575b600080fd5b6101516004803603604081101561010557600080fd5b81019080803573ffffffffffffffffffffffffffffffffffffffff169060200190929190803573ffffffffffffffffffffffffffffffffffffffff1690602001909291905050506106d1565b6040518082815260200191505060405180910390f35b6101c96004803603604081101561017d57600080fd5b81019080803573ffffffffffffffffffffffffffffffffffffffff169060200190929190803573ffffffffffffffffffffffffffffffffffffffff169060200190929190505050610871565b604051808c81526020018b81526020018a8152602001898152602001888152602001878152602001868152602001858152602001848152602001838152602001821515151581526020019b50505050505050505050505060405180910390f35b61026b6004803603602081101561023f57600080fd5b81019080803573ffffffffffffffffffffffffffffffffffffffff16906020019092919050505061152e565b60405180878152602001868152602001858152602001848152602001838152602001828152602001965050505050505060405180910390f35b6102e6600480360360208110156102ba57600080fd5b81019080803573ffffffffffffffffffffffffffffffffffffffff169060200190929190505050611d52565b604051808e81526020018d81526020018c81526020018b81526020018a81526020018981526020018881526020018781526020018681526020018581526020018481526020018373ffffffffffffffffffffffffffffffffffffffff1673ffffffffffffffffffffffffffffffffffffffff1681526020018264ffffffffff1664ffffffffff1681526020019d505050505050505050505050505060405180910390f35b6103cc600480360360208110156103a057600080fd5b81019080803573ffffffffffffffffffffffffffffffffffffffff1690602001909291905050506128a3565b604051808981526020018881526020018781526020018673ffffffffffffffffffffffffffffffffffffffff1673ffffffffffffffffffffffffffffffffffffffff168152602001851515151581526020018415151515815260200183151515158152602001821515151581526020019850505050505050505060405180910390f35b610457612c74565b6040518082815260200191505060405180910390f35b610475612c84565b005b6104e36004803603606081101561048d57600080fd5b81019080803573ffffffffffffffffffffffffffffffffffffffff169060200190929190803573ffffffffffffffffffffffffffffffffffffffff16906020019092919080359060200190929190505050612dbd565b604051808215151515815260200191505060405180910390f35b6105056132bc565b604051808273ffffffffffffffffffffffffffffffffffffffff1673ffffffffffffffffffffffffffffffffffffffff16815260200191505060405180910390f35b61054f6132e5565b604051808215151515815260200191505060405180910390f35b6105ab6004803603602081101561057f57600080fd5b81019080803573ffffffffffffffffffffffffffffffffffffffff169060200190929190505050613343565b6040518082815260200191505060405180910390f35b610603600480360360208110156105d757600080fd5b81019080803573ffffffffffffffffffffffffffffffffffffffff1690602001909291905050506135aa565b6040518088815260200187815260200186815260200185815260200184815260200183815260200182815260200197505050505050505060405180910390f35b61064b6135ee565b604051808273ffffffffffffffffffffffffffffffffffffffff1673ffffffffffffffffffffffffffffffffffffffff16815260200191505060405180910390f35b6106cf600480360360208110156106a357600080fd5b81019080803573ffffffffffffffffffffffffffffffffffffffff169060200190929190505050613614565b005b600080600160009054906101000a900473ffffffffffffffffffffffffffffffffffffffff1673ffffffffffffffffffffffffffffffffffffffff166334b3beee856040518263ffffffff1660e01b8152600401808273ffffffffffffffffffffffffffffffffffffffff1673ffffffffffffffffffffffffffffffffffffffff16815260200191505060206040518083038186803b15801561077357600080fd5b505afa158015610787573d6000803e3d6000fd5b505050506040513d602081101561079d57600080fd5b810190808051906020019092919050505090508073ffffffffffffffffffffffffffffffffffffffff16633af9e669846040518263ffffffff1660e01b8152600401808273ffffffffffffffffffffffffffffffffffffffff1673ffffffffffffffffffffffffffffffffffffffff16815260200191505060206040518083038186803b15801561082d57600080fd5b505afa158015610841573d6000803e3d6000fd5b505050506040513d602081101561085757600080fd5b810190808051906020019092919050505091505092915050565b6000806000806000806000806000806000600160009054906101000a900473ffffffffffffffffffffffffffffffffffffffff1673ffffffffffffffffffffffffffffffffffffffff166334b3beee8e6040518263ffffffff1660e01b8152600401808273ffffffffffffffffffffffffffffffffffffffff1673ffffffffffffffffffffffffffffffffffffffff16815260200191505060206040518083038186803b15801561092157600080fd5b505afa158015610935573d6000803e3d6000fd5b505050506040513d602081101561094b57600080fd5b810190808051906020019092919050505073ffffffffffffffffffffffffffffffffffffffff166370a082318d6040518263ffffffff1660e01b8152600401808273ffffffffffffffffffffffffffffffffffffffff1673ffffffffffffffffffffffffffffffffffffffff16815260200191505060206040518083038186803b1580156109d857600080fd5b505afa1580156109ec573d6000803e3d6000fd5b505050506040513d6020811015610a0257600080fd5b81019080805190602001909291905050509a50600160009054906101000a900473ffffffffffffffffffffffffffffffffffffffff1673ffffffffffffffffffffffffffffffffffffffff166334b3beee8e6040518263ffffffff1660e01b8152600401808273ffffffffffffffffffffffffffffffffffffffff1673ffffffffffffffffffffffffffffffffffffffff16815260200191505060206040518083038186803b158015610ab457600080fd5b505afa158015610ac8573d6000803e3d6000fd5b505050506040513d6020811015610ade57600080fd5b810190808051906020019092919050505073ffffffffffffffffffffffffffffffffffffffff16633af9e6698d6040518263ffffffff1660e01b8152600401808273ffffffffffffffffffffffffffffffffffffffff1673ffffffffffffffffffffffffffffffffffffffff16815260200191505060206040518083038186803b158015610b6b57600080fd5b505afa158015610b7f573d6000803e3d6000fd5b505050506040513d6020811015610b9557600080fd5b810190808051906020019092919050505099506000600160009054906101000a900473ffffffffffffffffffffffffffffffffffffffff1673ffffffffffffffffffffffffffffffffffffffff16631ca19f198f8f6040518363ffffffff1660e01b8152600401808373ffffffffffffffffffffffffffffffffffffffff1673ffffffffffffffffffffffffffffffffffffffff1681526020018273ffffffffffffffffffffffffffffffffffffffff1673ffffffffffffffffffffffffffffffffffffffff1681526020019250505060206040518083038186803b158015610c7d57600080fd5b505afa158015610c91573d6000803e3d6000fd5b505050506040513d6020811015610ca757600080fd5b81019080805190602001909291905050509050600160009054906101000a900473ffffffffffffffffffffffffffffffffffffffff1673ffffffffffffffffffffffffffffffffffffffff16639fb8afcd8f8f6040518363ffffffff1660e01b8152600401808373ffffffffffffffffffffffffffffffffffffffff1673ffffffffffffffffffffffffffffffffffffffff1681526020018273ffffffffffffffffffffffffffffffffffffffff1673ffffffffffffffffffffffffffffffffffffffff1681526020019250505060606040518083038186803b158015610d8d57600080fd5b505afa158015610da1573d6000803e3d6000fd5b505050506040513d6060811015610db757600080fd5b8101908080519060200190929190805190602001909291908051906020019092919050505050809b50819a505050806001811115610df157fe5b975060006001811115610e0057fe5b816001811115610e0c57fe5b14610ef057600160009054906101000a900473ffffffffffffffffffffffffffffffffffffffff1673ffffffffffffffffffffffffffffffffffffffff1663906c0a418f6040518263ffffffff1660e01b8152600401808273ffffffffffffffffffffffffffffffffffffffff1673ffffffffffffffffffffffffffffffffffffffff16815260200191505060206040518083038186803b158015610eb057600080fd5b505afa158015610ec4573d6000803e3d6000fd5b505050506040513d6020811015610eda57600080fd5b8101908080519060200190929190505050610fff565b600160009054906101000a900473ffffffffffffffffffffffffffffffffffffffff1673ffffffffffffffffffffffffffffffffffffffff166344e636b78f8f6040518363ffffffff1660e01b8152600401808373ffffffffffffffffffffffffffffffffffffffff1673ffffffffffffffffffffffffffffffffffffffff1681526020018273ffffffffffffffffffffffffffffffffffffffff1673ffffffffffffffffffffffffffffffffffffffff1681526020019250505060206040518083038186803b158015610fc357600080fd5b505afa158015610fd7573d6000803e3d6000fd5b505050506040513d6020811015610fed57600080fd5b81019080805190602001909291905050505b9650600160009054906101000a900473ffffffffffffffffffffffffffffffffffffffff1673ffffffffffffffffffffffffffffffffffffffff1663c540148e8f6040518263ffffffff1660e01b8152600401808273ffffffffffffffffffffffffffffffffffffffff1673ffffffffffffffffffffffffffffffffffffffff16815260200191505060206040518083038186803b1580156110a057600080fd5b505afa1580156110b4573d6000803e3d6000fd5b505050506040513d60208110156110ca57600080fd5b81019080805190602001909291905050509550600160009054906101000a900473ffffffffffffffffffffffffffffffffffffffff1673ffffffffffffffffffffffffffffffffffffffff1663feab31ac8f8f6040518363ffffffff1660e01b8152600401808373ffffffffffffffffffffffffffffffffffffffff1673ffffffffffffffffffffffffffffffffffffffff1681526020018273ffffffffffffffffffffffffffffffffffffffff1673ffffffffffffffffffffffffffffffffffffffff1681526020019250505060206040518083038186803b1580156111b057600080fd5b505afa1580156111c4573d6000803e3d6000fd5b505050506040513d60208110156111da57600080fd5b81019080805190602001909291905050509450600160009054906101000a900473ffffffffffffffffffffffffffffffffffffffff1673ffffffffffffffffffffffffffffffffffffffff1663f6ea8d768f8f6040518363ffffffff1660e01b8152600401808373ffffffffffffffffffffffffffffffffffffffff1673ffffffffffffffffffffffffffffffffffffffff1681526020018273ffffffffffffffffffffffffffffffffffffffff1673ffffffffffffffffffffffffffffffffffffffff1681526020019250505060206040518083038186803b1580156112c057600080fd5b505afa1580156112d4573d6000803e3d6000fd5b505050506040513d60208110156112ea57600080fd5b81019080805190602001909291905050509350600160009054906101000a900473ffffffffffffffffffffffffffffffffffffffff1673ffffffffffffffffffffffffffffffffffffffff166366d103f38f8f6040518363ffffffff1660e01b8152600401808373ffffffffffffffffffffffffffffffffffffffff1673ffffffffffffffffffffffffffffffffffffffff1681526020018273ffffffffffffffffffffffffffffffffffffffff1673ffffffffffffffffffffffffffffffffffffffff1681526020019250505060206040518083038186803b1580156113d057600080fd5b505afa1580156113e4573d6000803e3d6000fd5b505050506040513d60208110156113fa57600080fd5b81019080805190602001909291905050509250600160009054906101000a900473ffffffffffffffffffffffffffffffffffffffff1673ffffffffffffffffffffffffffffffffffffffff16639e3c4f3b8f8f6040518363ffffffff1660e01b8152600401808373ffffffffffffffffffffffffffffffffffffffff1673ffffffffffffffffffffffffffffffffffffffff1681526020018273ffffffffffffffffffffffffffffffffffffffff1673ffffffffffffffffffffffffffffffffffffffff1681526020019250505060206040518083038186803b1580156114e057600080fd5b505afa1580156114f4573d6000803e3d6000fd5b505050506040513d602081101561150a57600080fd5b81019080805190602001909291905050509150509295989b509295989b9093969950565b6000806000806000806000600260009054906101000a900473ffffffffffffffffffffffffffffffffffffffff1673ffffffffffffffffffffffffffffffffffffffff1663fca513a86040518163ffffffff1660e01b815260040160206040518083038186803b1580156115a157600080fd5b505afa1580156115b5573d6000803e3d6000fd5b505050506040513d60208110156115cb57600080fd5b810190808051906020019092919050505090506115e6613e0c565b6060600160009054906101000a900473ffffffffffffffffffffffffffffffffffffffff1673ffffffffffffffffffffffffffffffffffffffff16630902f1ac6040518163ffffffff1660e01b815260040160006040518083038186803b15801561165057600080fd5b505afa158015611664573d6000803e3d6000fd5b505050506040513d6000823e3d601f19601f82011682018060405250602081101561168e57600080fd5b8101908080516401000000008111156116a657600080fd5b828101905060208101848111156116bc57600080fd5b81518560208202830111640100000000821117156116d957600080fd5b5050929190505050905060008090505b8151811015611cee57600160009054906101000a900473ffffffffffffffffffffffffffffffffffffffff1673ffffffffffffffffffffffffffffffffffffffff16639fb8afcd83838151811061173c57fe5b60200260200101518d6040518363ffffffff1660e01b8152600401808373ffffffffffffffffffffffffffffffffffffffff1673ffffffffffffffffffffffffffffffffffffffff1681526020018273ffffffffffffffffffffffffffffffffffffffff1673ffffffffffffffffffffffffffffffffffffffff1681526020019250505060606040518083038186803b1580156117d857600080fd5b505afa1580156117ec573d6000803e3d6000fd5b505050506040513d606081101561180257600080fd5b810190808051906020019092919080519060200190929190805190602001909291905050509091505083606001818152505061185182828151811061184357fe5b60200260200101518c6106d1565b83604001818152505060008360400151148015611872575060008360600151145b1561187c57611ce1565b600160009054906101000a900473ffffffffffffffffffffffffffffffffffffffff1673ffffffffffffffffffffffffffffffffffffffff16635fc526ff8383815181106118c657fe5b60200260200101516040518263ffffffff1660e01b8152600401808273ffffffffffffffffffffffffffffffffffffffff1673ffffffffffffffffffffffffffffffffffffffff16815260200191505060c06040518083038186803b15801561192e57600080fd5b505afa158015611942573d6000803e3d6000fd5b505050506040513d60c081101561195857600080fd5b81019080805190602001909291908051906020019092919080519060200190929190805190602001909291908051906020019092919080519060200190929190505050905050866080018760a0018860c0018960e0018415151515815250848152508481525084815250505050508260800151600a0a8360200181815250508373ffffffffffffffffffffffffffffffffffffffff1663b3596f078383815181106119ff57fe5b60200260200101516040518263ffffffff1660e01b8152600401808273ffffffffffffffffffffffffffffffffffffffff1673ffffffffffffffffffffffffffffffffffffffff16815260200191505060206040518083038186803b158015611a6757600080fd5b505afa158015611a7b573d6000803e3d6000fd5b505050506040513d6020811015611a9157600080fd5b8101908080519060200190929190505050836000018181525050600083604001511115611ca3576000611aeb8460200151611add8660400151876000015161369a90919063ffffffff16565b61372090919063ffffffff16565b9050611b00818c61376a90919063ffffffff16565b9a508360e001518015611c305750600160009054906101000a900473ffffffffffffffffffffffffffffffffffffffff1673ffffffffffffffffffffffffffffffffffffffff16639e3c4f3b848481518110611b5857fe5b60200260200101518e6040518363ffffffff1660e01b8152600401808373ffffffffffffffffffffffffffffffffffffffff1673ffffffffffffffffffffffffffffffffffffffff1681526020018273ffffffffffffffffffffffffffffffffffffffff1673ffffffffffffffffffffffffffffffffffffffff1681526020019250505060206040518083038186803b158015611bf457600080fd5b505afa158015611c08573d6000803e3d6000fd5b505050506040513d6020811015611c1e57600080fd5b81019080805190602001909291905050505b15611ca157611c48818b61376a90919063ffffffff16565b9950611c73611c648560a001518361369a90919063ffffffff16565b8961376a90919063ffffffff16565b9750611c9e611c8f8560c001518361369a90919063ffffffff16565b8861376a90919063ffffffff16565b96505b505b600083606001511115611ce057611cdd611cce846060015185600001516137f290919063ffffffff16565b8961376a90919063ffffffff16565b97505b5b80806001019150506116e9565b5060008811611cfe576000611d12565b611d11888761372090919063ffffffff16565b5b955060008811611d23576000611d37565b611d36888661372090919063ffffffff16565b5b9450611d4488888761384d565b935050505091939550919395565b6000806000806000806000806000806000806000600160009054906101000a900473ffffffffffffffffffffffffffffffffffffffff1673ffffffffffffffffffffffffffffffffffffffff1663c33cfd908f6040518263ffffffff1660e01b8152600401808273ffffffffffffffffffffffffffffffffffffffff1673ffffffffffffffffffffffffffffffffffffffff16815260200191505060206040518083038186803b158015611e0557600080fd5b505afa158015611e19573d6000803e3d6000fd5b505050506040513d6020811015611e2f57600080fd5b81019080805190602001909291905050509c50600160009054906101000a900473ffffffffffffffffffffffffffffffffffffffff1673ffffffffffffffffffffffffffffffffffffffff1663e24030198f6040518263ffffffff1660e01b8152600401808273ffffffffffffffffffffffffffffffffffffffff1673ffffffffffffffffffffffffffffffffffffffff16815260200191505060206040518083038186803b158015611ee157600080fd5b505afa158015611ef5573d6000803e3d6000fd5b505050506040513d6020811015611f0b57600080fd5b81019080805190602001909291905050509b50600160009054906101000a900473ffffffffffffffffffffffffffffffffffffffff1673ffffffffffffffffffffffffffffffffffffffff1663308f9d558f6040518263ffffffff1660e01b8152600401808273ffffffffffffffffffffffffffffffffffffffff1673ffffffffffffffffffffffffffffffffffffffff16815260200191505060206040518083038186803b158015611fbd57600080fd5b505afa158015611fd1573d6000803e3d6000fd5b505050506040513d6020811015611fe757600080fd5b81019080805190602001909291905050509a50600160009054906101000a900473ffffffffffffffffffffffffffffffffffffffff1673ffffffffffffffffffffffffffffffffffffffff166398bd47378f6040518263ffffffff1660e01b8152600401808273ffffffffffffffffffffffffffffffffffffffff1673ffffffffffffffffffffffffffffffffffffffff16815260200191505060206040518083038186803b15801561209957600080fd5b505afa1580156120ad573d6000803e3d6000fd5b505050506040513d60208110156120c357600080fd5b81019080805190602001909291905050509950600160009054906101000a900473ffffffffffffffffffffffffffffffffffffffff1673ffffffffffffffffffffffffffffffffffffffff1663c540148e8f6040518263ffffffff1660e01b8152600401808273ffffffffffffffffffffffffffffffffffffffff1673ffffffffffffffffffffffffffffffffffffffff16815260200191505060206040518083038186803b15801561217557600080fd5b505afa158015612189573d6000803e3d6000fd5b505050506040513d602081101561219f57600080fd5b81019080805190602001909291905050509850600160009054906101000a900473ffffffffffffffffffffffffffffffffffffffff1673ffffffffffffffffffffffffffffffffffffffff1663906c0a418f6040518263ffffffff1660e01b8152600401808273ffffffffffffffffffffffffffffffffffffffff1673ffffffffffffffffffffffffffffffffffffffff16815260200191505060206040518083038186803b15801561225157600080fd5b505afa158015612265573d6000803e3d6000fd5b505050506040513d602081101561227b57600080fd5b81019080805190602001909291905050509750600160009054906101000a900473ffffffffffffffffffffffffffffffffffffffff1673ffffffffffffffffffffffffffffffffffffffff16639e7d3b968f6040518263ffffffff1660e01b8152600401808273ffffffffffffffffffffffffffffffffffffffff1673ffffffffffffffffffffffffffffffffffffffff16815260200191505060206040518083038186803b15801561232d57600080fd5b505afa158015612341573d6000803e3d6000fd5b505050506040513d602081101561235757600080fd5b81019080805190602001909291905050509650600160009054906101000a900473ffffffffffffffffffffffffffffffffffffffff1673ffffffffffffffffffffffffffffffffffffffff16637269e8538f6040518263ffffffff1660e01b8152600401808273ffffffffffffffffffffffffffffffffffffffff1673ffffffffffffffffffffffffffffffffffffffff16815260200191505060206040518083038186803b15801561240957600080fd5b505afa15801561241d573d6000803e3d6000fd5b505050506040513d602081101561243357600080fd5b81019080805190602001909291905050509550600160009054906101000a900473ffffffffffffffffffffffffffffffffffffffff1673ffffffffffffffffffffffffffffffffffffffff1663bfacad848f6040518263ffffffff1660e01b8152600401808273ffffffffffffffffffffffffffffffffffffffff1673ffffffffffffffffffffffffffffffffffffffff16815260200191505060206040518083038186803b1580156124e557600080fd5b505afa1580156124f9573d6000803e3d6000fd5b505050506040513d602081101561250f57600080fd5b81019080805190602001909291905050509450600160009054906101000a900473ffffffffffffffffffffffffffffffffffffffff1673ffffffffffffffffffffffffffffffffffffffff1663bd7fd79a8f6040518263ffffffff1660e01b8152600401808273ffffffffffffffffffffffffffffffffffffffff1673ffffffffffffffffffffffffffffffffffffffff16815260200191505060206040518083038186803b1580156125c157600080fd5b505afa1580156125d5573d6000803e3d6000fd5b505050506040513d60208110156125eb57600080fd5b81019080805190602001909291905050509350600160009054906101000a900473ffffffffffffffffffffffffffffffffffffffff1673ffffffffffffffffffffffffffffffffffffffff1663b701d0938f6040518263ffffffff1660e01b8152600401808273ffffffffffffffffffffffffffffffffffffffff1673ffffffffffffffffffffffffffffffffffffffff16815260200191505060206040518083038186803b15801561269d57600080fd5b505afa1580156126b1573d6000803e3d6000fd5b505050506040513d60208110156126c757600080fd5b81019080805190602001909291905050509250600160009054906101000a900473ffffffffffffffffffffffffffffffffffffffff1673ffffffffffffffffffffffffffffffffffffffff166334b3beee8f6040518263ffffffff1660e01b8152600401808273ffffffffffffffffffffffffffffffffffffffff1673ffffffffffffffffffffffffffffffffffffffff16815260200191505060206040518083038186803b15801561277957600080fd5b505afa15801561278d573d6000803e3d6000fd5b505050506040513d60208110156127a357600080fd5b81019080805190602001909291905050509150600160009054906101000a900473ffffffffffffffffffffffffffffffffffffffff1673ffffffffffffffffffffffffffffffffffffffff16634f1446098f6040518263ffffffff1660e01b8152600401808273ffffffffffffffffffffffffffffffffffffffff1673ffffffffffffffffffffffffffffffffffffffff16815260200191505060206040518083038186803b15801561285557600080fd5b505afa158015612869573d6000803e3d6000fd5b505050506040513d602081101561287f57600080fd5b8101908080519060200190929190505050905091939597999b9d90929496989a9c50565b600080600080600080600080600160009054906101000a900473ffffffffffffffffffffffffffffffffffffffff1673ffffffffffffffffffffffffffffffffffffffff16635fc526ff8a6040518263ffffffff1660e01b8152600401808273ffffffffffffffffffffffffffffffffffffffff1673ffffffffffffffffffffffffffffffffffffffff16815260200191505060c06040518083038186803b15801561294e57600080fd5b505afa158015612962573d6000803e3d6000fd5b505050506040513d60c081101561297857600080fd5b81019080805190602001909291908051906020019092919080519060200190929190805190602001909291908051906020019092919080519060200190929190505050909192939450809750819650829850839b50849c505050505050600160009054906101000a900473ffffffffffffffffffffffffffffffffffffffff1673ffffffffffffffffffffffffffffffffffffffff166305075d6e8a6040518263ffffffff1660e01b8152600401808273ffffffffffffffffffffffffffffffffffffffff1673ffffffffffffffffffffffffffffffffffffffff16815260200191505060206040518083038186803b158015612a7457600080fd5b505afa158015612a88573d6000803e3d6000fd5b505050506040513d6020811015612a9e57600080fd5b81019080805190602001909291905050509050600160009054906101000a900473ffffffffffffffffffffffffffffffffffffffff1673ffffffffffffffffffffffffffffffffffffffff1663b77b19588a6040518263ffffffff1660e01b8152600401808273ffffffffffffffffffffffffffffffffffffffff1673ffffffffffffffffffffffffffffffffffffffff16815260200191505060206040518083038186803b158015612b5057600080fd5b505afa158015612b64573d6000803e3d6000fd5b505050506040513d6020811015612b7a57600080fd5b81019080805190602001909291905050509550600160009054906101000a900473ffffffffffffffffffffffffffffffffffffffff1673ffffffffffffffffffffffffffffffffffffffff16636ae144168a6040518263ffffffff1660e01b8152600401808273ffffffffffffffffffffffffffffffffffffffff1673ffffffffffffffffffffffffffffffffffffffff16815260200191505060206040518083038186803b158015612c2c57600080fd5b505afa158015612c40573d6000803e3d6000fd5b505050506040513d6020811015612c5657600080fd5b81019080805190602001909291905050509450919395975091939597565b6000670de0b6b3a7640000905090565b612c8c6132e5565b612cfe576040517f08c379a00000000000000000000000000000000000000000000000000000000081526004018080602001828103825260208152602001807f4f776e61626c653a2063616c6c6572206973206e6f7420746865206f776e657281525060200191505060405180910390fd5b600073ffffffffffffffffffffffffffffffffffffffff166000809054906101000a900473ffffffffffffffffffffffffffffffffffffffff1673ffffffffffffffffffffffffffffffffffffffff167f8be0079c531659141344cd1fd0a4f28419497f9722a3daafe3b4186f6b6457e060405160405180910390a360008060006101000a81548173ffffffffffffffffffffffffffffffffffffffff021916908373ffffffffffffffffffffffffffffffffffffffff160217905550565b6000612dc7613e53565b600160009054906101000a900473ffffffffffffffffffffffffffffffffffffffff1673ffffffffffffffffffffffffffffffffffffffff16635fc526ff866040518263ffffffff1660e01b8152600401808273ffffffffffffffffffffffffffffffffffffffff1673ffffffffffffffffffffffffffffffffffffffff16815260200191505060c06040518083038186803b158015612e6657600080fd5b505afa158015612e7a573d6000803e3d6000fd5b505050506040513d60c0811015612e9057600080fd5b810190808051906020019092919080519060200190929190805190602001909291908051906020019092919080519060200190929190805190602001909291905050509091929350905050836000018460800185610120018315151515815250838152508381525050505080610120015115806130185750600160009054906101000a900473ffffffffffffffffffffffffffffffffffffffff1673ffffffffffffffffffffffffffffffffffffffff16639e3c4f3b86866040518363ffffffff1660e01b8152600401808373ffffffffffffffffffffffffffffffffffffffff1673ffffffffffffffffffffffffffffffffffffffff1681526020018273ffffffffffffffffffffffffffffffffffffffff1673ffffffffffffffffffffffffffffffffffffffff1681526020019250505060206040518083038186803b158015612fdb57600080fd5b505afa158015612fef573d6000803e3d6000fd5b505050506040513d602081101561300557600080fd5b8101908080519060200190929190505050155b156130275760019150506132b5565b6130308461152e565b9091929394509091505083602001846040018560600183815250838152508381525050505060008160400151141561306c5760019150506132b5565b6000600260009054906101000a900473ffffffffffffffffffffffffffffffffffffffff1673ffffffffffffffffffffffffffffffffffffffff1663fca513a86040518163ffffffff1660e01b815260040160206040518083038186803b1580156130d657600080fd5b505afa1580156130ea573d6000803e3d6000fd5b505050506040513d602081101561310057600080fd5b810190808051906020019092919050505090506131f68260000151600a0a6131e8868473ffffffffffffffffffffffffffffffffffffffff1663b3596f078b6040518263ffffffff1660e01b8152600401808273ffffffffffffffffffffffffffffffffffffffff1673ffffffffffffffffffffffffffffffffffffffff16815260200191505060206040518083038186803b15801561319f57600080fd5b505afa1580156131b3573d6000803e3d6000fd5b505050506040513d60208110156131c957600080fd5b810190808051906020019092919050505061369a90919063ffffffff16565b61372090919063ffffffff16565b8260a001818152505061321a8260a0015183602001516138c190919063ffffffff16565b8260c00181815250506132808260c0015161327261324985608001518660a0015161369a90919063ffffffff16565b6132648660600151876020015161369a90919063ffffffff16565b6138c190919063ffffffff16565b61372090919063ffffffff16565b8260e001818152505060006132a28360c0015184604001518560e0015161384d565b9050670de0b6b3a7640000811193505050505b9392505050565b60008060009054906101000a900473ffffffffffffffffffffffffffffffffffffffff16905090565b60008060009054906101000a900473ffffffffffffffffffffffffffffffffffffffff1673ffffffffffffffffffffffffffffffffffffffff1661332761390b565b73ffffffffffffffffffffffffffffffffffffffff1614905090565b600080600260009054906101000a900473ffffffffffffffffffffffffffffffffffffffff1673ffffffffffffffffffffffffffffffffffffffff1663b5722bb56040518163ffffffff1660e01b815260040160206040518083038186803b1580156133ae57600080fd5b505afa1580156133c2573d6000803e3d6000fd5b505050506040513d60208110156133d857600080fd5b810190808051906020019092919050505073ffffffffffffffffffffffffffffffffffffffff166317bfdd576040518163ffffffff1660e01b815260040160206040518083038186803b15801561342e57600080fd5b505afa158015613442573d6000803e3d6000fd5b505050506040513d602081101561345857600080fd5b810190808051906020019092919050505090506000600160009054906101000a900473ffffffffffffffffffffffffffffffffffffffff16905060008273ffffffffffffffffffffffffffffffffffffffff168573ffffffffffffffffffffffffffffffffffffffff1614613584578473ffffffffffffffffffffffffffffffffffffffff166370a08231836040518263ffffffff1660e01b8152600401808273ffffffffffffffffffffffffffffffffffffffff1673ffffffffffffffffffffffffffffffffffffffff16815260200191505060206040518083038186803b15801561354457600080fd5b505afa158015613558573d6000803e3d6000fd5b505050506040513d602081101561356e57600080fd5b810190808051906020019092919050505061359d565b8173ffffffffffffffffffffffffffffffffffffffff16315b9050809350505050919050565b60008060008060008060006135be8861152e565b809650819850829750839a50849b50859c505050505050506135e1868684613913565b9350919395979092949650565b600260009054906101000a900473ffffffffffffffffffffffffffffffffffffffff1681565b61361c6132e5565b61368e576040517f08c379a00000000000000000000000000000000000000000000000000000000081526004018080602001828103825260208152602001807f4f776e61626c653a2063616c6c6572206973206e6f7420746865206f776e657281525060200191505060405180910390fd5b61369781613aea565b50565b6000808314156136ad576000905061371a565b60008284029050828482816136be57fe5b0414613715576040517f08c379a0000000000000000000000000000000000000000000000000000000008152600401808060200182810382526021815260200180613ecf6021913960400191505060405180910390fd5b809150505b92915050565b600061376283836040518060400160405280601a81526020017f536166654d6174683a206469766973696f6e206279207a65726f000000000000815250613c2e565b905092915050565b6000808284019050838110156137e8576040517f08c379a000000000000000000000000000000000000000000000000000000000815260040180806020018281038252601b8152602001807f536166654d6174683a206164646974696f6e206f766572666c6f77000000000081525060200191505060405180910390fd5b8091505092915050565b6000613845670de0b6b3a7640000613837613816858761369a90919063ffffffff16565b6002670de0b6b3a76400008161382857fe5b0461376a90919063ffffffff16565b61372090919063ffffffff16565b905092915050565b60008083141561387f577fffffffffffffffffffffffffffffffffffffffffffffffffffffffffffffffff90506138ba565b6138b7836138a9606461389b868961369a90919063ffffffff16565b61372090919063ffffffff16565b613cf490919063ffffffff16565b90505b9392505050565b600061390383836040518060400160405280601e81526020017f536166654d6174683a207375627472616374696f6e206f766572666c6f770000815250613d4c565b905092915050565b600033905090565b60008061393c606461392e858861369a90919063ffffffff16565b61372090919063ffffffff16565b905083811015613950576000915050613ae3565b61396384826138c190919063ffffffff16565b90506000600260009054906101000a900473ffffffffffffffffffffffffffffffffffffffff1673ffffffffffffffffffffffffffffffffffffffff1663fbeefc3c6040518163ffffffff1660e01b815260040160206040518083038186803b1580156139cf57600080fd5b505afa1580156139e3573d6000803e3d6000fd5b505050506040513d60208110156139f957600080fd5b810190808051906020019092919050505073ffffffffffffffffffffffffffffffffffffffff1663e563a7d033846040518363ffffffff1660e01b8152600401808373ffffffffffffffffffffffffffffffffffffffff1673ffffffffffffffffffffffffffffffffffffffff1681526020018281526020019250505060206040518083038186803b158015613a8e57600080fd5b505afa158015613aa2573d6000803e3d6000fd5b505050506040513d6020811015613ab857600080fd5b81019080805190602001909291905050509050613ade81836138c190919063ffffffff16565b925050505b9392505050565b600073ffffffffffffffffffffffffffffffffffffffff168173ffffffffffffffffffffffffffffffffffffffff161415613b70576040517f08c379a0000000000000000000000000000000000000000000000000000000008152600401808060200182810382526026815260200180613ea96026913960400191505060405180910390fd5b8073ffffffffffffffffffffffffffffffffffffffff166000809054906101000a900473ffffffffffffffffffffffffffffffffffffffff1673ffffffffffffffffffffffffffffffffffffffff167f8be0079c531659141344cd1fd0a4f28419497f9722a3daafe3b4186f6b6457e060405160405180910390a3806000806101000a81548173ffffffffffffffffffffffffffffffffffffffff021916908373ffffffffffffffffffffffffffffffffffffffff16021790555050565b60008083118290613cda576040517f08c379a00000000000000000000000000000000000000000000000000000000081526004018080602001828103825283818151815260200191508051906020019080838360005b83811015613c9f578082015181840152602081019050613c84565b50505050905090810190601f168015613ccc5780820380516001836020036101000a031916815260200191505b509250505060405180910390fd5b506000838581613ce657fe5b049050809150509392505050565b60008060028381613d0157fe5b049050613d4383613d35613d26670de0b6b3a76400008861369a90919063ffffffff16565b8461376a90919063ffffffff16565b61372090919063ffffffff16565b91505092915050565b6000838311158290613df9576040517f08c379a00000000000000000000000000000000000000000000000000000000081526004018080602001828103825283818151815260200191508051906020019080838360005b83811015613dbe578082015181840152602081019050613da3565b50505050905090810190601f168015613deb5780820380516001836020036101000a031916815260200191505b509250505060405180910390fd5b5060008385039050809150509392505050565b604051806101000160405280600081526020016000815260200160008152602001600081526020016000815260200160008152602001600081526020016000151581525090565b604051806101400160405280600081526020016000815260200160008152602001600081526020016000815260200160008152602001600081526020016000815260200160008152602001600015158152509056fe4f776e61626c653a206e6577206f776e657220697320746865207a65726f2061646472657373536166654d6174683a206d756c7469706c69636174696f6e206f766572666c6f77a165627a7a723058205d20a06d6cd30f1a0ef02eb88ae4c1a9649c8264e21b98c5cf1036de3db075c10029",
  "source": "pragma solidity ^0.5.0;\r\n\r\nimport \"openzeppelin-solidity/contracts/ownership/Ownable.sol\";\r\nimport \"openzeppelin-solidity/contracts/math/SafeMath.sol\";\r\n\r\nimport \"../libraries/CoreLibrary.sol\";\r\nimport \"../configuration/LendingPoolAddressesProvider.sol\";\r\nimport \"../configuration/NetworkMetadataProvider.sol\";\r\nimport \"../libraries/WadRayMath.sol\";\r\nimport \"../interfaces/IFeeProvider.sol\";\r\nimport \"../tokenization/AToken.sol\";\r\n\r\nimport \"./LendingPoolCore.sol\";\r\n\r\n\r\n\r\n/*************************************************************************************\r\n@title LendingPoolDataProvider contract\r\n@author Aave\r\n@notice Implements functions to fetch data from the core, and aggregate them in order to allow computation\r\non the compounded balances and the account balances in ETH\r\n *************************************************************************************/\r\n\r\ncontract LendingPoolDataProvider is Ownable {\r\n    using SafeMath for uint256;\r\n    using WadRayMath for uint256;\r\n\r\n    LendingPoolCore core;\r\n    LendingPoolAddressesProvider public addressesProvider;\r\n\r\n    /**\r\n    @dev specifies the health factor threshold at which the user position is liquidated.\r\n    1 by default, if the health factor drops below 1, the loan gets liquidated.\r\n     */\r\n    uint256 constant HEALTH_FACTOR_LIQUIDATION_THRESHOLD = 1e18;\r\n\r\n\r\n    constructor(LendingPoolAddressesProvider _addressesProvider) public {\r\n        addressesProvider = _addressesProvider;\r\n        core = LendingPoolCore(_addressesProvider.getLendingPoolCore());\r\n    }\r\n\r\n    /**\r\n    @dev struct to hold calculateUserGlobalData() local computations\r\n     */\r\n    struct UserGlobalDataLocalVars {\r\n        uint256 reserveUnitPrice;\r\n        uint256 tokenUnit;\r\n        uint256 compoundedLiquidityBalance;\r\n        uint256 compoundedBorrowBalance;\r\n        uint256 reserveDecimals;\r\n        uint256 baseLtv;\r\n        uint256 liquidationThreshold;\r\n        bool usageAsCollateralEnabled;\r\n    }\r\n\r\n    /**\r\n    @notice calculates the user data across the reserves.\r\n    this includes the total liquidity/collateral/borrow balances in ETH,\r\n    the average Loan To Value, the average Liquidation Ratio, and the Health factor.\r\n     */\r\n    function calculateUserGlobalData(address _user)\r\n        public\r\n        view\r\n        returns (\r\n            uint256 totalLiquidityBalanceETH,\r\n            uint256 totalCollateralBalanceETH,\r\n            uint256 totalBorrowBalanceETH,\r\n            uint256 currentLtv,\r\n            uint256 currentLiquidationThreshold,\r\n            uint256 healthFactor\r\n            )\r\n    {\r\n        IPriceOracle oracle = IPriceOracle(addressesProvider.getPriceOracle());\r\n        UserGlobalDataLocalVars memory vars;\r\n\r\n        address[] memory reserves = core.getReserves();\r\n\r\n        for (uint256 i = 0; i < reserves.length; i++) {\r\n\r\n            (,vars.compoundedBorrowBalance,) = core.getUserBorrowBalances(reserves[i], _user);\r\n            vars.compoundedLiquidityBalance = getUserUnderlyingAssetBalance(reserves[i], _user);\r\n\r\n            if(vars.compoundedLiquidityBalance == 0 && vars.compoundedBorrowBalance == 0){\r\n                continue;\r\n            }\r\n\r\n            //fetch reserve data\r\n            (vars.reserveDecimals,\r\n            vars.baseLtv,\r\n            vars.liquidationThreshold,\r\n            vars.usageAsCollateralEnabled,\r\n            ,) = core.getReserveConfiguration(reserves[i]);\r\n            vars.tokenUnit = 10 ** vars.reserveDecimals;\r\n            vars.reserveUnitPrice = oracle.getAssetPrice(reserves[i]);\r\n\r\n            //liquidity and collateral balance\r\n            if (vars.compoundedLiquidityBalance > 0) {\r\n\r\n\r\n                uint256 liquidityBalanceETH = vars.reserveUnitPrice.mul(vars.compoundedLiquidityBalance).div(\r\n                    vars.tokenUnit\r\n                );\r\n                totalLiquidityBalanceETH = totalLiquidityBalanceETH.add(liquidityBalanceETH);\r\n\r\n                if (vars.usageAsCollateralEnabled && core.isUserUseReserveAsCollateralEnabled(reserves[i], _user)) {\r\n                    totalCollateralBalanceETH = totalCollateralBalanceETH.add(liquidityBalanceETH);\r\n                    currentLtv = currentLtv.add(liquidityBalanceETH.mul(vars.baseLtv));\r\n                    currentLiquidationThreshold = currentLiquidationThreshold\r\n                        .add(liquidityBalanceETH.mul(vars.liquidationThreshold));\r\n                }\r\n            }\r\n\r\n            if (vars.compoundedBorrowBalance > 0) {\r\n                totalBorrowBalanceETH = totalBorrowBalanceETH.add(vars.reserveUnitPrice.wadMul(vars.compoundedBorrowBalance));\r\n            }\r\n        }\r\n\r\n        currentLtv = totalCollateralBalanceETH > 0 ? currentLtv.div(totalCollateralBalanceETH) : 0;\r\n        currentLiquidationThreshold = totalCollateralBalanceETH > 0 ? currentLiquidationThreshold.div(totalCollateralBalanceETH) : 0;\r\n\r\n        healthFactor = calculateHealthFactorFromBalancesInternal(\r\n            totalCollateralBalanceETH,\r\n            totalBorrowBalanceETH,\r\n            currentLiquidationThreshold\r\n            );\r\n\r\n    }\r\n\r\n\r\n    /**\r\n    @notice gets the underlying asset balance of a user based on the corresponding aToken balance.\r\n     */\r\n\r\n    function getUserUnderlyingAssetBalance(address _reserve, address _user) public view returns (uint256) {\r\n\r\n        AToken aToken = AToken(core.getReserveATokenAddress(_reserve));\r\n\r\n        return aToken.balanceOfUnderlying(_user);\r\n\r\n    }\r\n    /**\r\n    @notice check if a specific balance decrease is allowed (i.e. doesn't bring the user borrow position health factor under 1)\r\n    Used by the transferInternal() method of the aToken contract to check if a transfer of tokens is allowed.\r\n     */\r\n\r\n    struct balanceDecreaseAllowedLocalVars {\r\n        uint256 decimals;\r\n        uint256 collateralBalanceETH;\r\n        uint256 borrowBalanceETH;\r\n        uint256 currentLiquidationThreshold;\r\n        uint256 reserveLiquidationThreshold;\r\n        uint256 amountToDecreaseETH;\r\n        uint256 collateralBalancefterDecrease;\r\n        uint256 liquidationThresholdAfterDecrease;\r\n        uint256 healthFactorAfterDecrease;\r\n        bool reserveUsageAsCollateralEnabled;\r\n    }\r\n\r\n    function balanceDecreaseAllowed(address _reserve, address _user, uint _amount) external view returns (bool) {\r\n\r\n        balanceDecreaseAllowedLocalVars memory vars;\r\n\r\n        (vars.decimals,\r\n        ,\r\n        vars.reserveLiquidationThreshold,\r\n        vars.reserveUsageAsCollateralEnabled,\r\n        ,) = core.getReserveConfiguration(_reserve);\r\n\r\n        if(!vars.reserveUsageAsCollateralEnabled || !core.isUserUseReserveAsCollateralEnabled(_reserve, _user)){\r\n            return true; //if reserve is not used as collateral, no reasons to block the transfer\r\n        }\r\n\r\n        (,\r\n        vars.collateralBalanceETH,\r\n        vars.borrowBalanceETH,\r\n        ,\r\n        vars.currentLiquidationThreshold,\r\n        ) = calculateUserGlobalData(_user);\r\n\r\n        if(vars.borrowBalanceETH == 0){\r\n            return true; //no borrows - no reasons to block the transfer\r\n        }\r\n\r\n        IPriceOracle oracle = IPriceOracle(addressesProvider.getPriceOracle());\r\n\r\n        vars.amountToDecreaseETH = oracle\r\n            .getAssetPrice(_reserve)\r\n            .mul(_amount)\r\n            .div(10 ** vars.decimals);\r\n\r\n        vars.collateralBalancefterDecrease = vars.collateralBalanceETH.sub(vars.amountToDecreaseETH);\r\n\r\n        vars.liquidationThresholdAfterDecrease = vars.collateralBalanceETH\r\n            .mul(vars.currentLiquidationThreshold)\r\n            .sub(vars.amountToDecreaseETH.mul(vars.reserveLiquidationThreshold))\r\n            .div(vars.collateralBalancefterDecrease);\r\n\r\n\r\n        uint256 healthFactorAfterDecrease = calculateHealthFactorFromBalancesInternal(\r\n            vars.collateralBalancefterDecrease,\r\n            vars.borrowBalanceETH,\r\n            vars.liquidationThresholdAfterDecrease);\r\n\r\n        return healthFactorAfterDecrease > HEALTH_FACTOR_LIQUIDATION_THRESHOLD;\r\n\r\n    }\r\n\r\n     /**\r\n    @notice calculates the equivalent amount in ETH that an user can borrow, depeding on the available collateral and the\r\n    average Loan To Value.\r\n     */\r\n\r\n    function calculateAvailableBorrowsETHInternal(uint256 collateralBalanceETH, uint256 borrowBalanceETH, uint256 ltv)\r\n        internal\r\n        view\r\n        returns (uint256) {\r\n\r\n        uint availableBorrowsETH = collateralBalanceETH.mul(ltv).div(100); //ltv is in percentage\r\n\r\n        if(availableBorrowsETH < borrowBalanceETH){\r\n            return 0;\r\n        }\r\n\r\n        availableBorrowsETH = availableBorrowsETH.sub(borrowBalanceETH);\r\n        //calculate fee\r\n        uint256 borrowFee = IFeeProvider(addressesProvider.getFeeProvider()).calculateLoanOriginationFee(\r\n            msg.sender,\r\n            availableBorrowsETH\r\n        );\r\n        return availableBorrowsETH.sub(borrowFee);\r\n    }\r\n\r\n   /**\r\n    @notice calculates the health factor from the corresponding balances\r\n     */\r\n    function calculateHealthFactorFromBalancesInternal(\r\n        uint256 collateralBalanceETH,\r\n        uint256 borrowBalanceETH,\r\n        uint256 liquidationThreshold\r\n        )\r\n        internal\r\n        pure\r\n        returns (uint256)\r\n    {\r\n        if (borrowBalanceETH == 0) return uint256(-1);\r\n\r\n        return (collateralBalanceETH.mul(liquidationThreshold).div(100)).wadDiv(borrowBalanceETH);\r\n    }\r\n\r\n\r\n    function getHealthFactorLiquidationThreshold() public pure returns(uint) {\r\n        return HEALTH_FACTOR_LIQUIDATION_THRESHOLD;\r\n    }\r\n\r\n\r\n    function getReserveConfigurationData(address _reserve)\r\n        external\r\n        view\r\n        returns (\r\n            uint256 ltv,\r\n            uint256 liquidationThreshold,\r\n            uint256 liquidationDiscount,\r\n            address rateStrategyAddress,\r\n            bool usageAsCollateralEnabled,\r\n            bool borrowingEnabled,\r\n            bool fixedBorrowRateEnabled,\r\n            bool isActive)\r\n    {\r\n        (,\r\n        ltv,\r\n        liquidationThreshold,\r\n        usageAsCollateralEnabled,\r\n        fixedBorrowRateEnabled,\r\n        borrowingEnabled) = core.getReserveConfiguration(_reserve);\r\n        isActive = core.getReserveIsActive(_reserve);\r\n        liquidationDiscount = core.getReserveLiquidationDiscount(_reserve);\r\n\r\n        rateStrategyAddress = core.getReserveInterestRateStrategyAddress(_reserve);\r\n    }\r\n\r\n    function getReserveData(address _reserve)\r\n        external\r\n        view\r\n        returns (\r\n            uint256 totalLiquidity,\r\n            uint256 availableLiquidity,\r\n            uint256 totalBorrowsFixed,\r\n            uint256 totalBorrowsVariable,\r\n            uint256 liquidityRate,\r\n            uint256 variableBorrowRate,\r\n            uint256 fixedBorrowRate,\r\n            uint256 averageFixedBorrowRate,\r\n            uint256 utilizationRate,\r\n            uint256 liquidityIndex,\r\n            uint256 variableBorrowIndex,\r\n            address aTokenAddress,\r\n            uint40 lastUpdateTimestamp\r\n            )\r\n    {\r\n        totalLiquidity = core.getReserveTotalLiquidity(_reserve);\r\n        availableLiquidity = core.getReserveAvailableLiquidity(_reserve);\r\n        totalBorrowsFixed = core.getReserveTotalBorrowsFixed(_reserve);\r\n        totalBorrowsVariable = core.getReserveTotalBorrowsVariable(_reserve);\r\n        liquidityRate = core.getReserveCurrentLiquidityRate(_reserve);\r\n        variableBorrowRate = core.getReserveCurrentVariableBorrowRate(_reserve);\r\n        fixedBorrowRate = core.getReserveCurrentFixedBorrowRate(_reserve);\r\n        averageFixedBorrowRate = core.getReserveCurrentAverageFixedBorrowRate(_reserve);\r\n        utilizationRate = core.getReserveUtilizationRate(_reserve);\r\n        liquidityIndex = core.getReserveLiquidityCumulativeIndex(_reserve);\r\n        variableBorrowIndex = core.getReserveVariableBorrowsCumulativeIndex(_reserve);\r\n        aTokenAddress = core.getReserveATokenAddress(_reserve);\r\n        lastUpdateTimestamp = core.getReserveLastUpdate(_reserve);\r\n    }\r\n\r\n    function getUserAccountData(address _user)\r\n        external\r\n        view\r\n        returns (\r\n            uint256 totalLiquidityETH,\r\n            uint256 totalCollateralETH,\r\n            uint256 totalBorrowsETH,\r\n            uint256 availableBorrowsETH,\r\n            uint256 currentLiquidationThreshold,\r\n            uint256 ltv,\r\n            uint256 healthFactor\r\n        )\r\n    {\r\n        (totalLiquidityETH,\r\n        totalCollateralETH,\r\n        totalBorrowsETH,\r\n        ltv,\r\n        currentLiquidationThreshold,\r\n        healthFactor) = calculateUserGlobalData(_user);\r\n\r\n        availableBorrowsETH = calculateAvailableBorrowsETHInternal(totalCollateralETH, totalBorrowsETH, ltv);\r\n    }\r\n\r\n    function getUserReserveData(address _reserve, address _user)\r\n        external\r\n        view\r\n        returns (\r\n            uint256 currentATokenBalance,\r\n            uint256 currentUnderlyingBalance,\r\n            uint256 currentBorrowBalance,\r\n            uint256 principalBorrowBalance,\r\n            uint256 borrowRateMode,\r\n            uint256 borrowRate,\r\n            uint256 liquidityRate,\r\n            uint256 originationFee,\r\n            uint256 variableBorrowIndex,\r\n            uint256 lastUpdateTimestamp,\r\n            bool usageAsCollateralEnabled\r\n        )\r\n    {\r\n        currentATokenBalance = AToken(core.getReserveATokenAddress(_reserve)).balanceOf(_user);\r\n        currentUnderlyingBalance = AToken(core.getReserveATokenAddress(_reserve)).balanceOfUnderlying(_user);\r\n        CoreLibrary.InterestRateMode mode = core.getUserCurrentBorrowRateMode(_reserve, _user);\r\n        (principalBorrowBalance,\r\n        currentBorrowBalance,) = core.getUserBorrowBalances(_reserve, _user);\r\n        borrowRateMode = uint256(mode);\r\n        borrowRate = mode == CoreLibrary.InterestRateMode.FIXED\r\n            ? core.getUserCurrentFixedBorrowRate(_reserve, _user)\r\n            : core.getReserveCurrentVariableBorrowRate(_reserve);\r\n        liquidityRate = core.getReserveCurrentLiquidityRate(_reserve);\r\n        originationFee = core.getUserOriginationFee(_reserve, _user);\r\n        variableBorrowIndex = core.getUserVariableBorrowCumulativeIndex(_reserve, _user);\r\n        lastUpdateTimestamp = core.getUserLastUpdate(_reserve, _user);\r\n        usageAsCollateralEnabled = core.isUserUseReserveAsCollateralEnabled(_reserve, _user);\r\n    }\r\n\r\n    /**\r\n    @dev provides the actual balance of a reserve, by checking the core balance of the underlying ERC20/Ether\r\n     */\r\n\r\n    function getCoreActualReserveBalance(address _reserve) external view returns(uint256){\r\n\r\n        address ethereumAddress = NetworkMetadataProvider(addressesProvider.getNetworkMetadataProvider()).getEthereumAddress();\r\n        address coreAddress = address(core);\r\n\r\n        uint balance = _reserve == ethereumAddress ? coreAddress.balance : IERC20(_reserve).balanceOf(coreAddress);\r\n\r\n        return balance;\r\n    }\r\n}\r\n",
  "sourcePath": "C:\\Users\\Jared\\AaveGitBounty\\AaveProtocol\\aave-protocol\\contracts\\lendingpool\\LendingPoolDataProvider.sol",
  "compiler": {
    "name": "solc",
    "version": "0.5.8+commit.23d335f2.Emscripten.clang"
  },
  "schemaVersion": "3.0.17",
  "updatedAt": "2019-11-11T01:54:50.485Z",
  "devdoc": {
    "author": "Aave\r",
    "methods": {
      "getCoreActualReserveBalance(address)": {
        "details": "provides the actual balance of a reserve, by checking the core balance of the underlying ERC20/Ether\r"
      },
      "isOwner()": {
        "details": "Returns true if the caller is the current owner."
      },
      "owner()": {
        "details": "Returns the address of the current owner."
      },
      "renounceOwnership()": {
        "details": "Leaves the contract without owner. It will not be possible to call `onlyOwner` functions anymore. Can only be called by the current owner.     * NOTE: Renouncing ownership will leave the contract without an owner, thereby removing any functionality that is only available to the owner."
      },
      "transferOwnership(address)": {
        "details": "Transfers ownership of the contract to a new account (`newOwner`). Can only be called by the current owner."
      }
    },
    "title": "LendingPoolDataProvider contract\r"
  },
  "userdoc": {
    "methods": {
      "calculateUserGlobalData(address)": {
        "notice": "calculates the user data across the reserves.\r this includes the total liquidity/collateral/borrow balances in ETH,\r the average Loan To Value, the average Liquidation Ratio, and the Health factor.\r"
      },
      "getUserUnderlyingAssetBalance(address,address)": {
        "notice": "gets the underlying asset balance of a user based on the corresponding aToken balance.\r"
      }
    },
    "notice": "***********************************************************************************\rImplements functions to fetch data from the core, and aggregate them in order to allow computation\r on the compounded balances and the account balances in ETH\r************************************************************************************"
  }
}