{
  "contractName": "NetworkMetadataProvider",
  "abi": [
    {
      "constant": true,
      "inputs": [
        {
          "name": "_key",
          "type": "bytes32"
        }
      ],
      "name": "getAddress",
      "outputs": [
        {
          "name": "",
          "type": "address"
        }
      ],
      "payable": false,
      "stateMutability": "view",
      "type": "function"
    },
    {
      "constant": true,
      "inputs": [
        {
          "name": "_key",
          "type": "bytes32"
        }
      ],
      "name": "getUint",
      "outputs": [
        {
          "name": "",
          "type": "uint256"
        }
      ],
      "payable": false,
      "stateMutability": "view",
      "type": "function"
    },
    {
      "constant": true,
      "inputs": [],
      "name": "getBlocksPerYear",
      "outputs": [
        {
          "name": "",
          "type": "uint256"
        }
      ],
      "payable": false,
      "stateMutability": "view",
      "type": "function"
    },
    {
      "constant": false,
      "inputs": [
        {
          "name": "_blocksPerYear",
          "type": "uint256"
        }
      ],
      "name": "setBlocksPerYear",
      "outputs": [],
      "payable": false,
      "stateMutability": "nonpayable",
      "type": "function"
    },
    {
      "constant": true,
      "inputs": [],
      "name": "getEthereumAddress",
      "outputs": [
        {
          "name": "",
          "type": "address"
        }
      ],
      "payable": false,
      "stateMutability": "view",
      "type": "function"
    },
    {
      "constant": false,
      "inputs": [
        {
          "name": "_ethereumAddress",
          "type": "address"
        }
      ],
      "name": "setEthereumAddress",
      "outputs": [],
      "payable": false,
      "stateMutability": "nonpayable",
      "type": "function"
    }
  ],
  "bytecode": "0x608060405234801561001057600080fd5b506103a1806100206000396000f3fe608060405234801561001057600080fd5b50600436106100625760003560e01c806317bfdd571461006757806321f8a721146100b15780635c85fe811461011f578063741de14814610163578063bd02d0f514610181578063e5fa2b70146101c3575b600080fd5b61006f6101f1565b604051808273ffffffffffffffffffffffffffffffffffffffff1673ffffffffffffffffffffffffffffffffffffffff16815260200191505060405180910390f35b6100dd600480360360208110156100c757600080fd5b8101908080359060200190929190505050610221565b604051808273ffffffffffffffffffffffffffffffffffffffff1673ffffffffffffffffffffffffffffffffffffffff16815260200191505060405180910390f35b6101616004803603602081101561013557600080fd5b81019080803573ffffffffffffffffffffffffffffffffffffffff16906020019092919050505061025e565b005b61016b61028b565b6040518082815260200191505060405180910390f35b6101ad6004803603602081101561019757600080fd5b81019080803590602001909291905050506102bb565b6040518082815260200191505060405180910390f35b6101ef600480360360208110156101d957600080fd5b81019080803590602001909291905050506102d7565b005b600061021c7f455448455245554d5f4144445245535300000000000000000000000000000000610221565b905090565b60006001600083815260200190815260200160002060009054906101000a900473ffffffffffffffffffffffffffffffffffffffff169050919050565b6102887f455448455245554d5f414444524553530000000000000000000000000000000082610304565b50565b60006102b67f424c4f434b535f5045525f5945415200000000000000000000000000000000006102bb565b905090565b6000806000838152602001908152602001600020549050919050565b6103017f424c4f434b535f5045525f5945415200000000000000000000000000000000008261035a565b50565b806001600084815260200190815260200160002060006101000a81548173ffffffffffffffffffffffffffffffffffffffff021916908373ffffffffffffffffffffffffffffffffffffffff1602179055505050565b8060008084815260200190815260200160002081905550505056fea165627a7a7230582008f5f765d30398920b3eb3926ffe1af416ffc5797e6cfb264a3c76fd8db290de0029",
  "source": "pragma solidity ^0.5.0;\r\n\r\nimport \"../interfaces/INetworkMetadataProvider.sol\";\r\nimport \"./UintStorage.sol\";\r\nimport \"./AddressStorage.sol\";\r\n\r\ncontract NetworkMetadataProvider is INetworkMetadataProvider, UintStorage, AddressStorage {\r\n    bytes32 private constant BLOCKS_PER_YEAR = \"BLOCKS_PER_YEAR\";\r\n    bytes32 private constant ETHEREUM_ADDRESS = \"ETHEREUM_ADDRESS\";\r\n\r\n    function getBlocksPerYear() external view returns (uint256) {\r\n        return getUint(BLOCKS_PER_YEAR);\r\n    }\r\n\r\n    // TODO: add access control rules under DAO\r\n    function setBlocksPerYear(uint256 _blocksPerYear) external {\r\n        return _setUint(BLOCKS_PER_YEAR, _blocksPerYear);\r\n    }\r\n\r\n    function getEthereumAddress() external view returns (address) {\r\n        return getAddress(ETHEREUM_ADDRESS);\r\n    }\r\n\r\n    // TODO: add access control rules under DAO\r\n    function setEthereumAddress(address _ethereumAddress) external {\r\n        return _setAddress(ETHEREUM_ADDRESS, _ethereumAddress);\r\n    }\r\n\r\n}\r\n",
  "sourcePath": "C:\\Users\\Jared\\AaveGitBounty\\AaveProtocol\\aave-protocol\\contracts\\configuration\\NetworkMetadataProvider.sol",
  "compiler": {
    "name": "solc",
    "version": "0.5.8+commit.23d335f2.Emscripten.clang"
  },
  "schemaVersion": "3.0.17",
  "updatedAt": "2019-11-11T01:54:50.342Z",
  "devdoc": {
    "methods": {}
  },
  "userdoc": {
    "methods": {}
  }
}