{
  "contractName": "RateSwitcher",
  "abi": [
    {
      "constant": true,
      "inputs": [],
      "name": "lpAddressesProvider",
      "outputs": [
        {
          "name": "",
          "type": "address"
        }
      ],
      "payable": false,
      "stateMutability": "view",
      "type": "function"
    },
    {
      "constant": false,
      "inputs": [],
      "name": "renounceOwnership",
      "outputs": [],
      "payable": false,
      "stateMutability": "nonpayable",
      "type": "function"
    },
    {
      "constant": true,
      "inputs": [],
      "name": "owner",
      "outputs": [
        {
          "name": "",
          "type": "address"
        }
      ],
      "payable": false,
      "stateMutability": "view",
      "type": "function"
    },
    {
      "constant": true,
      "inputs": [],
      "name": "isOwner",
      "outputs": [
        {
          "name": "",
          "type": "bool"
        }
      ],
      "payable": false,
      "stateMutability": "view",
      "type": "function"
    },
    {
      "constant": false,
      "inputs": [
        {
          "name": "newOwner",
          "type": "address"
        }
      ],
      "name": "transferOwnership",
      "outputs": [],
      "payable": false,
      "stateMutability": "nonpayable",
      "type": "function"
    },
    {
      "inputs": [],
      "payable": false,
      "stateMutability": "nonpayable",
      "type": "constructor"
    },
    {
      "anonymous": false,
      "inputs": [
        {
          "indexed": true,
          "name": "_user",
          "type": "address"
        },
        {
          "indexed": true,
          "name": "_reserve",
          "type": "address"
        },
        {
          "indexed": false,
          "name": "_rate",
          "type": "uint256"
        }
      ],
      "name": "SwapLog",
      "type": "event"
    },
    {
      "anonymous": false,
      "inputs": [
        {
          "indexed": true,
          "name": "previousOwner",
          "type": "address"
        },
        {
          "indexed": true,
          "name": "newOwner",
          "type": "address"
        }
      ],
      "name": "OwnershipTransferred",
      "type": "event"
    },
    {
      "constant": true,
      "inputs": [
        {
          "name": "_reserve",
          "type": "address"
        },
        {
          "name": "_user",
          "type": "address"
        }
      ],
      "name": "typeOfInterestRate",
      "outputs": [
        {
          "name": "",
          "type": "uint256"
        },
        {
          "name": "",
          "type": "uint256"
        }
      ],
      "payable": false,
      "stateMutability": "view",
      "type": "function"
    },
    {
      "constant": false,
      "inputs": [
        {
          "name": "_userAddress",
          "type": "address"
        }
      ],
      "name": "rateSwapAll",
      "outputs": [],
      "payable": false,
      "stateMutability": "nonpayable",
      "type": "function"
    },
    {
      "constant": false,
      "inputs": [
        {
          "name": "_reserve",
          "type": "address"
        },
        {
          "name": "_userAddress",
          "type": "address"
        }
      ],
      "name": "rateSwapIndividual",
      "outputs": [],
      "payable": false,
      "stateMutability": "nonpayable",
      "type": "function"
    }
  ],
  "bytecode": "0x608060405234801561001057600080fd5b5061001f61033b60201b60201c565b6000806101000a81548173ffffffffffffffffffffffffffffffffffffffff021916908373ffffffffffffffffffffffffffffffffffffffff1602179055506000809054906101000a900473ffffffffffffffffffffffffffffffffffffffff1673ffffffffffffffffffffffffffffffffffffffff16600073ffffffffffffffffffffffffffffffffffffffff167f8be0079c531659141344cd1fd0a4f28419497f9722a3daafe3b4186f6b6457e060405160405180910390a3739c6c63aa0cd4557d7ae6d9306c06c093a2e35408600260006101000a81548173ffffffffffffffffffffffffffffffffffffffff021916908373ffffffffffffffffffffffffffffffffffffffff160217905550600260009054906101000a900473ffffffffffffffffffffffffffffffffffffffff1673ffffffffffffffffffffffffffffffffffffffff16630261bf8b6040518163ffffffff1660e01b815260040160206040518083038186803b15801561019757600080fd5b505afa1580156101ab573d6000803e3d6000fd5b505050506040513d60208110156101c157600080fd5b8101908080519060200190929190505050600460006101000a81548173ffffffffffffffffffffffffffffffffffffffff021916908373ffffffffffffffffffffffffffffffffffffffff160217905550600260009054906101000a900473ffffffffffffffffffffffffffffffffffffffff1673ffffffffffffffffffffffffffffffffffffffff1663ed6ff7606040518163ffffffff1660e01b815260040160206040518083038186803b15801561027a57600080fd5b505afa15801561028e573d6000803e3d6000fd5b505050506040513d60208110156102a457600080fd5b8101908080519060200190929190505050600360006101000a81548173ffffffffffffffffffffffffffffffffffffffff021916908373ffffffffffffffffffffffffffffffffffffffff16021790555033600160006101000a81548173ffffffffffffffffffffffffffffffffffffffff021916908373ffffffffffffffffffffffffffffffffffffffff160217905550610343565b600033905090565b6116c780620003536000396000f3fe608060405234801561001057600080fd5b50600436106100885760003560e01c80638da5cb5b1161005b5780638da5cb5b146101c45780638f32d59b1461020e578063c409435614610230578063f2fde38b1461027457610088565b8063090c04131461008d5780630cd56f77146100d7578063715018a61461013b57806378d8a38414610145575b600080fd5b6100956102b8565b604051808273ffffffffffffffffffffffffffffffffffffffff1673ffffffffffffffffffffffffffffffffffffffff16815260200191505060405180910390f35b610139600480360360408110156100ed57600080fd5b81019080803573ffffffffffffffffffffffffffffffffffffffff169060200190929190803573ffffffffffffffffffffffffffffffffffffffff1690602001909291905050506102de565b005b610143610996565b005b6101a76004803603604081101561015b57600080fd5b81019080803573ffffffffffffffffffffffffffffffffffffffff169060200190929190803573ffffffffffffffffffffffffffffffffffffffff169060200190929190505050610acf565b604051808381526020018281526020019250505060405180910390f35b6101cc610c65565b604051808273ffffffffffffffffffffffffffffffffffffffff1673ffffffffffffffffffffffffffffffffffffffff16815260200191505060405180910390f35b610216610c8e565b604051808215151515815260200191505060405180910390f35b6102726004803603602081101561024657600080fd5b81019080803573ffffffffffffffffffffffffffffffffffffffff169060200190929190505050610cec565b005b6102b66004803603602081101561028a57600080fd5b81019080803573ffffffffffffffffffffffffffffffffffffffff16906020019092919050505061147b565b005b600260009054906101000a900473ffffffffffffffffffffffffffffffffffffffff1681565b600160009054906101000a900473ffffffffffffffffffffffffffffffffffffffff1673ffffffffffffffffffffffffffffffffffffffff163373ffffffffffffffffffffffffffffffffffffffff1614610384576040517f08c379a00000000000000000000000000000000000000000000000000000000081526004018080602001828103825260288152602001806116746028913960400191505060405180910390fd5b6000600360009054906101000a900473ffffffffffffffffffffffffffffffffffffffff1673ffffffffffffffffffffffffffffffffffffffff1663906c0a41846040518263ffffffff1660e01b8152600401808273ffffffffffffffffffffffffffffffffffffffff1673ffffffffffffffffffffffffffffffffffffffff16815260200191505060206040518083038186803b15801561042557600080fd5b505afa158015610439573d6000803e3d6000fd5b505050506040513d602081101561044f57600080fd5b810190808051906020019092919050505090506000600360009054906101000a900473ffffffffffffffffffffffffffffffffffffffff1673ffffffffffffffffffffffffffffffffffffffff166344e636b785600160009054906101000a900473ffffffffffffffffffffffffffffffffffffffff166040518363ffffffff1660e01b8152600401808373ffffffffffffffffffffffffffffffffffffffff1673ffffffffffffffffffffffffffffffffffffffff1681526020018273ffffffffffffffffffffffffffffffffffffffff1673ffffffffffffffffffffffffffffffffffffffff1681526020019250505060206040518083038186803b15801561055957600080fd5b505afa15801561056d573d6000803e3d6000fd5b505050506040513d602081101561058357600080fd5b810190808051906020019092919050505090506000806000600460009054906101000a900473ffffffffffffffffffffffffffffffffffffffff1673ffffffffffffffffffffffffffffffffffffffff166328dd2d0188886040518363ffffffff1660e01b8152600401808373ffffffffffffffffffffffffffffffffffffffff1673ffffffffffffffffffffffffffffffffffffffff1681526020018273ffffffffffffffffffffffffffffffffffffffff1673ffffffffffffffffffffffffffffffffffffffff168152602001925050506101606040518083038186803b15801561066f57600080fd5b505afa158015610683573d6000803e3d6000fd5b505050506040513d61016081101561069a57600080fd5b8101908080519060200190929190805190602001909291908051906020019092919080519060200190929190805190602001909291908051906020019092919080519060200190929190805190602001909291908051906020019092919080519060200190929190805190602001909291905050505050505050955095509550505050600083111561098d5760008214801561073557508481115b1561085957600460009054906101000a900473ffffffffffffffffffffffffffffffffffffffff1673ffffffffffffffffffffffffffffffffffffffff166348ca1300886040518263ffffffff1660e01b8152600401808273ffffffffffffffffffffffffffffffffffffffff1673ffffffffffffffffffffffffffffffffffffffff168152602001915050600060405180830381600087803b1580156107db57600080fd5b505af11580156107ef573d6000803e3d6000fd5b505050508673ffffffffffffffffffffffffffffffffffffffff168673ffffffffffffffffffffffffffffffffffffffff167f4f0da1e7b2686a98ec69e58da2a71cef6e30a1be34d7fe37cdda105fe316c258876040518082815260200191505060405180910390a35b60018214801561086857508381115b1561098c57600460009054906101000a900473ffffffffffffffffffffffffffffffffffffffff1673ffffffffffffffffffffffffffffffffffffffff166348ca1300886040518263ffffffff1660e01b8152600401808273ffffffffffffffffffffffffffffffffffffffff1673ffffffffffffffffffffffffffffffffffffffff168152602001915050600060405180830381600087803b15801561090e57600080fd5b505af1158015610922573d6000803e3d6000fd5b505050508673ffffffffffffffffffffffffffffffffffffffff168673ffffffffffffffffffffffffffffffffffffffff167f4f0da1e7b2686a98ec69e58da2a71cef6e30a1be34d7fe37cdda105fe316c258866040518082815260200191505060405180910390a35b5b50505050505050565b61099e610c8e565b610a10576040517f08c379a00000000000000000000000000000000000000000000000000000000081526004018080602001828103825260208152602001807f4f776e61626c653a2063616c6c6572206973206e6f7420746865206f776e657281525060200191505060405180910390fd5b600073ffffffffffffffffffffffffffffffffffffffff166000809054906101000a900473ffffffffffffffffffffffffffffffffffffffff1673ffffffffffffffffffffffffffffffffffffffff167f8be0079c531659141344cd1fd0a4f28419497f9722a3daafe3b4186f6b6457e060405160405180910390a360008060006101000a81548173ffffffffffffffffffffffffffffffffffffffff021916908373ffffffffffffffffffffffffffffffffffffffff160217905550565b600080600080600460009054906101000a900473ffffffffffffffffffffffffffffffffffffffff1673ffffffffffffffffffffffffffffffffffffffff166328dd2d0187876040518363ffffffff1660e01b8152600401808373ffffffffffffffffffffffffffffffffffffffff1673ffffffffffffffffffffffffffffffffffffffff1681526020018273ffffffffffffffffffffffffffffffffffffffff1673ffffffffffffffffffffffffffffffffffffffff168152602001925050506101606040518083038186803b158015610ba957600080fd5b505afa158015610bbd573d6000803e3d6000fd5b505050506040513d610160811015610bd457600080fd5b8101908080519060200190929190805190602001909291908051906020019092919080519060200190929190805190602001909291908051906020019092919080519060200190929190805190602001909291908051906020019092919080519060200190929190805190602001909291905050505050505050955095505050505081819350935050509250929050565b60008060009054906101000a900473ffffffffffffffffffffffffffffffffffffffff16905090565b60008060009054906101000a900473ffffffffffffffffffffffffffffffffffffffff1673ffffffffffffffffffffffffffffffffffffffff16610cd0611501565b73ffffffffffffffffffffffffffffffffffffffff1614905090565b6060600460009054906101000a900473ffffffffffffffffffffffffffffffffffffffff1673ffffffffffffffffffffffffffffffffffffffff16630902f1ac6040518163ffffffff1660e01b815260040160006040518083038186803b158015610d5657600080fd5b505afa158015610d6a573d6000803e3d6000fd5b505050506040513d6000823e3d601f19601f820116820180604052506020811015610d9457600080fd5b810190808051640100000000811115610dac57600080fd5b82810190506020810184811115610dc257600080fd5b8151856020820283011164010000000082111715610ddf57600080fd5b5050929190505050905060008090505b8151811015611476576000600360009054906101000a900473ffffffffffffffffffffffffffffffffffffffff1673ffffffffffffffffffffffffffffffffffffffff1663906c0a41848481518110610e4457fe5b60200260200101516040518263ffffffff1660e01b8152600401808273ffffffffffffffffffffffffffffffffffffffff1673ffffffffffffffffffffffffffffffffffffffff16815260200191505060206040518083038186803b158015610eac57600080fd5b505afa158015610ec0573d6000803e3d6000fd5b505050506040513d6020811015610ed657600080fd5b810190808051906020019092919050505090506000600360009054906101000a900473ffffffffffffffffffffffffffffffffffffffff1673ffffffffffffffffffffffffffffffffffffffff166344e636b7858581518110610f3557fe5b6020026020010151876040518363ffffffff1660e01b8152600401808373ffffffffffffffffffffffffffffffffffffffff1673ffffffffffffffffffffffffffffffffffffffff1681526020018273ffffffffffffffffffffffffffffffffffffffff1673ffffffffffffffffffffffffffffffffffffffff1681526020019250505060206040518083038186803b158015610fd157600080fd5b505afa158015610fe5573d6000803e3d6000fd5b505050506040513d6020811015610ffb57600080fd5b810190808051906020019092919050505090506000806000600460009054906101000a900473ffffffffffffffffffffffffffffffffffffffff1673ffffffffffffffffffffffffffffffffffffffff166328dd2d0188888151811061105d57fe5b60200260200101518a6040518363ffffffff1660e01b8152600401808373ffffffffffffffffffffffffffffffffffffffff1673ffffffffffffffffffffffffffffffffffffffff1681526020018273ffffffffffffffffffffffffffffffffffffffff1673ffffffffffffffffffffffffffffffffffffffff168152602001925050506101606040518083038186803b1580156110fa57600080fd5b505afa15801561110e573d6000803e3d6000fd5b505050506040513d61016081101561112557600080fd5b81019080805190602001909291908051906020019092919080519060200190929190805190602001909291908051906020019092919080519060200190929190805190602001909291908051906020019092919080519060200190929190805190602001909291908051906020019092919050505050505050509550955095505050506000831115611464576000821480156111c057508481115b1561130a57600460009054906101000a900473ffffffffffffffffffffffffffffffffffffffff1673ffffffffffffffffffffffffffffffffffffffff166348ca130088888151811061120f57fe5b60200260200101516040518263ffffffff1660e01b8152600401808273ffffffffffffffffffffffffffffffffffffffff1673ffffffffffffffffffffffffffffffffffffffff168152602001915050600060405180830381600087803b15801561127957600080fd5b505af115801561128d573d6000803e3d6000fd5b5050505086868151811061129d57fe5b602002602001015173ffffffffffffffffffffffffffffffffffffffff168873ffffffffffffffffffffffffffffffffffffffff167f4f0da1e7b2686a98ec69e58da2a71cef6e30a1be34d7fe37cdda105fe316c258876040518082815260200191505060405180910390a35b60018214801561131957508381115b1561146357600460009054906101000a900473ffffffffffffffffffffffffffffffffffffffff1673ffffffffffffffffffffffffffffffffffffffff166348ca130088888151811061136857fe5b60200260200101516040518263ffffffff1660e01b8152600401808273ffffffffffffffffffffffffffffffffffffffff1673ffffffffffffffffffffffffffffffffffffffff168152602001915050600060405180830381600087803b1580156113d257600080fd5b505af11580156113e6573d6000803e3d6000fd5b505050508686815181106113f657fe5b602002602001015173ffffffffffffffffffffffffffffffffffffffff168873ffffffffffffffffffffffffffffffffffffffff167f4f0da1e7b2686a98ec69e58da2a71cef6e30a1be34d7fe37cdda105fe316c258866040518082815260200191505060405180910390a35b5b50505050508080600101915050610def565b505050565b611483610c8e565b6114f5576040517f08c379a00000000000000000000000000000000000000000000000000000000081526004018080602001828103825260208152602001807f4f776e61626c653a2063616c6c6572206973206e6f7420746865206f776e657281525060200191505060405180910390fd5b6114fe81611509565b50565b600033905090565b600073ffffffffffffffffffffffffffffffffffffffff168173ffffffffffffffffffffffffffffffffffffffff16141561158f576040517f08c379a000000000000000000000000000000000000000000000000000000000815260040180806020018281038252602681526020018061164e6026913960400191505060405180910390fd5b8073ffffffffffffffffffffffffffffffffffffffff166000809054906101000a900473ffffffffffffffffffffffffffffffffffffffff1673ffffffffffffffffffffffffffffffffffffffff167f8be0079c531659141344cd1fd0a4f28419497f9722a3daafe3b4186f6b6457e060405160405180910390a3806000806101000a81548173ffffffffffffffffffffffffffffffffffffffff021916908373ffffffffffffffffffffffffffffffffffffffff1602179055505056fe4f776e61626c653a206e6577206f776e657220697320746865207a65726f20616464726573734f6e6c79206c6f63616c206f776e65722063616e2063616c6c20746869732066756e6374696f6e2ea165627a7a7230582045a730b1138c7631750cb4bb6ada6c7c9b30bb756a7e94541ecc93a675ca80eb0029",
  "source": "pragma solidity ^0.5.0;\r\n\r\nimport \"openzeppelin-solidity/contracts/utils/ReentrancyGuard.sol\";\r\nimport \"openzeppelin-solidity/contracts/ownership/Ownable.sol\";\r\nimport \"openzeppelin-solidity/contracts/math/SafeMath.sol\";\r\n\r\nimport \"../AaveProtocol/aave-protocol/contracts/configuration/LendingPoolAddressesProvider.sol\";\r\nimport \"../AaveProtocol/aave-protocol/contracts/lendingpool/LendingPool.sol\";\r\nimport \"../AaveProtocol/aave-protocol/contracts/lendingpool/LendingPoolCore.sol\";\r\nimport \"../AaveProtocol/aave-protocol/contracts/lendingpool/LendingPoolDataProvider.sol\";\r\nimport \"../AaveProtocol/aave-protocol/contracts/libraries/CoreLibrary.sol\";\r\nimport \"../AaveProtocol/aave-protocol/contracts/configuration/AddressStorage.sol\";\r\nimport \"../AaveProtocol/aave-protocol/contracts/interfaces/ILendingPoolAddressesProvider.sol\";\r\n\r\n\r\n// RateSwitcher contract will automate the interest rate mode depending on market\r\n// variables. Which are determined by the base interests rates, untilization,\r\n// and rate scaling ratios.\r\n//()\r\ncontract RateSwitcher is Ownable{\r\n\r\n    //@dev Events\r\n    event SwapLog(address indexed _user, address indexed _reserve, uint256 _rate);\r\n\r\n    //user address\r\n    address userAddress;\r\n\r\n    // Contract initialization\r\n    LendingPoolAddressesProvider public lpAddressesProvider;\r\n    LendingPoolCore lendingPoolCore;\r\n    LendingPool lendingPool;\r\n\r\n    //contructor for this Smart Contract\r\n    // @dev retrieves the contract of the LendingPoolAddressesProvider\r\n    constructor() public {\r\n         lpAddressesProvider = LendingPoolAddressesProvider(0x9C6C63aA0cD4557d7aE6D9306C06C093A2e35408);\r\n         lendingPool = LendingPool(lpAddressesProvider.getLendingPool());\r\n         lendingPoolCore = LendingPoolCore(lpAddressesProvider.getLendingPoolCore());\r\n         userAddress = msg.sender;\r\n    }\r\n\r\n    modifier onlyLocalOwner {\r\n        require(\r\n            msg.sender == userAddress,\r\n            \"Only local owner can call this function.\"\r\n        );\r\n        _;\r\n    }\r\n\r\n    function typeOfInterestRate(address _reserve, address _user)public view returns(uint256, uint256){\r\n        (,,,, uint256 _borrowRateMode,\r\n        uint256 _borrowRate,,,,,) = lendingPool.getUserReserveData(_reserve, _user);\r\n        return (_borrowRateMode, _borrowRate);\r\n    }\r\n\r\n    function rateSwapAll(address _userAddress) public{\r\n        //gets the list of reserves\r\n        address[] memory reservesListLocal = lendingPool.getReserves();\r\n        //@dev for loop that iterates through every resvere and updates the users borrowRateMode\r\n        // WARN the for loop is currently unbounded\r\n        for(uint i = 0; i < reservesListLocal.length; i++){\r\n            uint256 currentVariableBorrowRate = lendingPoolCore.getReserveCurrentVariableBorrowRate(reservesListLocal[i]);\r\n            //uint256 currentFixedBorrowRate = lendingPool.getReserveCurrentFixedBorrowRate(reservesListLocal[i]);\r\n            uint256 userCurrentFixedBorrowRate = lendingPoolCore.getUserCurrentFixedBorrowRate(reservesListLocal[i], _userAddress);\r\n            (,,,uint256 _principalBorrowBalance, uint256 _borrowRateMode,\r\n            uint256 _borrowRate,,,,,) = lendingPool.getUserReserveData(reservesListLocal[i], _userAddress);\r\n\r\n            //Conditional to verify that they have are active on this reserve\r\n            if(_principalBorrowBalance > 0){\r\n                //Fixed rate to Variable Rate swap\r\n                if((_borrowRateMode == 0) && (_borrowRate > currentVariableBorrowRate)) {\r\n                    lendingPool.swapBorrowRateMode(reservesListLocal[i]);\r\n                    emit SwapLog(_userAddress, reservesListLocal[i], currentVariableBorrowRate);\r\n                }\r\n                //Variable Rate to Fixed Rate swap\r\n                if((_borrowRateMode == 1) && (_borrowRate > userCurrentFixedBorrowRate)){\r\n                    lendingPool.swapBorrowRateMode(reservesListLocal[i]);\r\n                    emit SwapLog(_userAddress, reservesListLocal[i], userCurrentFixedBorrowRate);\r\n                }\r\n            }\r\n        }\r\n    } //end of rateSwap function\r\n\r\n\r\n    function rateSwapIndividual(address _reserve, address _userAddress) public onlyLocalOwner{\r\n        uint256 currentVariableBorrowRate = lendingPoolCore.getReserveCurrentVariableBorrowRate(_reserve);\r\n        uint256 userCurrentFixedBorrowRate = lendingPoolCore.getUserCurrentFixedBorrowRate(_reserve, userAddress);\r\n        (,,,uint256 _principalBorrowBalance, uint256 _borrowRateMode,\r\n        uint256 _borrowRate,,,,,) = lendingPool.getUserReserveData(_reserve, _userAddress);\r\n\r\n        //Conditional to verify that they have are active on this reserve\r\n        if(_principalBorrowBalance > 0){\r\n            //Fixed rate to Variable Rate swap\r\n            if((_borrowRateMode == 0) && (_borrowRate > currentVariableBorrowRate)) {\r\n                lendingPool.swapBorrowRateMode(_reserve);\r\n                emit SwapLog(_userAddress, _reserve, currentVariableBorrowRate);\r\n            }\r\n            //Variable Rate to Fixed Rate swap\r\n            if((_borrowRateMode == 1) && (_borrowRate > userCurrentFixedBorrowRate)){\r\n                lendingPool.swapBorrowRateMode(_reserve);\r\n                emit SwapLog(_userAddress, _reserve, userCurrentFixedBorrowRate);\r\n            }\r\n        }\r\n    }\r\n\r\n}\r\n",
  "sourcePath": "C:\\Users\\Jared\\AaveGitBounty\\contracts\\RateSwitcher.sol",
  "compiler": {
    "name": "solc",
    "version": "0.5.8+commit.23d335f2.Emscripten.clang"
  },
  "schemaVersion": "3.0.17",
  "updatedAt": "2019-11-11T01:58:07.809Z",
  "devdoc": {
    "methods": {
      "isOwner()": {
        "details": "Returns true if the caller is the current owner."
      },
      "owner()": {
        "details": "Returns the address of the current owner."
      },
      "renounceOwnership()": {
        "details": "Leaves the contract without owner. It will not be possible to call `onlyOwner` functions anymore. Can only be called by the current owner.     * NOTE: Renouncing ownership will leave the contract without an owner, thereby removing any functionality that is only available to the owner."
      },
      "transferOwnership(address)": {
        "details": "Transfers ownership of the contract to a new account (`newOwner`). Can only be called by the current owner."
      }
    }
  },
  "userdoc": {
    "methods": {}
  }
}