{
  "contractName": "RateAdvisorPlatform",
  "abi": [
    {
      "constant": true,
      "inputs": [],
      "name": "lpAddressesProvider",
      "outputs": [
        {
          "name": "",
          "type": "address"
        }
      ],
      "payable": false,
      "stateMutability": "view",
      "type": "function"
    },
    {
      "constant": false,
      "inputs": [],
      "name": "renounceOwnership",
      "outputs": [],
      "payable": false,
      "stateMutability": "nonpayable",
      "type": "function"
    },
    {
      "constant": true,
      "inputs": [],
      "name": "owner",
      "outputs": [
        {
          "name": "",
          "type": "address"
        }
      ],
      "payable": false,
      "stateMutability": "view",
      "type": "function"
    },
    {
      "constant": true,
      "inputs": [],
      "name": "isOwner",
      "outputs": [
        {
          "name": "",
          "type": "bool"
        }
      ],
      "payable": false,
      "stateMutability": "view",
      "type": "function"
    },
    {
      "constant": false,
      "inputs": [
        {
          "name": "newOwner",
          "type": "address"
        }
      ],
      "name": "transferOwnership",
      "outputs": [],
      "payable": false,
      "stateMutability": "nonpayable",
      "type": "function"
    },
    {
      "inputs": [],
      "payable": false,
      "stateMutability": "nonpayable",
      "type": "constructor"
    },
    {
      "anonymous": false,
      "inputs": [
        {
          "indexed": true,
          "name": "previousOwner",
          "type": "address"
        },
        {
          "indexed": true,
          "name": "newOwner",
          "type": "address"
        }
      ],
      "name": "OwnershipTransferred",
      "type": "event"
    },
    {
      "constant": false,
      "inputs": [
        {
          "name": "_reserve",
          "type": "address"
        },
        {
          "name": "_user",
          "type": "address"
        },
        {
          "name": "_amount",
          "type": "uint256"
        }
      ],
      "name": "setMonthlyPaymentAmount",
      "outputs": [],
      "payable": false,
      "stateMutability": "nonpayable",
      "type": "function"
    },
    {
      "constant": true,
      "inputs": [
        {
          "name": "_reserve",
          "type": "address"
        },
        {
          "name": "_user",
          "type": "address"
        }
      ],
      "name": "getMonthlyPaymentAmount",
      "outputs": [
        {
          "name": "",
          "type": "uint256"
        }
      ],
      "payable": false,
      "stateMutability": "view",
      "type": "function"
    },
    {
      "constant": false,
      "inputs": [
        {
          "name": "_reserve",
          "type": "address"
        },
        {
          "name": "_user",
          "type": "address"
        }
      ],
      "name": "setExpectedLoanDuration",
      "outputs": [],
      "payable": false,
      "stateMutability": "nonpayable",
      "type": "function"
    },
    {
      "constant": true,
      "inputs": [
        {
          "name": "_reserve",
          "type": "address"
        },
        {
          "name": "_user",
          "type": "address"
        }
      ],
      "name": "getExpectedLoanDuration",
      "outputs": [
        {
          "name": "",
          "type": "int256"
        }
      ],
      "payable": false,
      "stateMutability": "view",
      "type": "function"
    },
    {
      "constant": false,
      "inputs": [
        {
          "name": "_reserve",
          "type": "address"
        },
        {
          "name": "_user",
          "type": "address"
        }
      ],
      "name": "setEarningsCashFlow",
      "outputs": [],
      "payable": false,
      "stateMutability": "nonpayable",
      "type": "function"
    },
    {
      "constant": true,
      "inputs": [
        {
          "name": "_reserve",
          "type": "address"
        },
        {
          "name": "_user",
          "type": "address"
        }
      ],
      "name": "getEarningsCashFlow",
      "outputs": [
        {
          "name": "",
          "type": "uint256"
        }
      ],
      "payable": false,
      "stateMutability": "view",
      "type": "function"
    },
    {
      "constant": false,
      "inputs": [
        {
          "name": "_reserve",
          "type": "address"
        },
        {
          "name": "_user",
          "type": "address"
        }
      ],
      "name": "setSpendingCashFlow",
      "outputs": [],
      "payable": false,
      "stateMutability": "nonpayable",
      "type": "function"
    },
    {
      "constant": true,
      "inputs": [
        {
          "name": "_reserve",
          "type": "address"
        },
        {
          "name": "_user",
          "type": "address"
        }
      ],
      "name": "getSpendingCashFlow",
      "outputs": [
        {
          "name": "",
          "type": "uint256"
        }
      ],
      "payable": false,
      "stateMutability": "view",
      "type": "function"
    },
    {
      "constant": false,
      "inputs": [
        {
          "name": "_reserve",
          "type": "address"
        },
        {
          "name": "_user",
          "type": "address"
        }
      ],
      "name": "setNetCashFlow",
      "outputs": [],
      "payable": false,
      "stateMutability": "nonpayable",
      "type": "function"
    },
    {
      "constant": true,
      "inputs": [
        {
          "name": "_reserve",
          "type": "address"
        },
        {
          "name": "_user",
          "type": "address"
        }
      ],
      "name": "getNetCashFlow",
      "outputs": [
        {
          "name": "",
          "type": "int256"
        }
      ],
      "payable": false,
      "stateMutability": "view",
      "type": "function"
    }
  ],
  "bytecode": "0x60806040523480156200001157600080fd5b50620000226200034560201b60201c565b6000806101000a81548173ffffffffffffffffffffffffffffffffffffffff021916908373ffffffffffffffffffffffffffffffffffffffff1602179055506000809054906101000a900473ffffffffffffffffffffffffffffffffffffffff1673ffffffffffffffffffffffffffffffffffffffff16600073ffffffffffffffffffffffffffffffffffffffff167f8be0079c531659141344cd1fd0a4f28419497f9722a3daafe3b4186f6b6457e060405160405180910390a3739c6c63aa0cd4557d7ae6d9306c06c093a2e35408600260006101000a81548173ffffffffffffffffffffffffffffffffffffffff021916908373ffffffffffffffffffffffffffffffffffffffff160217905550600260009054906101000a900473ffffffffffffffffffffffffffffffffffffffff1673ffffffffffffffffffffffffffffffffffffffff16630261bf8b6040518163ffffffff1660e01b815260040160206040518083038186803b1580156200019b57600080fd5b505afa158015620001b0573d6000803e3d6000fd5b505050506040513d6020811015620001c757600080fd5b8101908080519060200190929190505050600460006101000a81548173ffffffffffffffffffffffffffffffffffffffff021916908373ffffffffffffffffffffffffffffffffffffffff160217905550600260009054906101000a900473ffffffffffffffffffffffffffffffffffffffff1673ffffffffffffffffffffffffffffffffffffffff1663ed6ff7606040518163ffffffff1660e01b815260040160206040518083038186803b1580156200028157600080fd5b505afa15801562000296573d6000803e3d6000fd5b505050506040513d6020811015620002ad57600080fd5b8101908080519060200190929190505050600360006101000a81548173ffffffffffffffffffffffffffffffffffffffff021916908373ffffffffffffffffffffffffffffffffffffffff16021790555033600160006101000a81548173ffffffffffffffffffffffffffffffffffffffff021916908373ffffffffffffffffffffffffffffffffffffffff1602179055506200034d565b600033905090565b611c19806200035d6000396000f3fe608060405234801561001057600080fd5b50600436106100f55760003560e01c80637a978c7f11610097578063c6e8a2e711610066578063c6e8a2e7146104bc578063de6f2bc514610520578063f2fde38b14610598578063fbbc36f6146105dc576100f5565b80637a978c7f1461037e5780638da5cb5b146103e25780638f32d59b1461042c57806395b640771461044e576100f5565b8063278e448e116100d3578063278e448e1461022057806340cd572714610284578063434b9c62146102fc578063715018a614610374576100f5565b8063090c0413146100fa5780630f1b32711461014457806320270921146101a8575b600080fd5b610102610654565b604051808273ffffffffffffffffffffffffffffffffffffffff1673ffffffffffffffffffffffffffffffffffffffff16815260200191505060405180910390f35b6101a66004803603604081101561015a57600080fd5b81019080803573ffffffffffffffffffffffffffffffffffffffff169060200190929190803573ffffffffffffffffffffffffffffffffffffffff16906020019092919050505061067a565b005b61020a600480360360408110156101be57600080fd5b81019080803573ffffffffffffffffffffffffffffffffffffffff169060200190929190803573ffffffffffffffffffffffffffffffffffffffff1690602001909291905050506108b3565b6040518082815260200191505060405180910390f35b6102826004803603604081101561023657600080fd5b81019080803573ffffffffffffffffffffffffffffffffffffffff169060200190929190803573ffffffffffffffffffffffffffffffffffffffff169060200190929190505050610942565b005b6102e66004803603604081101561029a57600080fd5b81019080803573ffffffffffffffffffffffffffffffffffffffff169060200190929190803573ffffffffffffffffffffffffffffffffffffffff169060200190929190505050610b9d565b6040518082815260200191505060405180910390f35b61035e6004803603604081101561031257600080fd5b81019080803573ffffffffffffffffffffffffffffffffffffffff169060200190929190803573ffffffffffffffffffffffffffffffffffffffff169060200190929190505050610c2c565b6040518082815260200191505060405180910390f35b61037c610cbb565b005b6103e06004803603604081101561039457600080fd5b81019080803573ffffffffffffffffffffffffffffffffffffffff169060200190929190803573ffffffffffffffffffffffffffffffffffffffff169060200190929190505050610df4565b005b6103ea6110dd565b604051808273ffffffffffffffffffffffffffffffffffffffff1673ffffffffffffffffffffffffffffffffffffffff16815260200191505060405180910390f35b610434611106565b604051808215151515815260200191505060405180910390f35b6104ba6004803603606081101561046457600080fd5b81019080803573ffffffffffffffffffffffffffffffffffffffff169060200190929190803573ffffffffffffffffffffffffffffffffffffffff16906020019092919080359060200190929190505050611164565b005b61051e600480360360408110156104d257600080fd5b81019080803573ffffffffffffffffffffffffffffffffffffffff169060200190929190803573ffffffffffffffffffffffffffffffffffffffff169060200190929190505050611299565b005b6105826004803603604081101561053657600080fd5b81019080803573ffffffffffffffffffffffffffffffffffffffff169060200190929190803573ffffffffffffffffffffffffffffffffffffffff169060200190929190505050611331565b6040518082815260200191505060405180910390f35b6105da600480360360208110156105ae57600080fd5b81019080803573ffffffffffffffffffffffffffffffffffffffff1690602001909291905050506113c0565b005b61063e600480360360408110156105f257600080fd5b81019080803573ffffffffffffffffffffffffffffffffffffffff169060200190929190803573ffffffffffffffffffffffffffffffffffffffff169060200190929190505050611446565b6040518082815260200191505060405180910390f35b600260009054906101000a900473ffffffffffffffffffffffffffffffffffffffff1681565b6000600660008373ffffffffffffffffffffffffffffffffffffffff1673ffffffffffffffffffffffffffffffffffffffff16815260200190815260200160002060008473ffffffffffffffffffffffffffffffffffffffff1673ffffffffffffffffffffffffffffffffffffffff1681526020019081526020016000209050600080600460009054906101000a900473ffffffffffffffffffffffffffffffffffffffff1673ffffffffffffffffffffffffffffffffffffffff166328dd2d0186866040518363ffffffff1660e01b8152600401808373ffffffffffffffffffffffffffffffffffffffff1673ffffffffffffffffffffffffffffffffffffffff1681526020018273ffffffffffffffffffffffffffffffffffffffff1673ffffffffffffffffffffffffffffffffffffffff168152602001925050506101606040518083038186803b1580156107d157600080fd5b505afa1580156107e5573d6000803e3d6000fd5b505050506040513d6101608110156107fc57600080fd5b810190808051906020019092919080519060200190929190805190602001909291908051906020019092919080519060200190929190805190602001909291908051906020019092919080519060200190929190805190602001909291908051906020019092919080519060200190929190505050505050509650505050509250506108a4600c61089683856114d590919063ffffffff16565b61155b90919063ffffffff16565b83600201819055505050505050565b600080600660008473ffffffffffffffffffffffffffffffffffffffff1673ffffffffffffffffffffffffffffffffffffffff16815260200190815260200160002060008573ffffffffffffffffffffffffffffffffffffffff1673ffffffffffffffffffffffffffffffffffffffff1681526020019081526020016000209050806004015491505092915050565b6000600660008373ffffffffffffffffffffffffffffffffffffffff1673ffffffffffffffffffffffffffffffffffffffff16815260200190815260200160002060008473ffffffffffffffffffffffffffffffffffffffff1673ffffffffffffffffffffffffffffffffffffffff1681526020019081526020016000209050600080600460009054906101000a900473ffffffffffffffffffffffffffffffffffffffff1673ffffffffffffffffffffffffffffffffffffffff166328dd2d0186600160009054906101000a900473ffffffffffffffffffffffffffffffffffffffff166040518363ffffffff1660e01b8152600401808373ffffffffffffffffffffffffffffffffffffffff1673ffffffffffffffffffffffffffffffffffffffff1681526020018273ffffffffffffffffffffffffffffffffffffffff1673ffffffffffffffffffffffffffffffffffffffff168152602001925050506101606040518083038186803b158015610abb57600080fd5b505afa158015610acf573d6000803e3d6000fd5b505050506040513d610160811015610ae657600080fd5b81019080805190602001909291908051906020019092919080519060200190929190805190602001909291908051906020019092919080519060200190929190805190602001909291908051906020019092919080519060200190929190805190602001909291908051906020019092919050505050505050509550509450505050610b8e600c610b8083856114d590919063ffffffff16565b61155b90919063ffffffff16565b83600301819055505050505050565b600080600660008473ffffffffffffffffffffffffffffffffffffffff1673ffffffffffffffffffffffffffffffffffffffff16815260200190815260200160002060008573ffffffffffffffffffffffffffffffffffffffff1673ffffffffffffffffffffffffffffffffffffffff1681526020019081526020016000209050806003015491505092915050565b600080600660008473ffffffffffffffffffffffffffffffffffffffff1673ffffffffffffffffffffffffffffffffffffffff16815260200190815260200160002060008573ffffffffffffffffffffffffffffffffffffffff1673ffffffffffffffffffffffffffffffffffffffff1681526020019081526020016000209050806000015491505092915050565b610cc3611106565b610d35576040517f08c379a00000000000000000000000000000000000000000000000000000000081526004018080602001828103825260208152602001807f4f776e61626c653a2063616c6c6572206973206e6f7420746865206f776e657281525060200191505060405180910390fd5b600073ffffffffffffffffffffffffffffffffffffffff166000809054906101000a900473ffffffffffffffffffffffffffffffffffffffff1673ffffffffffffffffffffffffffffffffffffffff167f8be0079c531659141344cd1fd0a4f28419497f9722a3daafe3b4186f6b6457e060405160405180910390a360008060006101000a81548173ffffffffffffffffffffffffffffffffffffffff021916908373ffffffffffffffffffffffffffffffffffffffff160217905550565b6000600660008373ffffffffffffffffffffffffffffffffffffffff1673ffffffffffffffffffffffffffffffffffffffff16815260200190815260200160002060008473ffffffffffffffffffffffffffffffffffffffff1673ffffffffffffffffffffffffffffffffffffffff1681526020019081526020016000209050600080600460009054906101000a900473ffffffffffffffffffffffffffffffffffffffff1673ffffffffffffffffffffffffffffffffffffffff166328dd2d0186600160009054906101000a900473ffffffffffffffffffffffffffffffffffffffff166040518363ffffffff1660e01b8152600401808373ffffffffffffffffffffffffffffffffffffffff1673ffffffffffffffffffffffffffffffffffffffff1681526020018273ffffffffffffffffffffffffffffffffffffffff1673ffffffffffffffffffffffffffffffffffffffff168152602001925050506101606040518083038186803b158015610f6d57600080fd5b505afa158015610f81573d6000803e3d6000fd5b505050506040513d610160811015610f9857600080fd5b8101908080519060200190929190805190602001909291908051906020019092919080519060200190929190805190602001909291908051906020019092919080519060200190929190805190602001909291908051906020019092919080519060200190929190805190602001909291905050505050505050955050945050505060006110268686610c2c565b90506000611050600c61104285876114d590919063ffffffff16565b61155b90919063ffffffff16565b9050600061106782846115a590919063ffffffff16565b90506000611092611082600c8761155b90919063ffffffff16565b60016115ef90919063ffffffff16565b9050600061109f83611677565b905060006110ae828703611677565b905060006110bb84611677565b90508082816110c657fe5b058a60010181905550505050505050505050505050565b60008060009054906101000a900473ffffffffffffffffffffffffffffffffffffffff16905090565b60008060009054906101000a900473ffffffffffffffffffffffffffffffffffffffff1673ffffffffffffffffffffffffffffffffffffffff166111486117d1565b73ffffffffffffffffffffffffffffffffffffffff1614905090565b600160009054906101000a900473ffffffffffffffffffffffffffffffffffffffff1673ffffffffffffffffffffffffffffffffffffffff163373ffffffffffffffffffffffffffffffffffffffff161461120a576040517f08c379a0000000000000000000000000000000000000000000000000000000008152600401808060200182810382526028815260200180611bc66028913960400191505060405180910390fd5b6000600660008473ffffffffffffffffffffffffffffffffffffffff1673ffffffffffffffffffffffffffffffffffffffff16815260200190815260200160002060008573ffffffffffffffffffffffffffffffffffffffff1673ffffffffffffffffffffffffffffffffffffffff168152602001908152602001600020905081816000018190555050505050565b6000600660008373ffffffffffffffffffffffffffffffffffffffff1673ffffffffffffffffffffffffffffffffffffffff16815260200190815260200160002060008473ffffffffffffffffffffffffffffffffffffffff1673ffffffffffffffffffffffffffffffffffffffff168152602001908152602001600020905080600301548160020154038160040181905550505050565b600080600660008473ffffffffffffffffffffffffffffffffffffffff1673ffffffffffffffffffffffffffffffffffffffff16815260200190815260200160002060008573ffffffffffffffffffffffffffffffffffffffff1673ffffffffffffffffffffffffffffffffffffffff1681526020019081526020016000209050806001015491505092915050565b6113c8611106565b61143a576040517f08c379a00000000000000000000000000000000000000000000000000000000081526004018080602001828103825260208152602001807f4f776e61626c653a2063616c6c6572206973206e6f7420746865206f776e657281525060200191505060405180910390fd5b611443816117d9565b50565b600080600660008473ffffffffffffffffffffffffffffffffffffffff1673ffffffffffffffffffffffffffffffffffffffff16815260200190815260200160002060008573ffffffffffffffffffffffffffffffffffffffff1673ffffffffffffffffffffffffffffffffffffffff1681526020019081526020016000209050806002015491505092915050565b6000808314156114e85760009050611555565b60008284029050828482816114f957fe5b0414611550576040517f08c379a0000000000000000000000000000000000000000000000000000000008152600401808060200182810382526021815260200180611ba56021913960400191505060405180910390fd5b809150505b92915050565b600061159d83836040518060400160405280601a81526020017f536166654d6174683a206469766973696f6e206279207a65726f00000000000081525061191d565b905092915050565b60006115e783836040518060400160405280601e81526020017f536166654d6174683a207375627472616374696f6e206f766572666c6f7700008152506119e3565b905092915050565b60008082840190508381101561166d576040517f08c379a000000000000000000000000000000000000000000000000000000000815260040180806020018281038252601b8152602001807f536166654d6174683a206164646974696f6e206f766572666c6f77000000000081525060200191505060405180910390fd5b8091505092915050565b600080821161168557600080fd5b600061169083611aa3565b905060808160ff1611156116af576080810360ff1683901c92506116c9565b60808160ff1610156116c8578060800360ff1683901b92505b5b6fffffffffffffffffffffffffffffffff80168316925060006080808360ff1603901b905060006f800000000000000000000000000000006fffffffffffffffffffffffffffffffff16905060008090505b60808160ff1610801561172e5750600086115b156117c55760806f800000000000000000000000000000006fffffffffffffffffffffffffffffffff1687880201901c600187901b0195506fffffffffffffffffffffffffffffffff80168611156117b15781831792506f800000000000000000000000000000006fffffffffffffffffffffffffffffffff16600187901c0395505b600182901d9150808060010191505061171b565b50819350505050919050565b600033905090565b600073ffffffffffffffffffffffffffffffffffffffff168173ffffffffffffffffffffffffffffffffffffffff16141561185f576040517f08c379a0000000000000000000000000000000000000000000000000000000008152600401808060200182810382526026815260200180611b7f6026913960400191505060405180910390fd5b8073ffffffffffffffffffffffffffffffffffffffff166000809054906101000a900473ffffffffffffffffffffffffffffffffffffffff1673ffffffffffffffffffffffffffffffffffffffff167f8be0079c531659141344cd1fd0a4f28419497f9722a3daafe3b4186f6b6457e060405160405180910390a3806000806101000a81548173ffffffffffffffffffffffffffffffffffffffff021916908373ffffffffffffffffffffffffffffffffffffffff16021790555050565b600080831182906119c9576040517f08c379a00000000000000000000000000000000000000000000000000000000081526004018080602001828103825283818151815260200191508051906020019080838360005b8381101561198e578082015181840152602081019050611973565b50505050905090810190601f1680156119bb5780820380516001836020036101000a031916815260200191505b509250505060405180910390fd5b5060008385816119d557fe5b049050809150509392505050565b6000838311158290611a90576040517f08c379a00000000000000000000000000000000000000000000000000000000081526004018080602001828103825283818151815260200191508051906020019080838360005b83811015611a55578082015181840152602081019050611a3a565b50505050905090810190601f168015611a825780820380516001836020036101000a031916815260200191505b509250505060405180910390fd5b5060008385039050809150509392505050565b6000808211611ab157600080fd5b7001000000000000000000000000000000008210611ad757608082901c91506080810190505b680100000000000000008210611af557604082901c91506040810190505b6401000000008210611b0f57602082901c91506020810190505b620100008210611b2757601082901c91506010810190505b6101008210611b3e57600882901c91506008810190505b60108210611b5457600482901c91506004810190505b60048210611b6a57600282901c91506002810190505b60028210611b79576001810190505b91905056fe4f776e61626c653a206e6577206f776e657220697320746865207a65726f2061646472657373536166654d6174683a206d756c7469706c69636174696f6e206f766572666c6f774f6e6c79206c6f63616c206f776e65722063616e2063616c6c20746869732066756e6374696f6e2ea165627a7a723058204b1885c4b2105e09c4b7f02c4f892d49a9de74faf4edd5e7a89464d5cdf755a00029",
  "source": "pragma solidity ^0.5.0;\r\n\r\nimport \"openzeppelin-solidity/contracts/utils/ReentrancyGuard.sol\";\r\nimport \"openzeppelin-solidity/contracts/ownership/Ownable.sol\";\r\nimport \"openzeppelin-solidity/contracts/math/SafeMath.sol\";\r\n\r\nimport \"../AaveProtocol/aave-protocol/contracts/configuration/LendingPoolAddressesProvider.sol\";\r\nimport \"../AaveProtocol/aave-protocol/contracts/lendingpool/LendingPool.sol\";\r\nimport \"../AaveProtocol/aave-protocol/contracts/lendingpool/LendingPoolCore.sol\";\r\nimport \"../AaveProtocol/aave-protocol/contracts/lendingpool/LendingPoolDataProvider.sol\";\r\nimport \"../AaveProtocol/aave-protocol/contracts/libraries/CoreLibrary.sol\";\r\nimport \"../AaveProtocol/aave-protocol/contracts/libraries/WadRayMath.sol\";\r\nimport \"../AaveProtocol/aave-protocol/contracts/configuration/AddressStorage.sol\";\r\nimport \"../AaveProtocol/aave-protocol/contracts/interfaces/ILendingPoolAddressesProvider.sol\";\r\n\r\nimport \"./RateSwitcher.sol\";\r\nimport { LogLibrary } from \"./LogLibrary.sol\";\r\n\r\ncontract RateAdvisorPlatform is Ownable{\r\n    using SafeMath for uint256;\r\n    using WadRayMath for uint256;\r\n    using Address for address payable;\r\n\r\n    // A platform can define a user's financial profile based on assets supplied, collateralization, expected loan duration,\r\n    // payback strategy... and provide advice about the best loan strategy and best rate mode fit\r\n    //user address\r\n    address userAddress;\r\n\r\n    // Contract initialization\r\n    LendingPoolAddressesProvider public lpAddressesProvider;\r\n    LendingPoolCore lendingPoolCore;\r\n    LendingPool lendingPool;\r\n    LogLibrary logLib;\r\n\r\n    //contructor for this Smart Contract\r\n    // @dev retrieves the contract of the LendingPoolAddressesProvider\r\n    constructor() public {\r\n         lpAddressesProvider = LendingPoolAddressesProvider(0x9C6C63aA0cD4557d7aE6D9306C06C093A2e35408);\r\n         lendingPool = LendingPool(lpAddressesProvider.getLendingPool());\r\n         lendingPoolCore = LendingPoolCore(lpAddressesProvider.getLendingPoolCore());\r\n         userAddress = msg.sender;\r\n    }\r\n\r\n    struct AdvisorUserReserveData {\r\n        uint256 monthlyPaymentAmount;\r\n        int256 expectedLoanDuration;\r\n        uint256 earningsCashFlow;\r\n        uint256 spendingCashFlow;\r\n        int256 netCashFlow;\r\n    }\r\n\r\n    modifier onlyLocalOwner {\r\n        require(\r\n            msg.sender == userAddress,\r\n            \"Only local owner can call this function.\"\r\n        );\r\n        _;\r\n    }\r\n\r\n    //get the values for the User\r\n    /*\r\n    (uint256 totalLiquidityETH, uint256 totalCollateralETH, uint256 totalBorrowsETH, uint256 availableBorrowsETH, uint256 currentLiquidationThreshold, uint256 ltv,\r\n    uint256 healthFactor) = lendingPool.getUserAccountData(userAddress);\r\n    uint256 availableBorrowsETH = lendingPool.getUserAccountData(userAddress);*/\r\n\r\n    /*\r\n    (uint256 _totalLiquidityETH, uint256 _totalCollateralETH, uint256 _totalBorrowsETH, uint256 _availableBorrowsETH, uint256 _currentLiquidationThreshold, uint256 _ltv, uint256 _healthFactor) = lendingPool.getUserAccountData(userAddress);\r\n*/\r\n    mapping(address => mapping(address => AdvisorUserReserveData)) advisorUserReserveData;\r\n\r\n    //sets the monthly payment amount (still needs to be fixed)\r\n    function setMonthlyPaymentAmount(address _reserve, address _user, uint256 _amount) external onlyLocalOwner {\r\n        AdvisorUserReserveData storage user = advisorUserReserveData[_user][_reserve];\r\n        user.monthlyPaymentAmount = _amount;\r\n    }\r\n\r\n    //gets the monthly payment amount\r\n    function getMonthlyPaymentAmount(address _reserve, address _user)public view returns(uint256){\r\n        AdvisorUserReserveData storage user = advisorUserReserveData[_user][_reserve];\r\n        return user.monthlyPaymentAmount;\r\n    }\r\n\r\n    //set the ExepectedLoanDuration\r\n    function setExpectedLoanDuration(address _reserve, address _user) public{\r\n        //Initialize the AdvisorUserReserveData Struct\r\n        AdvisorUserReserveData storage user = advisorUserReserveData[_user][_reserve];\r\n\r\n        //get User Reserve Data\r\n        (,,, uint256 principalBorrowBalance,, uint256 borrowRate,,,,,) = lendingPool.getUserReserveData(_reserve, userAddress);\r\n\r\n        // utilize 1 and 2) log(M - log(M-PR/12)) and 3) log(1+R/12) then the exepcted loan duration = (2)/(3)\r\n        uint256 paymentAmount = getMonthlyPaymentAmount(_reserve, _user);\r\n        uint256 interestPayment = (principalBorrowBalance.mul(borrowRate)).div(12);\r\n        uint256 input = paymentAmount.sub(interestPayment);\r\n        uint256 input2 = uint256(1).add((borrowRate.div(12)));\r\n        int256 part1 = LogLibrary.log_2(input);\r\n        int256 part2 = LogLibrary.log_2(paymentAmount - uint256(part1));\r\n        int256 part3 = LogLibrary.log_2(input2);\r\n        user.expectedLoanDuration = part2 / part3;\r\n    }\r\n\r\n    function getExpectedLoanDuration(address _reserve, address _user) public view returns (int256){\r\n        AdvisorUserReserveData storage user = advisorUserReserveData[_user][_reserve];\r\n        return user.expectedLoanDuration;\r\n    }\r\n\r\n    //liquidity rate * currentUnderlyingBalance\r\n    function setEarningsCashFlow(address _reserve, address _user) public {\r\n        AdvisorUserReserveData storage user = advisorUserReserveData[_user][_reserve];\r\n        (, uint256 currentUnderlyingBalance, , ,\r\n        , , uint256 liquidityRate, , , , ) = lendingPool.getUserReserveData(_reserve, _user);\r\n        user.earningsCashFlow = ((currentUnderlyingBalance.mul(liquidityRate)).div(12));\r\n    }\r\n\r\n    function getEarningsCashFlow(address _reserve, address _user) public view returns (uint256){\r\n        AdvisorUserReserveData storage user = advisorUserReserveData[_user][_reserve];\r\n        return user.earningsCashFlow;\r\n    }\r\n\r\n    function setSpendingCashFlow(address _reserve, address _user) public {\r\n        AdvisorUserReserveData storage user = advisorUserReserveData[_user][_reserve];\r\n        (, , , uint256 principalBorrowBalance,\r\n        , uint256 borrowRate, , , , , ) = lendingPool.getUserReserveData(_reserve, userAddress);\r\n        user.spendingCashFlow = ((principalBorrowBalance.mul(borrowRate)).div(12));\r\n    }\r\n\r\n    function getSpendingCashFlow(address _reserve, address _user) public view returns (uint256){\r\n        AdvisorUserReserveData storage user = advisorUserReserveData[_user][_reserve];\r\n        return user.spendingCashFlow;\r\n    }\r\n\r\n    function setNetCashFlow(address _reserve, address _user)public {\r\n        AdvisorUserReserveData storage user = advisorUserReserveData[_user][_reserve];\r\n        user.netCashFlow = int256(user.earningsCashFlow) - int256(user.spendingCashFlow);\r\n    }\r\n\r\n    //still needs testing\r\n    function getNetCashFlow(address _reserve, address _user)public view returns(int256){\r\n        AdvisorUserReserveData storage user = advisorUserReserveData[_user][_reserve];\r\n        return user.netCashFlow;\r\n    }\r\n/*\r\n    function payBackStrategy(address _reserve, address _user) return (){\r\n        AdvisorUserReserveData storage user = advisorUserReserveData[_user][_reserve];\r\n        //get User Reserve Data\r\n        (uint256 currentATokenBalance, uint256 currentUnderlyingBalance, uint256 currentBorrowBalance, uint256 principalBorrowBalance,\r\n        uint256 borrowRateMode, uint256 borrowRate, uint256 liquidityRate, uint256 originationFee, uint256 variableBorrowIndex, uint256 lastUpdateTimestamp,\r\n        bool usageAsCollateralEnabled) = lendingPool.getUserReserveData(_reserve, _user);\r\n\r\n        (uint256 _totalLiquidityETH, uint256 _totalCollateralETH, uint256 _totalBorrowsETH, uint256 _availableBorrowsETH, uint256 _currentLiquidationThreshold, uint256 _ltv, uint256 _healthFactor) = lendingPool.getUserAccountData(_user);\r\n        //if the health factor is low, the netCashFlow is negative, and you have some money then you have to make payments\r\n        if((healthFactor>=1) && (healthFactor<1.25)){\r\n            if()\r\n            //if the health factor is low, the netCashFlow is negative, and you dont have money then you have to liquidate\r\n        }\r\n        //Medium Health Factor\r\n        if((healthFactor>=1.25) && (healthFactor<1.75)){\r\n            if()\r\n        }\r\n        //if the health factor is in good standing, the netCashFlow is positive, then you can desosit more into the reserve\r\n        // (no payment necessary)\r\n        else{\r\n\r\n        }\r\n\r\n        //if\r\n    }\r\n\r\n    // should find the best rate strategy for all Reserves, even if the user doesnt\r\n    // have an investments in it. This should be based off the stable APR and variable APR\r\n    // as well as the offered Monthly payment, prinicpal balance, and expected loan duration\r\n    // Basically find the method that gives them the most profit for their profile type.\r\n    /*function setBestRateStrategy(address _reserve, address _user) public{\r\n        AdvisorUserReserveData storage user = advisorUserReserveData[_user][_reserve];\r\n        //get User Reserve Data\r\n        (uint256 currentATokenBalance, uint256 currentUnderlyingBalance, uint256 currentBorrowBalance, uint256 principalBorrowBalance,\r\n        uint256 borrowRateMode, uint256 borrowRate, uint256 liquidityRate, uint256 originationFee, uint256 variableBorrowIndex, uint256 lastUpdateTimestamp,\r\n        bool usageAsCollateralEnabled) = lendingPool.getUserReserveData(_reserve, _user);\r\n    }*/\r\n\r\n}\r\n",
  "sourcePath": "C:/Users/Jared/AaveGitBounty/contracts/RateAdvisorPlatform.sol",
  "compiler": {
    "name": "solc",
    "version": "0.5.8+commit.23d335f2.Emscripten.clang"
  },
  "schemaVersion": "3.0.17",
  "updatedAt": "2019-11-12T04:05:21.593Z",
  "devdoc": {
    "methods": {
      "isOwner()": {
        "details": "Returns true if the caller is the current owner."
      },
      "owner()": {
        "details": "Returns the address of the current owner."
      },
      "renounceOwnership()": {
        "details": "Leaves the contract without owner. It will not be possible to call `onlyOwner` functions anymore. Can only be called by the current owner.     * NOTE: Renouncing ownership will leave the contract without an owner, thereby removing any functionality that is only available to the owner."
      },
      "transferOwnership(address)": {
        "details": "Transfers ownership of the contract to a new account (`newOwner`). Can only be called by the current owner."
      }
    }
  },
  "userdoc": {
    "methods": {}
  }
}