{
  "contractName": "RateSwitcher",
  "abi": [
    {
      "constant": true,
      "inputs": [],
      "name": "lpAddressesProvider",
      "outputs": [
        {
          "name": "",
          "type": "address"
        }
      ],
      "payable": false,
      "stateMutability": "view",
      "type": "function"
    },
    {
      "constant": false,
      "inputs": [],
      "name": "renounceOwnership",
      "outputs": [],
      "payable": false,
      "stateMutability": "nonpayable",
      "type": "function"
    },
    {
      "constant": true,
      "inputs": [],
      "name": "owner",
      "outputs": [
        {
          "name": "",
          "type": "address"
        }
      ],
      "payable": false,
      "stateMutability": "view",
      "type": "function"
    },
    {
      "constant": true,
      "inputs": [],
      "name": "isOwner",
      "outputs": [
        {
          "name": "",
          "type": "bool"
        }
      ],
      "payable": false,
      "stateMutability": "view",
      "type": "function"
    },
    {
      "constant": false,
      "inputs": [
        {
          "name": "newOwner",
          "type": "address"
        }
      ],
      "name": "transferOwnership",
      "outputs": [],
      "payable": false,
      "stateMutability": "nonpayable",
      "type": "function"
    },
    {
      "inputs": [],
      "payable": false,
      "stateMutability": "nonpayable",
      "type": "constructor"
    },
    {
      "anonymous": false,
      "inputs": [
        {
          "indexed": true,
          "name": "_user",
          "type": "address"
        },
        {
          "indexed": true,
          "name": "_reserve",
          "type": "address"
        },
        {
          "indexed": false,
          "name": "_rate",
          "type": "uint256"
        }
      ],
      "name": "SwapLog",
      "type": "event"
    },
    {
      "anonymous": false,
      "inputs": [
        {
          "indexed": true,
          "name": "previousOwner",
          "type": "address"
        },
        {
          "indexed": true,
          "name": "newOwner",
          "type": "address"
        }
      ],
      "name": "OwnershipTransferred",
      "type": "event"
    },
    {
      "constant": true,
      "inputs": [
        {
          "name": "_reserve",
          "type": "address"
        }
      ],
      "name": "testLendingPoolAbstraction",
      "outputs": [
        {
          "name": "",
          "type": "uint256"
        }
      ],
      "payable": false,
      "stateMutability": "view",
      "type": "function"
    },
    {
      "constant": true,
      "inputs": [
        {
          "name": "_reserve",
          "type": "address"
        }
      ],
      "name": "testLendingPoolCoreAbstraction",
      "outputs": [
        {
          "name": "",
          "type": "uint256"
        }
      ],
      "payable": false,
      "stateMutability": "view",
      "type": "function"
    },
    {
      "constant": true,
      "inputs": [
        {
          "name": "_reserve",
          "type": "address"
        },
        {
          "name": "_user",
          "type": "address"
        }
      ],
      "name": "testGetUserReserveData",
      "outputs": [
        {
          "name": "",
          "type": "uint256"
        },
        {
          "name": "",
          "type": "uint256"
        }
      ],
      "payable": false,
      "stateMutability": "view",
      "type": "function"
    }
  ],
  "bytecode": "0x608060405234801561001057600080fd5b5061001f6102fa60201b60201c565b6000806101000a81548173ffffffffffffffffffffffffffffffffffffffff021916908373ffffffffffffffffffffffffffffffffffffffff1602179055506000809054906101000a900473ffffffffffffffffffffffffffffffffffffffff1673ffffffffffffffffffffffffffffffffffffffff16600073ffffffffffffffffffffffffffffffffffffffff167f8be0079c531659141344cd1fd0a4f28419497f9722a3daafe3b4186f6b6457e060405160405180910390a3739c6c63aa0cd4557d7ae6d9306c06c093a2e35408600260006101000a81548173ffffffffffffffffffffffffffffffffffffffff021916908373ffffffffffffffffffffffffffffffffffffffff160217905550600260009054906101000a900473ffffffffffffffffffffffffffffffffffffffff1673ffffffffffffffffffffffffffffffffffffffff16630261bf8b6040518163ffffffff1660e01b815260040160206040518083038186803b15801561019757600080fd5b505afa1580156101ab573d6000803e3d6000fd5b505050506040513d60208110156101c157600080fd5b8101908080519060200190929190505050600460006101000a81548173ffffffffffffffffffffffffffffffffffffffff021916908373ffffffffffffffffffffffffffffffffffffffff160217905550600260009054906101000a900473ffffffffffffffffffffffffffffffffffffffff1673ffffffffffffffffffffffffffffffffffffffff1663ed6ff7606040518163ffffffff1660e01b815260040160206040518083038186803b15801561027a57600080fd5b505afa15801561028e573d6000803e3d6000fd5b505050506040513d60208110156102a457600080fd5b8101908080519060200190929190505050600360006101000a81548173ffffffffffffffffffffffffffffffffffffffff021916908373ffffffffffffffffffffffffffffffffffffffff160217905550610302565b600033905090565b610a30806103116000396000f3fe608060405234801561001057600080fd5b50600436106100885760003560e01c80638f32d59b1161005b5780638f32d59b14610183578063a06dc3ed146101a5578063bdb9d63514610224578063f2fde38b1461027c57610088565b8063090c04131461008d578063292f6012146100d7578063715018a61461012f5780638da5cb5b14610139575b600080fd5b6100956102c0565b604051808273ffffffffffffffffffffffffffffffffffffffff1673ffffffffffffffffffffffffffffffffffffffff16815260200191505060405180910390f35b610119600480360360208110156100ed57600080fd5b81019080803573ffffffffffffffffffffffffffffffffffffffff1690602001909291905050506102e6565b6040518082815260200191505060405180910390f35b6101376103ce565b005b610141610507565b604051808273ffffffffffffffffffffffffffffffffffffffff1673ffffffffffffffffffffffffffffffffffffffff16815260200191505060405180910390f35b61018b610530565b604051808215151515815260200191505060405180910390f35b610207600480360360408110156101bb57600080fd5b81019080803573ffffffffffffffffffffffffffffffffffffffff169060200190929190803573ffffffffffffffffffffffffffffffffffffffff16906020019092919050505061058e565b604051808381526020018281526020019250505060405180910390f35b6102666004803603602081101561023a57600080fd5b81019080803573ffffffffffffffffffffffffffffffffffffffff169060200190929190505050610724565b6040518082815260200191505060405180910390f35b6102be6004803603602081101561029257600080fd5b81019080803573ffffffffffffffffffffffffffffffffffffffff16906020019092919050505061080c565b005b600260009054906101000a900473ffffffffffffffffffffffffffffffffffffffff1681565b600080600360009054906101000a900473ffffffffffffffffffffffffffffffffffffffff1673ffffffffffffffffffffffffffffffffffffffff16639e7d3b96846040518263ffffffff1660e01b8152600401808273ffffffffffffffffffffffffffffffffffffffff1673ffffffffffffffffffffffffffffffffffffffff16815260200191505060206040518083038186803b15801561038857600080fd5b505afa15801561039c573d6000803e3d6000fd5b505050506040513d60208110156103b257600080fd5b8101908080519060200190929190505050905080915050919050565b6103d6610530565b610448576040517f08c379a00000000000000000000000000000000000000000000000000000000081526004018080602001828103825260208152602001807f4f776e61626c653a2063616c6c6572206973206e6f7420746865206f776e657281525060200191505060405180910390fd5b600073ffffffffffffffffffffffffffffffffffffffff166000809054906101000a900473ffffffffffffffffffffffffffffffffffffffff1673ffffffffffffffffffffffffffffffffffffffff167f8be0079c531659141344cd1fd0a4f28419497f9722a3daafe3b4186f6b6457e060405160405180910390a360008060006101000a81548173ffffffffffffffffffffffffffffffffffffffff021916908373ffffffffffffffffffffffffffffffffffffffff160217905550565b60008060009054906101000a900473ffffffffffffffffffffffffffffffffffffffff16905090565b60008060009054906101000a900473ffffffffffffffffffffffffffffffffffffffff1673ffffffffffffffffffffffffffffffffffffffff16610572610892565b73ffffffffffffffffffffffffffffffffffffffff1614905090565b600080600080600460009054906101000a900473ffffffffffffffffffffffffffffffffffffffff1673ffffffffffffffffffffffffffffffffffffffff166328dd2d0187876040518363ffffffff1660e01b8152600401808373ffffffffffffffffffffffffffffffffffffffff1673ffffffffffffffffffffffffffffffffffffffff1681526020018273ffffffffffffffffffffffffffffffffffffffff1673ffffffffffffffffffffffffffffffffffffffff168152602001925050506101606040518083038186803b15801561066857600080fd5b505afa15801561067c573d6000803e3d6000fd5b505050506040513d61016081101561069357600080fd5b8101908080519060200190929190805190602001909291908051906020019092919080519060200190929190805190602001909291908051906020019092919080519060200190929190805190602001909291908051906020019092919080519060200190929190805190602001909291905050505050505050955095505050505081819350935050509250929050565b600080600360009054906101000a900473ffffffffffffffffffffffffffffffffffffffff1673ffffffffffffffffffffffffffffffffffffffff1663906c0a41846040518263ffffffff1660e01b8152600401808273ffffffffffffffffffffffffffffffffffffffff1673ffffffffffffffffffffffffffffffffffffffff16815260200191505060206040518083038186803b1580156107c657600080fd5b505afa1580156107da573d6000803e3d6000fd5b505050506040513d60208110156107f057600080fd5b8101908080519060200190929190505050905080915050919050565b610814610530565b610886576040517f08c379a00000000000000000000000000000000000000000000000000000000081526004018080602001828103825260208152602001807f4f776e61626c653a2063616c6c6572206973206e6f7420746865206f776e657281525060200191505060405180910390fd5b61088f8161089a565b50565b600033905090565b600073ffffffffffffffffffffffffffffffffffffffff168173ffffffffffffffffffffffffffffffffffffffff161415610920576040517f08c379a00000000000000000000000000000000000000000000000000000000081526004018080602001828103825260268152602001806109df6026913960400191505060405180910390fd5b8073ffffffffffffffffffffffffffffffffffffffff166000809054906101000a900473ffffffffffffffffffffffffffffffffffffffff1673ffffffffffffffffffffffffffffffffffffffff167f8be0079c531659141344cd1fd0a4f28419497f9722a3daafe3b4186f6b6457e060405160405180910390a3806000806101000a81548173ffffffffffffffffffffffffffffffffffffffff021916908373ffffffffffffffffffffffffffffffffffffffff1602179055505056fe4f776e61626c653a206e6577206f776e657220697320746865207a65726f2061646472657373a165627a7a7230582039aae727592d1bf114d263dfe458f9685025e1e329925ce7c8c162d6643907210029",
  "source": "pragma solidity ^0.5.0;\r\n\r\nimport \"openzeppelin-solidity/contracts/utils/ReentrancyGuard.sol\";\r\nimport \"openzeppelin-solidity/contracts/ownership/Ownable.sol\";\r\nimport \"openzeppelin-solidity/contracts/math/SafeMath.sol\";\r\n\r\nimport \"../AaveProtocol/aave-protocol/contracts/configuration/LendingPoolAddressesProvider.sol\";\r\nimport \"../AaveProtocol/aave-protocol/contracts/lendingpool/LendingPool.sol\";\r\nimport \"../AaveProtocol/aave-protocol/contracts/lendingpool/LendingPoolCore.sol\";\r\nimport \"../AaveProtocol/aave-protocol/contracts/lendingpool/LendingPoolDataProvider.sol\";\r\nimport \"../AaveProtocol/aave-protocol/contracts/libraries/CoreLibrary.sol\";\r\nimport \"../AaveProtocol/aave-protocol/contracts/configuration/AddressStorage.sol\";\r\nimport \"../AaveProtocol/aave-protocol/contracts/interfaces/ILendingPoolAddressesProvider.sol\";\r\n\r\ncontract RateSwitcher is Ownable{\r\n\r\n    //@dev Events\r\n    event SwapLog(address indexed _user, address indexed _reserve, uint256 _rate);\r\n\r\n    //user address\r\n    address userAddress;\r\n\r\n    // Contract initialization\r\n    LendingPoolAddressesProvider public lpAddressesProvider;\r\n    LendingPoolCore lendingPoolCore;\r\n    LendingPool lendingPool;\r\n\r\n    //contructor for this Smart Contract\r\n    // @dev retrieves the contract of the LendingPoolAddressesProvider\r\n    constructor() public {\r\n         lpAddressesProvider = LendingPoolAddressesProvider(0x9C6C63aA0cD4557d7aE6D9306C06C093A2e35408);\r\n         lendingPool = LendingPool(lpAddressesProvider.getLendingPool());\r\n         lendingPoolCore = LendingPoolCore(lpAddressesProvider.getLendingPoolCore());\r\n     }\r\n\r\n    function testLendingPoolAbstraction(address _reserve) public view returns (uint256){\r\n        uint256 currentFixedBorrowRate = lendingPoolCore.getReserveCurrentFixedBorrowRate(_reserve);\r\n        return currentFixedBorrowRate;\r\n    }\r\n\r\n    function testLendingPoolCoreAbstraction(address _reserve) public view returns (uint256){\r\n        uint256 currentVariableBorrowRate = lendingPoolCore.getReserveCurrentVariableBorrowRate(_reserve);\r\n        return currentVariableBorrowRate;\r\n    }\r\n\r\n    function testGetUserReserveData(address _reserve, address _user) public view returns (uint256, uint256){\r\n        (, , , ,\r\n        uint256 borrowRateMode, uint256 borrowRate, , , , ,) = lendingPool.getUserReserveData(_reserve, _user);\r\n\r\n        return (borrowRateMode, borrowRate);\r\n    }\r\n\r\n    function rateSwapAll(address _userAddress) internal {\r\n        //gets the list of reserves\r\n        address[] memory reservesListLocal = lendingPool.getReserves();\r\n        //@dev for loop that iterates through every resvere and updates the users borrowRateMode\r\n        // WARN the for loop is currently unbounded\r\n        for(uint i = 0; i < reservesListLocal.length; i++){\r\n            uint256 currentVariableBorrowRate = lendingPoolCore.getReserveCurrentVariableBorrowRate(reservesListLocal[i]);\r\n            //uint256 currentFixedBorrowRate = lendingPool.getReserveCurrentFixedBorrowRate(reservesListLocal[i]);\r\n            uint256 userCurrentFixedBorrowRate = lendingPoolCore.getUserCurrentFixedBorrowRate(reservesListLocal[i], _userAddress);\r\n            (,,,uint256 _principalBorrowBalance, uint256 _borrowRateMode,\r\n            uint256 _borrowRate,,,,,) = lendingPool.getUserReserveData(reservesListLocal[i], _userAddress);\r\n\r\n            //Conditional to verify that they have are active on this reserve\r\n            if(_principalBorrowBalance > 0){\r\n                //Fixed rate to Variable Rate swap\r\n                if((_borrowRateMode == 0) && (_borrowRate > currentVariableBorrowRate)) {\r\n                    lendingPool.swapBorrowRateMode(reservesListLocal[i]);\r\n                    emit SwapLog(_userAddress, reservesListLocal[i], currentVariableBorrowRate);\r\n                }\r\n                //Variable Rate to Fixed Rate swap\r\n                if((_borrowRateMode == 1) && (_borrowRate > userCurrentFixedBorrowRate)){\r\n                    lendingPool.swapBorrowRateMode(reservesListLocal[i]);\r\n                    emit SwapLog(_userAddress, reservesListLocal[i], userCurrentFixedBorrowRate);\r\n                }\r\n            }\r\n        }\r\n    } //end of rateSwap function\r\n}\r\n",
  "sourcePath": "C:\\Users\\Jared\\AaveGitBounty\\contracts\\RateSwitcher.sol",
  "compiler": {
    "name": "solc",
    "version": "0.5.8+commit.23d335f2.Emscripten.clang"
  },
  "schemaVersion": "3.0.17",
  "updatedAt": "2019-11-12T02:29:44.330Z",
  "devdoc": {
    "methods": {
      "isOwner()": {
        "details": "Returns true if the caller is the current owner."
      },
      "owner()": {
        "details": "Returns the address of the current owner."
      },
      "renounceOwnership()": {
        "details": "Leaves the contract without owner. It will not be possible to call `onlyOwner` functions anymore. Can only be called by the current owner.     * NOTE: Renouncing ownership will leave the contract without an owner, thereby removing any functionality that is only available to the owner."
      },
      "transferOwnership(address)": {
        "details": "Transfers ownership of the contract to a new account (`newOwner`). Can only be called by the current owner."
      }
    }
  },
  "userdoc": {
    "methods": {}
  }
}