{
  "contractName": "RateSwitcher",
  "abi": [
    {
      "constant": true,
      "inputs": [],
      "name": "lpAddressesProvider",
      "outputs": [
        {
          "name": "",
          "type": "address"
        }
      ],
      "payable": false,
      "stateMutability": "view",
      "type": "function"
    },
    {
      "constant": false,
      "inputs": [],
      "name": "renounceOwnership",
      "outputs": [],
      "payable": false,
      "stateMutability": "nonpayable",
      "type": "function"
    },
    {
      "constant": true,
      "inputs": [],
      "name": "owner",
      "outputs": [
        {
          "name": "",
          "type": "address"
        }
      ],
      "payable": false,
      "stateMutability": "view",
      "type": "function"
    },
    {
      "constant": true,
      "inputs": [],
      "name": "isOwner",
      "outputs": [
        {
          "name": "",
          "type": "bool"
        }
      ],
      "payable": false,
      "stateMutability": "view",
      "type": "function"
    },
    {
      "constant": false,
      "inputs": [
        {
          "name": "newOwner",
          "type": "address"
        }
      ],
      "name": "transferOwnership",
      "outputs": [],
      "payable": false,
      "stateMutability": "nonpayable",
      "type": "function"
    },
    {
      "inputs": [],
      "payable": false,
      "stateMutability": "nonpayable",
      "type": "constructor"
    },
    {
      "anonymous": false,
      "inputs": [
        {
          "indexed": true,
          "name": "_user",
          "type": "address"
        },
        {
          "indexed": true,
          "name": "_reserve",
          "type": "address"
        },
        {
          "indexed": false,
          "name": "_rate",
          "type": "uint256"
        }
      ],
      "name": "SwapLog",
      "type": "event"
    },
    {
      "anonymous": false,
      "inputs": [
        {
          "indexed": true,
          "name": "previousOwner",
          "type": "address"
        },
        {
          "indexed": true,
          "name": "newOwner",
          "type": "address"
        }
      ],
      "name": "OwnershipTransferred",
      "type": "event"
    },
    {
      "constant": false,
      "inputs": [
        {
          "name": "_userAddress",
          "type": "address"
        }
      ],
      "name": "rateSwap",
      "outputs": [],
      "payable": false,
      "stateMutability": "nonpayable",
      "type": "function"
    }
  ],
  "bytecode": "0x608060405234801561001057600080fd5b5061001f6102fa60201b60201c565b6000806101000a81548173ffffffffffffffffffffffffffffffffffffffff021916908373ffffffffffffffffffffffffffffffffffffffff1602179055506000809054906101000a900473ffffffffffffffffffffffffffffffffffffffff1673ffffffffffffffffffffffffffffffffffffffff16600073ffffffffffffffffffffffffffffffffffffffff167f8be0079c531659141344cd1fd0a4f28419497f9722a3daafe3b4186f6b6457e060405160405180910390a3739c6c63aa0cd4557d7ae6d9306c06c093a2e35408600260006101000a81548173ffffffffffffffffffffffffffffffffffffffff021916908373ffffffffffffffffffffffffffffffffffffffff160217905550600260009054906101000a900473ffffffffffffffffffffffffffffffffffffffff1673ffffffffffffffffffffffffffffffffffffffff16630261bf8b6040518163ffffffff1660e01b815260040160206040518083038186803b15801561019757600080fd5b505afa1580156101ab573d6000803e3d6000fd5b505050506040513d60208110156101c157600080fd5b8101908080519060200190929190505050600460006101000a81548173ffffffffffffffffffffffffffffffffffffffff021916908373ffffffffffffffffffffffffffffffffffffffff160217905550600260009054906101000a900473ffffffffffffffffffffffffffffffffffffffff1673ffffffffffffffffffffffffffffffffffffffff1663ed6ff7606040518163ffffffff1660e01b815260040160206040518083038186803b15801561027a57600080fd5b505afa15801561028e573d6000803e3d6000fd5b505050506040513d60208110156102a457600080fd5b8101908080519060200190929190505050600360006101000a81548173ffffffffffffffffffffffffffffffffffffffff021916908373ffffffffffffffffffffffffffffffffffffffff160217905550610302565b600033905090565b610d6a806103116000396000f3fe608060405234801561001057600080fd5b50600436106100625760003560e01c8063090c041314610067578063715018a6146100b15780638da5cb5b146100bb5780638f32d59b14610105578063f2fde38b14610127578063fb69df2a1461016b575b600080fd5b61006f6101af565b604051808273ffffffffffffffffffffffffffffffffffffffff1673ffffffffffffffffffffffffffffffffffffffff16815260200191505060405180910390f35b6100b96101d5565b005b6100c361030e565b604051808273ffffffffffffffffffffffffffffffffffffffff1673ffffffffffffffffffffffffffffffffffffffff16815260200191505060405180910390f35b61010d610337565b604051808215151515815260200191505060405180910390f35b6101696004803603602081101561013d57600080fd5b81019080803573ffffffffffffffffffffffffffffffffffffffff169060200190929190505050610395565b005b6101ad6004803603602081101561018157600080fd5b81019080803573ffffffffffffffffffffffffffffffffffffffff16906020019092919050505061041b565b005b600260009054906101000a900473ffffffffffffffffffffffffffffffffffffffff1681565b6101dd610337565b61024f576040517f08c379a00000000000000000000000000000000000000000000000000000000081526004018080602001828103825260208152602001807f4f776e61626c653a2063616c6c6572206973206e6f7420746865206f776e657281525060200191505060405180910390fd5b600073ffffffffffffffffffffffffffffffffffffffff166000809054906101000a900473ffffffffffffffffffffffffffffffffffffffff1673ffffffffffffffffffffffffffffffffffffffff167f8be0079c531659141344cd1fd0a4f28419497f9722a3daafe3b4186f6b6457e060405160405180910390a360008060006101000a81548173ffffffffffffffffffffffffffffffffffffffff021916908373ffffffffffffffffffffffffffffffffffffffff160217905550565b60008060009054906101000a900473ffffffffffffffffffffffffffffffffffffffff16905090565b60008060009054906101000a900473ffffffffffffffffffffffffffffffffffffffff1673ffffffffffffffffffffffffffffffffffffffff16610379610bcc565b73ffffffffffffffffffffffffffffffffffffffff1614905090565b61039d610337565b61040f576040517f08c379a00000000000000000000000000000000000000000000000000000000081526004018080602001828103825260208152602001807f4f776e61626c653a2063616c6c6572206973206e6f7420746865206f776e657281525060200191505060405180910390fd5b61041881610bd4565b50565b6060600460009054906101000a900473ffffffffffffffffffffffffffffffffffffffff1673ffffffffffffffffffffffffffffffffffffffff16630902f1ac6040518163ffffffff1660e01b815260040160006040518083038186803b15801561048557600080fd5b505afa158015610499573d6000803e3d6000fd5b505050506040513d6000823e3d601f19601f8201168201806040525060208110156104c357600080fd5b8101908080516401000000008111156104db57600080fd5b828101905060208101848111156104f157600080fd5b815185602082028301116401000000008211171561050e57600080fd5b5050929190505050905060008090505b8151811015610bc7576000600360009054906101000a900473ffffffffffffffffffffffffffffffffffffffff1673ffffffffffffffffffffffffffffffffffffffff1663906c0a4184848151811061057357fe5b60200260200101516040518263ffffffff1660e01b8152600401808273ffffffffffffffffffffffffffffffffffffffff1673ffffffffffffffffffffffffffffffffffffffff16815260200191505060206040518083038186803b1580156105db57600080fd5b505afa1580156105ef573d6000803e3d6000fd5b505050506040513d602081101561060557600080fd5b810190808051906020019092919050505090506000600360009054906101000a900473ffffffffffffffffffffffffffffffffffffffff1673ffffffffffffffffffffffffffffffffffffffff166344e636b785858151811061066457fe5b6020026020010151600160009054906101000a900473ffffffffffffffffffffffffffffffffffffffff166040518363ffffffff1660e01b8152600401808373ffffffffffffffffffffffffffffffffffffffff1673ffffffffffffffffffffffffffffffffffffffff1681526020018273ffffffffffffffffffffffffffffffffffffffff1673ffffffffffffffffffffffffffffffffffffffff1681526020019250505060206040518083038186803b15801561072257600080fd5b505afa158015610736573d6000803e3d6000fd5b505050506040513d602081101561074c57600080fd5b810190808051906020019092919050505090506000806000600460009054906101000a900473ffffffffffffffffffffffffffffffffffffffff1673ffffffffffffffffffffffffffffffffffffffff166328dd2d018888815181106107ae57fe5b60200260200101518a6040518363ffffffff1660e01b8152600401808373ffffffffffffffffffffffffffffffffffffffff1673ffffffffffffffffffffffffffffffffffffffff1681526020018273ffffffffffffffffffffffffffffffffffffffff1673ffffffffffffffffffffffffffffffffffffffff168152602001925050506101606040518083038186803b15801561084b57600080fd5b505afa15801561085f573d6000803e3d6000fd5b505050506040513d61016081101561087657600080fd5b81019080805190602001909291908051906020019092919080519060200190929190805190602001909291908051906020019092919080519060200190929190805190602001909291908051906020019092919080519060200190929190805190602001909291908051906020019092919050505050505050509550955095505050506000831115610bb55760008214801561091157508481115b15610a5b57600460009054906101000a900473ffffffffffffffffffffffffffffffffffffffff1673ffffffffffffffffffffffffffffffffffffffff166348ca130088888151811061096057fe5b60200260200101516040518263ffffffff1660e01b8152600401808273ffffffffffffffffffffffffffffffffffffffff1673ffffffffffffffffffffffffffffffffffffffff168152602001915050600060405180830381600087803b1580156109ca57600080fd5b505af11580156109de573d6000803e3d6000fd5b505050508686815181106109ee57fe5b602002602001015173ffffffffffffffffffffffffffffffffffffffff168873ffffffffffffffffffffffffffffffffffffffff167f4f0da1e7b2686a98ec69e58da2a71cef6e30a1be34d7fe37cdda105fe316c258876040518082815260200191505060405180910390a35b600182148015610a6a57508381115b15610bb457600460009054906101000a900473ffffffffffffffffffffffffffffffffffffffff1673ffffffffffffffffffffffffffffffffffffffff166348ca1300888881518110610ab957fe5b60200260200101516040518263ffffffff1660e01b8152600401808273ffffffffffffffffffffffffffffffffffffffff1673ffffffffffffffffffffffffffffffffffffffff168152602001915050600060405180830381600087803b158015610b2357600080fd5b505af1158015610b37573d6000803e3d6000fd5b50505050868681518110610b4757fe5b602002602001015173ffffffffffffffffffffffffffffffffffffffff168873ffffffffffffffffffffffffffffffffffffffff167f4f0da1e7b2686a98ec69e58da2a71cef6e30a1be34d7fe37cdda105fe316c258866040518082815260200191505060405180910390a35b5b5050505050808060010191505061051e565b505050565b600033905090565b600073ffffffffffffffffffffffffffffffffffffffff168173ffffffffffffffffffffffffffffffffffffffff161415610c5a576040517f08c379a0000000000000000000000000000000000000000000000000000000008152600401808060200182810382526026815260200180610d196026913960400191505060405180910390fd5b8073ffffffffffffffffffffffffffffffffffffffff166000809054906101000a900473ffffffffffffffffffffffffffffffffffffffff1673ffffffffffffffffffffffffffffffffffffffff167f8be0079c531659141344cd1fd0a4f28419497f9722a3daafe3b4186f6b6457e060405160405180910390a3806000806101000a81548173ffffffffffffffffffffffffffffffffffffffff021916908373ffffffffffffffffffffffffffffffffffffffff1602179055505056fe4f776e61626c653a206e6577206f776e657220697320746865207a65726f2061646472657373a165627a7a723058202f5f2fcaa17b77d462f9cc5f3c3c955d1438e1db908d5556ed7d74be80257f050029",
  "source": "pragma solidity ^0.5.0;\r\n\r\nimport \"openzeppelin-solidity/contracts/utils/ReentrancyGuard.sol\";\r\nimport \"openzeppelin-solidity/contracts/ownership/Ownable.sol\";\r\nimport \"openzeppelin-solidity/contracts/math/SafeMath.sol\";\r\n\r\nimport \"../AaveProtocol/aave-protocol/contracts/configuration/LendingPoolAddressesProvider.sol\";\r\nimport \"../AaveProtocol/aave-protocol/contracts/lendingpool/LendingPool.sol\";\r\nimport \"../AaveProtocol/aave-protocol/contracts/lendingpool/LendingPoolCore.sol\";\r\nimport \"../AaveProtocol/aave-protocol/contracts/lendingpool/LendingPoolDataProvider.sol\";\r\nimport \"../AaveProtocol/aave-protocol/contracts/libraries/CoreLibrary.sol\";\r\nimport \"../AaveProtocol/aave-protocol/contracts/configuration/AddressStorage.sol\";\r\nimport \"../AaveProtocol/aave-protocol/contracts/interfaces/ILendingPoolAddressesProvider.sol\";\r\n\r\n\r\n// RateSwitcher contract will automate the interest rate mode depending on market\r\n// variables. Which are determined by the base interests rates, untilization,\r\n// and rate scaling ratios.\r\n//()\r\ncontract RateSwitcher is Ownable{\r\n\r\n    //@dev Events\r\n    event SwapLog(address indexed _user, address indexed _reserve, uint256 _rate);\r\n\r\n    //user address\r\n    address userAddress;\r\n\r\n    // Contract initialization\r\n    LendingPoolAddressesProvider public lpAddressesProvider;\r\n    LendingPoolCore lendingPoolCore;\r\n    LendingPool lendingPool;\r\n\r\n    //contructor for this Smart Contract\r\n    // @dev retrieves the contract of the LendingPoolAddressesProvider\r\n    constructor() public {\r\n         lpAddressesProvider = LendingPoolAddressesProvider(0x9C6C63aA0cD4557d7aE6D9306C06C093A2e35408);\r\n         lendingPool = LendingPool(lpAddressesProvider.getLendingPool());\r\n         lendingPoolCore = LendingPoolCore(lpAddressesProvider.getLendingPoolCore());\r\n    }\r\n\r\n    //mappings we need to access from LendingPoolCore.sol\r\n    mapping(address => CoreLibrary.ReserveData) reserves;\r\n    //mapping(address => mapping(address => CoreLibrary.UserReserveData)) usersReserveData;\r\n    mapping(address => mapping(address => CoreLibrary.ReserveData)) usersReserves;\r\n\r\n    function rateSwap(address _userAddress) public{\r\n        //gets the list of reserves\r\n        address[] memory reservesListLocal = lendingPool.getReserves();\r\n        //@dev for loop that iterates through every resvere and updates the users borrowRateMode\r\n        // WARN the for loop is currently unbounded\r\n        for(uint i = 0; i < reservesListLocal.length; i++){\r\n            uint256 currentVariableBorrowRate = lendingPoolCore.getReserveCurrentVariableBorrowRate(reservesListLocal[i]);\r\n            //uint256 currentFixedBorrowRate = lendingPool.getReserveCurrentFixedBorrowRate(reservesListLocal[i]);\r\n            uint256 userCurrentFixedBorrowRate = lendingPoolCore.getUserCurrentFixedBorrowRate(reservesListLocal[i], userAddress);\r\n            (,,,uint256 _principalBorrowBalance, uint256 _borrowRateMode,\r\n            uint256 _borrowRate,,,,,) = lendingPool.getUserReserveData(reservesListLocal[i], _userAddress);\r\n\r\n            //Conditional to verify that they have are active on this reserve\r\n            if(_principalBorrowBalance > 0){\r\n                //Fixed rate to Variable Rate swap\r\n                if((_borrowRateMode == 0) && (_borrowRate > currentVariableBorrowRate)) {\r\n                    lendingPool.swapBorrowRateMode(reservesListLocal[i]);\r\n                    emit SwapLog(_userAddress, reservesListLocal[i], currentVariableBorrowRate);\r\n                }\r\n                //Variable Rate to Fixed Rate swap\r\n                if((_borrowRateMode == 1) && (_borrowRate > userCurrentFixedBorrowRate)){\r\n                    lendingPool.swapBorrowRateMode(reservesListLocal[i]);\r\n                    emit SwapLog(_userAddress, reservesListLocal[i], userCurrentFixedBorrowRate);\r\n                }\r\n            }\r\n        }\r\n    }\r\n}\r\n",
  "sourcePath": "C:/Users/Jared/AaveGitBounty/contracts/RateSwitcher.sol",
  "compiler": {
    "name": "solc",
    "version": "0.5.8+commit.23d335f2.Emscripten.clang"
  },
  "schemaVersion": "3.0.17",
  "updatedAt": "2019-11-06T06:49:17.400Z",
  "networkType": "ethereum",
  "devdoc": {
    "methods": {
      "isOwner()": {
        "details": "Returns true if the caller is the current owner."
      },
      "owner()": {
        "details": "Returns the address of the current owner."
      },
      "renounceOwnership()": {
        "details": "Leaves the contract without owner. It will not be possible to call `onlyOwner` functions anymore. Can only be called by the current owner.     * NOTE: Renouncing ownership will leave the contract without an owner, thereby removing any functionality that is only available to the owner."
      },
      "transferOwnership(address)": {
        "details": "Transfers ownership of the contract to a new account (`newOwner`). Can only be called by the current owner."
      }
    }
  },
  "userdoc": {
    "methods": {}
  }
}