{
  "contractName": "RateSwitcher",
  "abi": [
    {
      "constant": true,
      "inputs": [],
      "name": "lpAddressesProvider",
      "outputs": [
        {
          "name": "",
          "type": "address"
        }
      ],
      "payable": false,
      "stateMutability": "view",
      "type": "function"
    },
    {
      "constant": false,
      "inputs": [],
      "name": "renounceOwnership",
      "outputs": [],
      "payable": false,
      "stateMutability": "nonpayable",
      "type": "function"
    },
    {
      "constant": true,
      "inputs": [],
      "name": "ethPriceInUSD",
      "outputs": [
        {
          "name": "",
          "type": "string"
        }
      ],
      "payable": false,
      "stateMutability": "view",
      "type": "function"
    },
    {
      "constant": true,
      "inputs": [
        {
          "name": "",
          "type": "bytes32"
        }
      ],
      "name": "pendingQueries",
      "outputs": [
        {
          "name": "",
          "type": "bool"
        }
      ],
      "payable": false,
      "stateMutability": "view",
      "type": "function"
    },
    {
      "constant": true,
      "inputs": [],
      "name": "owner",
      "outputs": [
        {
          "name": "",
          "type": "address"
        }
      ],
      "payable": false,
      "stateMutability": "view",
      "type": "function"
    },
    {
      "constant": true,
      "inputs": [],
      "name": "isOwner",
      "outputs": [
        {
          "name": "",
          "type": "bool"
        }
      ],
      "payable": false,
      "stateMutability": "view",
      "type": "function"
    },
    {
      "constant": true,
      "inputs": [],
      "name": "queryPrice",
      "outputs": [
        {
          "name": "",
          "type": "uint256"
        }
      ],
      "payable": false,
      "stateMutability": "view",
      "type": "function"
    },
    {
      "constant": false,
      "inputs": [
        {
          "name": "newOwner",
          "type": "address"
        }
      ],
      "name": "transferOwnership",
      "outputs": [],
      "payable": false,
      "stateMutability": "nonpayable",
      "type": "function"
    },
    {
      "inputs": [],
      "payable": false,
      "stateMutability": "nonpayable",
      "type": "constructor"
    },
    {
      "anonymous": false,
      "inputs": [
        {
          "indexed": true,
          "name": "_user",
          "type": "address"
        },
        {
          "indexed": true,
          "name": "_reserve",
          "type": "address"
        },
        {
          "indexed": false,
          "name": "_rate",
          "type": "uint256"
        }
      ],
      "name": "SwapLog",
      "type": "event"
    },
    {
      "anonymous": false,
      "inputs": [
        {
          "indexed": false,
          "name": "nextStep",
          "type": "string"
        }
      ],
      "name": "LogConstructorInitiated",
      "type": "event"
    },
    {
      "anonymous": false,
      "inputs": [
        {
          "indexed": false,
          "name": "price",
          "type": "string"
        }
      ],
      "name": "LogPriceUpdated",
      "type": "event"
    },
    {
      "anonymous": false,
      "inputs": [
        {
          "indexed": false,
          "name": "description",
          "type": "string"
        }
      ],
      "name": "LogNewProvableQuery",
      "type": "event"
    },
    {
      "anonymous": false,
      "inputs": [
        {
          "indexed": true,
          "name": "previousOwner",
          "type": "address"
        },
        {
          "indexed": true,
          "name": "newOwner",
          "type": "address"
        }
      ],
      "name": "OwnershipTransferred",
      "type": "event"
    },
    {
      "constant": true,
      "inputs": [
        {
          "name": "_reserve",
          "type": "address"
        }
      ],
      "name": "testLendingPoolAbstraction",
      "outputs": [
        {
          "name": "",
          "type": "uint256"
        }
      ],
      "payable": false,
      "stateMutability": "view",
      "type": "function"
    },
    {
      "constant": true,
      "inputs": [
        {
          "name": "_reserve",
          "type": "address"
        }
      ],
      "name": "testLendingPoolCoreAbstraction",
      "outputs": [
        {
          "name": "",
          "type": "uint256"
        }
      ],
      "payable": false,
      "stateMutability": "view",
      "type": "function"
    },
    {
      "constant": true,
      "inputs": [
        {
          "name": "_reserve",
          "type": "address"
        },
        {
          "name": "_user",
          "type": "address"
        }
      ],
      "name": "testGetUserReserveData",
      "outputs": [
        {
          "name": "",
          "type": "uint256"
        },
        {
          "name": "",
          "type": "uint256"
        }
      ],
      "payable": false,
      "stateMutability": "view",
      "type": "function"
    },
    {
      "constant": false,
      "inputs": [
        {
          "name": "_myid",
          "type": "bytes32"
        },
        {
          "name": "_result",
          "type": "string"
        }
      ],
      "name": "__callback",
      "outputs": [],
      "payable": false,
      "stateMutability": "nonpayable",
      "type": "function"
    },
    {
      "constant": false,
      "inputs": [
        {
          "name": "_myid",
          "type": "bytes32"
        },
        {
          "name": "_result",
          "type": "string"
        },
        {
          "name": "_proof",
          "type": "bytes"
        }
      ],
      "name": "__callback",
      "outputs": [],
      "payable": false,
      "stateMutability": "nonpayable",
      "type": "function"
    },
    {
      "constant": false,
      "inputs": [
        {
          "name": "_reserve",
          "type": "address"
        }
      ],
      "name": "rateSwapIndividual",
      "outputs": [],
      "payable": false,
      "stateMutability": "nonpayable",
      "type": "function"
    },
    {
      "constant": false,
      "inputs": [
        {
          "name": "_userAddress",
          "type": "address"
        }
      ],
      "name": "rateSwapAll",
      "outputs": [],
      "payable": false,
      "stateMutability": "nonpayable",
      "type": "function"
    },
    {
      "constant": false,
      "inputs": [],
      "name": "getEthPriceInUSDViaProvable",
      "outputs": [],
      "payable": true,
      "stateMutability": "payable",
      "type": "function"
    }
  ],
  "bytecode": "0x60806040526040518060400160405280600381526020017f55524c0000000000000000000000000000000000000000000000000000000000815250600790805190602001906200005192919062001151565b503480156200005f57600080fd5b50620000706200046b60201b60201c565b600560006101000a81548173ffffffffffffffffffffffffffffffffffffffff021916908373ffffffffffffffffffffffffffffffffffffffff160217905550600560009054906101000a900473ffffffffffffffffffffffffffffffffffffffff1673ffffffffffffffffffffffffffffffffffffffff16600073ffffffffffffffffffffffffffffffffffffffff167f8be0079c531659141344cd1fd0a4f28419497f9722a3daafe3b4186f6b6457e060405160405180910390a3739c6c63aa0cd4557d7ae6d9306c06c093a2e35408600a60006101000a81548173ffffffffffffffffffffffffffffffffffffffff021916908373ffffffffffffffffffffffffffffffffffffffff160217905550600a60009054906101000a900473ffffffffffffffffffffffffffffffffffffffff1673ffffffffffffffffffffffffffffffffffffffff16630261bf8b6040518163ffffffff1660e01b815260040160206040518083038186803b158015620001eb57600080fd5b505afa15801562000200573d6000803e3d6000fd5b505050506040513d60208110156200021757600080fd5b8101908080519060200190929190505050600c60006101000a81548173ffffffffffffffffffffffffffffffffffffffff021916908373ffffffffffffffffffffffffffffffffffffffff160217905550600a60009054906101000a900473ffffffffffffffffffffffffffffffffffffffff1673ffffffffffffffffffffffffffffffffffffffff1663ed6ff7606040518163ffffffff1660e01b815260040160206040518083038186803b158015620002d157600080fd5b505afa158015620002e6573d6000803e3d6000fd5b505050506040513d6020811015620002fd57600080fd5b8101908080519060200190929190505050600b60006101000a81548173ffffffffffffffffffffffffffffffffffffffff021916908373ffffffffffffffffffffffffffffffffffffffff160217905550620003646404e3b292006200047360201b60201c565b6200041360078054600181600116156101000203166002900480601f016020809104026020016040519081016040528092919081815260200182805460018160011615610100020316600290048015620004025780601f10620003d65761010080835404028352916020019162000402565b820191906000526020600020905b815481529060010190602001808311620003e457829003601f168201915b50505050506200079260201b60201c565b6008819055507f11a3fca63f87bd67d7f9f72b744acc8be2193705e7a734ac3a773d35d259e87b60405180806020018281038252605b81526020018062004807605b913960600191505060405180910390a162001200565b600033905090565b600073ffffffffffffffffffffffffffffffffffffffff16600160009054906101000a900473ffffffffffffffffffffffffffffffffffffffff1673ffffffffffffffffffffffffffffffffffffffff161480620005035750600062000501600160009054906101000a900473ffffffffffffffffffffffffffffffffffffffff1662000b4260201b60201c565b145b156200051d576200051b600062000b4d60201b60201c565b505b600160009054906101000a900473ffffffffffffffffffffffffffffffffffffffff1673ffffffffffffffffffffffffffffffffffffffff166338cc48316040518163ffffffff1660e01b8152600401602060405180830381600087803b1580156200058857600080fd5b505af11580156200059d573d6000803e3d6000fd5b505050506040513d6020811015620005b457600080fd5b810190808051906020019092919050505073ffffffffffffffffffffffffffffffffffffffff166000809054906101000a900473ffffffffffffffffffffffffffffffffffffffff1673ffffffffffffffffffffffffffffffffffffffff16146200070157600160009054906101000a900473ffffffffffffffffffffffffffffffffffffffff1673ffffffffffffffffffffffffffffffffffffffff166338cc48316040518163ffffffff1660e01b8152600401602060405180830381600087803b1580156200068457600080fd5b505af115801562000699573d6000803e3d6000fd5b505050506040513d6020811015620006b057600080fd5b81019080805190602001909291905050506000806101000a81548173ffffffffffffffffffffffffffffffffffffffff021916908373ffffffffffffffffffffffffffffffffffffffff1602179055505b6000809054906101000a900473ffffffffffffffffffffffffffffffffffffffff1673ffffffffffffffffffffffffffffffffffffffff1663ca6ad1e4826040518263ffffffff1660e01b815260040180828152602001915050600060405180830381600087803b1580156200077657600080fd5b505af11580156200078b573d6000803e3d6000fd5b5050505050565b60008073ffffffffffffffffffffffffffffffffffffffff16600160009054906101000a900473ffffffffffffffffffffffffffffffffffffffff1673ffffffffffffffffffffffffffffffffffffffff161480620008235750600062000821600160009054906101000a900473ffffffffffffffffffffffffffffffffffffffff1662000b4260201b60201c565b145b156200083d576200083b600062000b4d60201b60201c565b505b600160009054906101000a900473ffffffffffffffffffffffffffffffffffffffff1673ffffffffffffffffffffffffffffffffffffffff166338cc48316040518163ffffffff1660e01b8152600401602060405180830381600087803b158015620008a857600080fd5b505af1158015620008bd573d6000803e3d6000fd5b505050506040513d6020811015620008d457600080fd5b810190808051906020019092919050505073ffffffffffffffffffffffffffffffffffffffff166000809054906101000a900473ffffffffffffffffffffffffffffffffffffffff1673ffffffffffffffffffffffffffffffffffffffff161462000a2157600160009054906101000a900473ffffffffffffffffffffffffffffffffffffffff1673ffffffffffffffffffffffffffffffffffffffff166338cc48316040518163ffffffff1660e01b8152600401602060405180830381600087803b158015620009a457600080fd5b505af1158015620009b9573d6000803e3d6000fd5b505050506040513d6020811015620009d057600080fd5b81019080805190602001909291905050506000806101000a81548173ffffffffffffffffffffffffffffffffffffffff021916908373ffffffffffffffffffffffffffffffffffffffff1602179055505b6000809054906101000a900473ffffffffffffffffffffffffffffffffffffffff1673ffffffffffffffffffffffffffffffffffffffff1663524f3889836040518263ffffffff1660e01b81526004018080602001828103825283818151815260200191508051906020019080838360005b8381101562000ab057808201518184015260208101905062000a93565b50505050905090810190601f16801562000ade5780820380516001836020036101000a031916815260200191505b5092505050602060405180830381600087803b15801562000afe57600080fd5b505af115801562000b13573d6000803e3d6000fd5b505050506040513d602081101562000b2a57600080fd5b81019080805190602001909291905050509050919050565b6000813b9050919050565b600062000b5f62000b6660201b60201c565b9050919050565b60008062000b8e731d3b2638a7cc9f2cb3d298a3da7a90b67e5506ed62000b4260201b60201c565b111562000c3a57731d3b2638a7cc9f2cb3d298a3da7a90b67e5506ed600160006101000a81548173ffffffffffffffffffffffffffffffffffffffff021916908373ffffffffffffffffffffffffffffffffffffffff16021790555062000c306040518060400160405280600b81526020017f6574685f6d61696e6e65740000000000000000000000000000000000000000008152506200113560201b60201c565b6001905062001132565b600062000c6173c03a2615d5efaf5f49f60b7bb6583eaec212fdf162000b4260201b60201c565b111562000d0d5773c03a2615d5efaf5f49f60b7bb6583eaec212fdf1600160006101000a81548173ffffffffffffffffffffffffffffffffffffffff021916908373ffffffffffffffffffffffffffffffffffffffff16021790555062000d036040518060400160405280600c81526020017f6574685f726f707374656e3300000000000000000000000000000000000000008152506200113560201b60201c565b6001905062001132565b600062000d3473b7a07bcf2ba2f2703b24c0691b5278999c59ac7e62000b4260201b60201c565b111562000de05773b7a07bcf2ba2f2703b24c0691b5278999c59ac7e600160006101000a81548173ffffffffffffffffffffffffffffffffffffffff021916908373ffffffffffffffffffffffffffffffffffffffff16021790555062000dd66040518060400160405280600981526020017f6574685f6b6f76616e00000000000000000000000000000000000000000000008152506200113560201b60201c565b6001905062001132565b600062000e0773146500cfd35b22e4a392fe0adc06de1a1368ed4862000b4260201b60201c565b111562000eb35773146500cfd35b22e4a392fe0adc06de1a1368ed48600160006101000a81548173ffffffffffffffffffffffffffffffffffffffff021916908373ffffffffffffffffffffffffffffffffffffffff16021790555062000ea96040518060400160405280600b81526020017f6574685f72696e6b6562790000000000000000000000000000000000000000008152506200113560201b60201c565b6001905062001132565b600062000eda73a2998efd205fb9d4b4963afb70778d6354ad3a4162000b4260201b60201c565b111562000f865773a2998efd205fb9d4b4963afb70778d6354ad3a41600160006101000a81548173ffffffffffffffffffffffffffffffffffffffff021916908373ffffffffffffffffffffffffffffffffffffffff16021790555062000f7c6040518060400160405280600a81526020017f6574685f676f65726c69000000000000000000000000000000000000000000008152506200113560201b60201c565b6001905062001132565b600062000fad736f485c8bf6fc43ea212e93bbf8ce046c7f1cb47562000b4260201b60201c565b11156200101357736f485c8bf6fc43ea212e93bbf8ce046c7f1cb475600160006101000a81548173ffffffffffffffffffffffffffffffffffffffff021916908373ffffffffffffffffffffffffffffffffffffffff1602179055506001905062001132565b60006200103a7320e12a1f859b3feae5fb2a0a32c18f5a65555bbf62000b4260201b60201c565b1115620010a0577320e12a1f859b3feae5fb2a0a32c18f5a65555bbf600160006101000a81548173ffffffffffffffffffffffffffffffffffffffff021916908373ffffffffffffffffffffffffffffffffffffffff1602179055506001905062001132565b6000620010c77351efaf4c8b3c9afbd5ab9f4bbc82784ab6ef8faa62000b4260201b60201c565b11156200112d577351efaf4c8b3c9afbd5ab9f4bbc82784ab6ef8faa600160006101000a81548173ffffffffffffffffffffffffffffffffffffffff021916908373ffffffffffffffffffffffffffffffffffffffff1602179055506001905062001132565b600090505b90565b80600290805190602001906200114d92919062001151565b5050565b828054600181600116156101000203166002900490600052602060002090601f016020900481019282601f106200119457805160ff1916838001178555620011c5565b82800160010185558215620011c5579182015b82811115620011c4578251825591602001919060010190620011a7565b5b509050620011d49190620011d8565b5090565b620011fd91905b80821115620011f9576000816000905550600101620011df565b5090565b90565b6135f780620012106000396000f3fe6080604052600436106100f35760003560e01c80638da5cb5b1161008a578063b0667cf811610059578063b0667cf814610656578063bdb9d63514610681578063c4094356146106e6578063f2fde38b14610737576100f3565b80638da5cb5b1461053a5780638f32d59b1461059157806393199474146105c0578063a06dc3ed146105ca576100f3565b806338bbfa50116100c657806338bbfa50146102d7578063715018a614610440578063891a8b851461045757806389a2cdcb146104e7576100f3565b8063090c0413146100f857806327dc297e1461014f578063292f60121461022157806333ca7acd14610286575b600080fd5b34801561010457600080fd5b5061010d610788565b604051808273ffffffffffffffffffffffffffffffffffffffff1673ffffffffffffffffffffffffffffffffffffffff16815260200191505060405180910390f35b34801561015b57600080fd5b5061021f6004803603604081101561017257600080fd5b81019080803590602001909291908035906020019064010000000081111561019957600080fd5b8201836020820111156101ab57600080fd5b803590602001918460018302840111640100000000831117156101cd57600080fd5b91908080601f016020809104026020016040519081016040528093929190818152602001838380828437600081840152601f19601f8201169050808301925050505050505091929192905050506107ae565b005b34801561022d57600080fd5b506102706004803603602081101561024457600080fd5b81019080803573ffffffffffffffffffffffffffffffffffffffff1690602001909291905050506107f1565b6040518082815260200191505060405180910390f35b34801561029257600080fd5b506102d5600480360360208110156102a957600080fd5b81019080803573ffffffffffffffffffffffffffffffffffffffff1690602001909291905050506108d9565b005b3480156102e357600080fd5b5061043e600480360360608110156102fa57600080fd5b81019080803590602001909291908035906020019064010000000081111561032157600080fd5b82018360208201111561033357600080fd5b8035906020019184600183028401116401000000008311171561035557600080fd5b91908080601f016020809104026020016040519081016040528093929190818152602001838380828437600081840152601f19601f820116905080830192505050505050509192919290803590602001906401000000008111156103b857600080fd5b8201836020820111156103ca57600080fd5b803590602001918460018302840111640100000000831117156103ec57600080fd5b91908080601f016020809104026020016040519081016040528093929190818152602001838380828437600081840152601f19601f820116905080830192505050505050509192919290505050610f92565b005b34801561044c57600080fd5b506104556110e0565b005b34801561046357600080fd5b5061046c61121b565b6040518080602001828103825283818151815260200191508051906020019080838360005b838110156104ac578082015181840152602081019050610491565b50505050905090810190601f1680156104d95780820380516001836020036101000a031916815260200191505b509250505060405180910390f35b3480156104f357600080fd5b506105206004803603602081101561050a57600080fd5b81019080803590602001909291905050506112b9565b604051808215151515815260200191505060405180910390f35b34801561054657600080fd5b5061054f6112d9565b604051808273ffffffffffffffffffffffffffffffffffffffff1673ffffffffffffffffffffffffffffffffffffffff16815260200191505060405180910390f35b34801561059d57600080fd5b506105a6611303565b604051808215151515815260200191505060405180910390f35b6105c8611362565b005b3480156105d657600080fd5b50610639600480360360408110156105ed57600080fd5b81019080803573ffffffffffffffffffffffffffffffffffffffff169060200190929190803573ffffffffffffffffffffffffffffffffffffffff169060200190929190505050611559565b604051808381526020018281526020019250505060405180910390f35b34801561066257600080fd5b5061066b6116ef565b6040518082815260200191505060405180910390f35b34801561068d57600080fd5b506106d0600480360360208110156106a457600080fd5b81019080803573ffffffffffffffffffffffffffffffffffffffff1690602001909291905050506116f5565b6040518082815260200191505060405180910390f35b3480156106f257600080fd5b506107356004803603602081101561070957600080fd5b81019080803573ffffffffffffffffffffffffffffffffffffffff1690602001909291905050506117dd565b005b34801561074357600080fd5b506107866004803603602081101561075a57600080fd5b81019080803573ffffffffffffffffffffffffffffffffffffffff169060200190929190505050612036565b005b600a60009054906101000a900473ffffffffffffffffffffffffffffffffffffffff1681565b6107ed828260006040519080825280601f01601f1916602001820160405280156107e75781602001600182028038833980820191505090505b50610f92565b5050565b600080600b60009054906101000a900473ffffffffffffffffffffffffffffffffffffffff1673ffffffffffffffffffffffffffffffffffffffff16639e7d3b96846040518263ffffffff1660e01b8152600401808273ffffffffffffffffffffffffffffffffffffffff1673ffffffffffffffffffffffffffffffffffffffff16815260200191505060206040518083038186803b15801561089357600080fd5b505afa1580156108a7573d6000803e3d6000fd5b505050506040513d60208110156108bd57600080fd5b8101908080519060200190929190505050905080915050919050565b6000600b60009054906101000a900473ffffffffffffffffffffffffffffffffffffffff1673ffffffffffffffffffffffffffffffffffffffff1663906c0a41836040518263ffffffff1660e01b8152600401808273ffffffffffffffffffffffffffffffffffffffff1673ffffffffffffffffffffffffffffffffffffffff16815260200191505060206040518083038186803b15801561097a57600080fd5b505afa15801561098e573d6000803e3d6000fd5b505050506040513d60208110156109a457600080fd5b810190808051906020019092919050505090506000600b60009054906101000a900473ffffffffffffffffffffffffffffffffffffffff1673ffffffffffffffffffffffffffffffffffffffff166344e636b784336040518363ffffffff1660e01b8152600401808373ffffffffffffffffffffffffffffffffffffffff1673ffffffffffffffffffffffffffffffffffffffff1681526020018273ffffffffffffffffffffffffffffffffffffffff1673ffffffffffffffffffffffffffffffffffffffff1681526020019250505060206040518083038186803b158015610a8c57600080fd5b505afa158015610aa0573d6000803e3d6000fd5b505050506040513d6020811015610ab657600080fd5b810190808051906020019092919050505090506000806000600c60009054906101000a900473ffffffffffffffffffffffffffffffffffffffff1673ffffffffffffffffffffffffffffffffffffffff166328dd2d0187336040518363ffffffff1660e01b8152600401808373ffffffffffffffffffffffffffffffffffffffff1673ffffffffffffffffffffffffffffffffffffffff1681526020018273ffffffffffffffffffffffffffffffffffffffff1673ffffffffffffffffffffffffffffffffffffffff168152602001925050506101606040518083038186803b158015610ba257600080fd5b505afa158015610bb6573d6000803e3d6000fd5b505050506040513d610160811015610bcd57600080fd5b81019080805190602001909291908051906020019092919080519060200190929190805190602001909291908051906020019092919080519060200190929190805190602001909291908051906020019092919080519060200190929190805190602001909291908051906020019092919050505050505050509550955095505050506000610c7884610c6a600c896120bc90919063ffffffff16565b61211890919063ffffffff16565b90506000610ca285610c94600c896120bc90919063ffffffff16565b61211890919063ffffffff16565b90506000851115610f8857600084148015610cbc57508683115b15610e1a576000610cd6838361217b90919063ffffffff16565b90506000610cee600a886121c590919063ffffffff16565b905080821115610e1757600c60009054906101000a900473ffffffffffffffffffffffffffffffffffffffff1673ffffffffffffffffffffffffffffffffffffffff166348ca13008b6040518263ffffffff1660e01b8152600401808273ffffffffffffffffffffffffffffffffffffffff1673ffffffffffffffffffffffffffffffffffffffff168152602001915050600060405180830381600087803b158015610d9957600080fd5b505af1158015610dad573d6000803e3d6000fd5b505050508973ffffffffffffffffffffffffffffffffffffffff163373ffffffffffffffffffffffffffffffffffffffff167f4f0da1e7b2686a98ec69e58da2a71cef6e30a1be34d7fe37cdda105fe316c2588b6040518082815260200191505060405180910390a35b50505b600184148015610e2957508583115b15610f87576000610e43828461217b90919063ffffffff16565b90506000610e5b600a886121c590919063ffffffff16565b905080821115610f8457600c60009054906101000a900473ffffffffffffffffffffffffffffffffffffffff1673ffffffffffffffffffffffffffffffffffffffff166348ca13008b6040518263ffffffff1660e01b8152600401808273ffffffffffffffffffffffffffffffffffffffff1673ffffffffffffffffffffffffffffffffffffffff168152602001915050600060405180830381600087803b158015610f0657600080fd5b505af1158015610f1a573d6000803e3d6000fd5b505050508973ffffffffffffffffffffffffffffffffffffffff163373ffffffffffffffffffffffffffffffffffffffff167f4f0da1e7b2686a98ec69e58da2a71cef6e30a1be34d7fe37cdda105fe316c2588a6040518082815260200191505060405180910390a35b50505b5b5050505050505050565b610f9a61220f565b73ffffffffffffffffffffffffffffffffffffffff163373ffffffffffffffffffffffffffffffffffffffff1614610fd157600080fd5b60011515600d600085815260200190815260200160002060009054906101000a900460ff1615151461100257600080fd5b81600990805190602001906110189291906133e1565b507f71f1a5645e51a2da828ffcf79cc17da88eb25e1bca8b9dced23210847a4769c1600960405180806020018281038252838181546001816001161561010002031660029004815260200191508054600181600116156101000203166002900480156110c55780601f1061109a576101008083540402835291602001916110c5565b820191906000526020600020905b8154815290600101906020018083116110a857829003601f168201915b50509250505060405180910390a16110db611362565b505050565b6110e8611303565b61115a576040517f08c379a00000000000000000000000000000000000000000000000000000000081526004018080602001828103825260208152602001807f4f776e61626c653a2063616c6c6572206973206e6f7420746865206f776e657281525060200191505060405180910390fd5b600073ffffffffffffffffffffffffffffffffffffffff16600560009054906101000a900473ffffffffffffffffffffffffffffffffffffffff1673ffffffffffffffffffffffffffffffffffffffff167f8be0079c531659141344cd1fd0a4f28419497f9722a3daafe3b4186f6b6457e060405160405180910390a36000600560006101000a81548173ffffffffffffffffffffffffffffffffffffffff021916908373ffffffffffffffffffffffffffffffffffffffff160217905550565b60098054600181600116156101000203166002900480601f0160208091040260200160405190810160405280929190818152602001828054600181600116156101000203166002900480156112b15780601f10611286576101008083540402835291602001916112b1565b820191906000526020600020905b81548152906001019060200180831161129457829003601f168201915b505050505081565b600d6020528060005260406000206000915054906101000a900460ff1681565b6000600560009054906101000a900473ffffffffffffffffffffffffffffffffffffffff16905090565b6000600560009054906101000a900473ffffffffffffffffffffffffffffffffffffffff1673ffffffffffffffffffffffffffffffffffffffff1661134661252c565b73ffffffffffffffffffffffffffffffffffffffff1614905090565b60006008541161137157600080fd5b33600660006101000a81548173ffffffffffffffffffffffffffffffffffffffff021916908373ffffffffffffffffffffffffffffffffffffffff160217905550600854341061150b573373ffffffffffffffffffffffffffffffffffffffff166108fc60085434039081150290604051600060405180830381858888f19350505050158015611405573d6000803e3d6000fd5b50600061146160b46040518060400160405280600381526020017f55524c00000000000000000000000000000000000000000000000000000000008152506040518060800160405280604c8152602001613580604c9139612534565b90506001600d600083815260200190815260200160002060006101000a81548160ff0219169083151502179055506114ba600660009054906101000a900473ffffffffffffffffffffffffffffffffffffffff166117dd565b7fc4dc360d0a9c0677a3379ae0a3d81e887f761e65fdf3d7e00859d1bcd3c4738960405180806020018281038252605a8152602001806134ad605a913960600191505060405180910390a150611557565b7fc4dc360d0a9c0677a3379ae0a3d81e887f761e65fdf3d7e00859d1bcd3c473896040518080602001828103825260588152602001806135286058913960600191505060405180910390a15b565b600080600080600c60009054906101000a900473ffffffffffffffffffffffffffffffffffffffff1673ffffffffffffffffffffffffffffffffffffffff166328dd2d0187876040518363ffffffff1660e01b8152600401808373ffffffffffffffffffffffffffffffffffffffff1673ffffffffffffffffffffffffffffffffffffffff1681526020018273ffffffffffffffffffffffffffffffffffffffff1673ffffffffffffffffffffffffffffffffffffffff168152602001925050506101606040518083038186803b15801561163357600080fd5b505afa158015611647573d6000803e3d6000fd5b505050506040513d61016081101561165e57600080fd5b8101908080519060200190929190805190602001909291908051906020019092919080519060200190929190805190602001909291908051906020019092919080519060200190929190805190602001909291908051906020019092919080519060200190929190805190602001909291905050505050505050955095505050505081819350935050509250929050565b60085481565b600080600b60009054906101000a900473ffffffffffffffffffffffffffffffffffffffff1673ffffffffffffffffffffffffffffffffffffffff1663906c0a41846040518263ffffffff1660e01b8152600401808273ffffffffffffffffffffffffffffffffffffffff1673ffffffffffffffffffffffffffffffffffffffff16815260200191505060206040518083038186803b15801561179757600080fd5b505afa1580156117ab573d6000803e3d6000fd5b505050506040513d60208110156117c157600080fd5b8101908080519060200190929190505050905080915050919050565b6060600c60009054906101000a900473ffffffffffffffffffffffffffffffffffffffff1673ffffffffffffffffffffffffffffffffffffffff16630902f1ac6040518163ffffffff1660e01b815260040160006040518083038186803b15801561184757600080fd5b505afa15801561185b573d6000803e3d6000fd5b505050506040513d6000823e3d601f19601f82011682018060405250602081101561188557600080fd5b81019080805164010000000081111561189d57600080fd5b828101905060208101848111156118b357600080fd5b81518560208202830111640100000000821117156118d057600080fd5b5050929190505050905060008090505b8151811015612031576000600b60009054906101000a900473ffffffffffffffffffffffffffffffffffffffff1673ffffffffffffffffffffffffffffffffffffffff1663906c0a4184848151811061193557fe5b60200260200101516040518263ffffffff1660e01b8152600401808273ffffffffffffffffffffffffffffffffffffffff1673ffffffffffffffffffffffffffffffffffffffff16815260200191505060206040518083038186803b15801561199d57600080fd5b505afa1580156119b1573d6000803e3d6000fd5b505050506040513d60208110156119c757600080fd5b810190808051906020019092919050505090506000600b60009054906101000a900473ffffffffffffffffffffffffffffffffffffffff1673ffffffffffffffffffffffffffffffffffffffff166344e636b7858581518110611a2657fe5b6020026020010151876040518363ffffffff1660e01b8152600401808373ffffffffffffffffffffffffffffffffffffffff1673ffffffffffffffffffffffffffffffffffffffff1681526020018273ffffffffffffffffffffffffffffffffffffffff1673ffffffffffffffffffffffffffffffffffffffff1681526020019250505060206040518083038186803b158015611ac257600080fd5b505afa158015611ad6573d6000803e3d6000fd5b505050506040513d6020811015611aec57600080fd5b810190808051906020019092919050505090506000806000600c60009054906101000a900473ffffffffffffffffffffffffffffffffffffffff1673ffffffffffffffffffffffffffffffffffffffff166328dd2d01888881518110611b4e57fe5b60200260200101518a6040518363ffffffff1660e01b8152600401808373ffffffffffffffffffffffffffffffffffffffff1673ffffffffffffffffffffffffffffffffffffffff1681526020018273ffffffffffffffffffffffffffffffffffffffff1673ffffffffffffffffffffffffffffffffffffffff168152602001925050506101606040518083038186803b158015611beb57600080fd5b505afa158015611bff573d6000803e3d6000fd5b505050506040513d610160811015611c1657600080fd5b81019080805190602001909291908051906020019092919080519060200190929190805190602001909291908051906020019092919080519060200190929190805190602001909291908051906020019092919080519060200190929190805190602001909291908051906020019092919050505050505050509550955095505050506000611cc184611cb3600c896120bc90919063ffffffff16565b61211890919063ffffffff16565b90506000611ceb85611cdd600c896120bc90919063ffffffff16565b61211890919063ffffffff16565b9050600085111561201d57600084148015611d0557508683115b15611e89576000611d1f838361217b90919063ffffffff16565b90506000611d37600a886121c590919063ffffffff16565b905080821115611e8657600c60009054906101000a900473ffffffffffffffffffffffffffffffffffffffff1673ffffffffffffffffffffffffffffffffffffffff166348ca13008c8c81518110611d8b57fe5b60200260200101516040518263ffffffff1660e01b8152600401808273ffffffffffffffffffffffffffffffffffffffff1673ffffffffffffffffffffffffffffffffffffffff168152602001915050600060405180830381600087803b158015611df557600080fd5b505af1158015611e09573d6000803e3d6000fd5b505050508a8a81518110611e1957fe5b602002602001015173ffffffffffffffffffffffffffffffffffffffff168c73ffffffffffffffffffffffffffffffffffffffff167f4f0da1e7b2686a98ec69e58da2a71cef6e30a1be34d7fe37cdda105fe316c2588b6040518082815260200191505060405180910390a35b50505b600184148015611e9857508583115b1561201c576000611eb2828461217b90919063ffffffff16565b90506000611eca600a886121c590919063ffffffff16565b90508082111561201957600c60009054906101000a900473ffffffffffffffffffffffffffffffffffffffff1673ffffffffffffffffffffffffffffffffffffffff166348ca13008c8c81518110611f1e57fe5b60200260200101516040518263ffffffff1660e01b8152600401808273ffffffffffffffffffffffffffffffffffffffff1673ffffffffffffffffffffffffffffffffffffffff168152602001915050600060405180830381600087803b158015611f8857600080fd5b505af1158015611f9c573d6000803e3d6000fd5b505050508a8a81518110611fac57fe5b602002602001015173ffffffffffffffffffffffffffffffffffffffff168c73ffffffffffffffffffffffffffffffffffffffff167f4f0da1e7b2686a98ec69e58da2a71cef6e30a1be34d7fe37cdda105fe316c2588a6040518082815260200191505060405180910390a35b50505b5b5050505050505080806001019150506118e0565b505050565b61203e611303565b6120b0576040517f08c379a00000000000000000000000000000000000000000000000000000000081526004018080602001828103825260208152602001807f4f776e61626c653a2063616c6c6572206973206e6f7420746865206f776e657281525060200191505060405180910390fd5b6120b981612a7a565b50565b600080600283816120c957fe5b04905061210f836121016120f26b033b2e3c9fd0803ce800000088612bc090919063ffffffff16565b84612c4690919063ffffffff16565b6121c590919063ffffffff16565b91505092915050565b60006121736b033b2e3c9fd0803ce80000006121656121408587612bc090919063ffffffff16565b60026b033b2e3c9fd0803ce80000008161215657fe5b04612c4690919063ffffffff16565b6121c590919063ffffffff16565b905092915050565b60006121bd83836040518060400160405280601e81526020017f536166654d6174683a207375627472616374696f6e206f766572666c6f770000815250612cce565b905092915050565b600061220783836040518060400160405280601a81526020017f536166654d6174683a206469766973696f6e206279207a65726f000000000000815250612d8e565b905092915050565b60008073ffffffffffffffffffffffffffffffffffffffff16600160009054906101000a900473ffffffffffffffffffffffffffffffffffffffff1673ffffffffffffffffffffffffffffffffffffffff16148061229757506000612295600160009054906101000a900473ffffffffffffffffffffffffffffffffffffffff16612e54565b145b156122a8576122a66000612e5f565b505b600160009054906101000a900473ffffffffffffffffffffffffffffffffffffffff1673ffffffffffffffffffffffffffffffffffffffff166338cc48316040518163ffffffff1660e01b8152600401602060405180830381600087803b15801561231257600080fd5b505af1158015612326573d6000803e3d6000fd5b505050506040513d602081101561233c57600080fd5b810190808051906020019092919050505073ffffffffffffffffffffffffffffffffffffffff166000809054906101000a900473ffffffffffffffffffffffffffffffffffffffff1673ffffffffffffffffffffffffffffffffffffffff161461248557600160009054906101000a900473ffffffffffffffffffffffffffffffffffffffff1673ffffffffffffffffffffffffffffffffffffffff166338cc48316040518163ffffffff1660e01b8152600401602060405180830381600087803b15801561240a57600080fd5b505af115801561241e573d6000803e3d6000fd5b505050506040513d602081101561243457600080fd5b81019080805190602001909291905050506000806101000a81548173ffffffffffffffffffffffffffffffffffffffff021916908373ffffffffffffffffffffffffffffffffffffffff1602179055505b6000809054906101000a900473ffffffffffffffffffffffffffffffffffffffff1673ffffffffffffffffffffffffffffffffffffffff1663c281d19e6040518163ffffffff1660e01b815260040160206040518083038186803b1580156124ec57600080fd5b505afa158015612500573d6000803e3d6000fd5b505050506040513d602081101561251657600080fd5b8101908080519060200190929190505050905090565b600033905090565b60008073ffffffffffffffffffffffffffffffffffffffff16600160009054906101000a900473ffffffffffffffffffffffffffffffffffffffff1673ffffffffffffffffffffffffffffffffffffffff1614806125bc575060006125ba600160009054906101000a900473ffffffffffffffffffffffffffffffffffffffff16612e54565b145b156125cd576125cb6000612e5f565b505b600160009054906101000a900473ffffffffffffffffffffffffffffffffffffffff1673ffffffffffffffffffffffffffffffffffffffff166338cc48316040518163ffffffff1660e01b8152600401602060405180830381600087803b15801561263757600080fd5b505af115801561264b573d6000803e3d6000fd5b505050506040513d602081101561266157600080fd5b810190808051906020019092919050505073ffffffffffffffffffffffffffffffffffffffff166000809054906101000a900473ffffffffffffffffffffffffffffffffffffffff1673ffffffffffffffffffffffffffffffffffffffff16146127aa57600160009054906101000a900473ffffffffffffffffffffffffffffffffffffffff1673ffffffffffffffffffffffffffffffffffffffff166338cc48316040518163ffffffff1660e01b8152600401602060405180830381600087803b15801561272f57600080fd5b505af1158015612743573d6000803e3d6000fd5b505050506040513d602081101561275957600080fd5b81019080805190602001909291905050506000806101000a81548173ffffffffffffffffffffffffffffffffffffffff021916908373ffffffffffffffffffffffffffffffffffffffff1602179055505b60008060009054906101000a900473ffffffffffffffffffffffffffffffffffffffff1673ffffffffffffffffffffffffffffffffffffffff1663524f3889856040518263ffffffff1660e01b81526004018080602001828103825283818151815260200191508051906020019080838360005b8381101561283957808201518184015260208101905061281e565b50505050905090810190601f1680156128665780820380516001836020036101000a031916815260200191505b5092505050602060405180830381600087803b15801561288557600080fd5b505af1158015612899573d6000803e3d6000fd5b505050506040513d60208110156128af57600080fd5b8101908080519060200190929190505050905062030d403a02670de0b6b3a7640000018111156128e5576000801b915050612a73565b6000809054906101000a900473ffffffffffffffffffffffffffffffffffffffff1673ffffffffffffffffffffffffffffffffffffffff1663adf59f99828787876040518563ffffffff1660e01b8152600401808481526020018060200180602001838103835285818151815260200191508051906020019080838360005b8381101561297f578082015181840152602081019050612964565b50505050905090810190601f1680156129ac5780820380516001836020036101000a031916815260200191505b50838103825284818151815260200191508051906020019080838360005b838110156129e55780820151818401526020810190506129ca565b50505050905090810190601f168015612a125780820380516001836020036101000a031916815260200191505b50955050505050506020604051808303818588803b158015612a3357600080fd5b505af1158015612a47573d6000803e3d6000fd5b50505050506040513d6020811015612a5e57600080fd5b81019080805190602001909291905050509150505b9392505050565b600073ffffffffffffffffffffffffffffffffffffffff168173ffffffffffffffffffffffffffffffffffffffff161415612b00576040517f08c379a00000000000000000000000000000000000000000000000000000000081526004018080602001828103825260268152602001806134876026913960400191505060405180910390fd5b8073ffffffffffffffffffffffffffffffffffffffff16600560009054906101000a900473ffffffffffffffffffffffffffffffffffffffff1673ffffffffffffffffffffffffffffffffffffffff167f8be0079c531659141344cd1fd0a4f28419497f9722a3daafe3b4186f6b6457e060405160405180910390a380600560006101000a81548173ffffffffffffffffffffffffffffffffffffffff021916908373ffffffffffffffffffffffffffffffffffffffff16021790555050565b600080831415612bd35760009050612c40565b6000828402905082848281612be457fe5b0414612c3b576040517f08c379a00000000000000000000000000000000000000000000000000000000081526004018080602001828103825260218152602001806135076021913960400191505060405180910390fd5b809150505b92915050565b600080828401905083811015612cc4576040517f08c379a000000000000000000000000000000000000000000000000000000000815260040180806020018281038252601b8152602001807f536166654d6174683a206164646974696f6e206f766572666c6f77000000000081525060200191505060405180910390fd5b8091505092915050565b6000838311158290612d7b576040517f08c379a00000000000000000000000000000000000000000000000000000000081526004018080602001828103825283818151815260200191508051906020019080838360005b83811015612d40578082015181840152602081019050612d25565b50505050905090810190601f168015612d6d5780820380516001836020036101000a031916815260200191505b509250505060405180910390fd5b5060008385039050809150509392505050565b60008083118290612e3a576040517f08c379a00000000000000000000000000000000000000000000000000000000081526004018080602001828103825283818151815260200191508051906020019080838360005b83811015612dff578082015181840152602081019050612de4565b50505050905090810190601f168015612e2c5780820380516001836020036101000a031916815260200191505b509250505060405180910390fd5b506000838581612e4657fe5b049050809150509392505050565b6000813b9050919050565b6000612e69612e70565b9050919050565b600080612e90731d3b2638a7cc9f2cb3d298a3da7a90b67e5506ed612e54565b1115612f3257731d3b2638a7cc9f2cb3d298a3da7a90b67e5506ed600160006101000a81548173ffffffffffffffffffffffffffffffffffffffff021916908373ffffffffffffffffffffffffffffffffffffffff160217905550612f296040518060400160405280600b81526020017f6574685f6d61696e6e65740000000000000000000000000000000000000000008152506133c7565b600190506133c4565b6000612f5173c03a2615d5efaf5f49f60b7bb6583eaec212fdf1612e54565b1115612ff35773c03a2615d5efaf5f49f60b7bb6583eaec212fdf1600160006101000a81548173ffffffffffffffffffffffffffffffffffffffff021916908373ffffffffffffffffffffffffffffffffffffffff160217905550612fea6040518060400160405280600c81526020017f6574685f726f707374656e3300000000000000000000000000000000000000008152506133c7565b600190506133c4565b600061301273b7a07bcf2ba2f2703b24c0691b5278999c59ac7e612e54565b11156130b45773b7a07bcf2ba2f2703b24c0691b5278999c59ac7e600160006101000a81548173ffffffffffffffffffffffffffffffffffffffff021916908373ffffffffffffffffffffffffffffffffffffffff1602179055506130ab6040518060400160405280600981526020017f6574685f6b6f76616e00000000000000000000000000000000000000000000008152506133c7565b600190506133c4565b60006130d373146500cfd35b22e4a392fe0adc06de1a1368ed48612e54565b11156131755773146500cfd35b22e4a392fe0adc06de1a1368ed48600160006101000a81548173ffffffffffffffffffffffffffffffffffffffff021916908373ffffffffffffffffffffffffffffffffffffffff16021790555061316c6040518060400160405280600b81526020017f6574685f72696e6b6562790000000000000000000000000000000000000000008152506133c7565b600190506133c4565b600061319473a2998efd205fb9d4b4963afb70778d6354ad3a41612e54565b11156132365773a2998efd205fb9d4b4963afb70778d6354ad3a41600160006101000a81548173ffffffffffffffffffffffffffffffffffffffff021916908373ffffffffffffffffffffffffffffffffffffffff16021790555061322d6040518060400160405280600a81526020017f6574685f676f65726c69000000000000000000000000000000000000000000008152506133c7565b600190506133c4565b6000613255736f485c8bf6fc43ea212e93bbf8ce046c7f1cb475612e54565b11156132b957736f485c8bf6fc43ea212e93bbf8ce046c7f1cb475600160006101000a81548173ffffffffffffffffffffffffffffffffffffffff021916908373ffffffffffffffffffffffffffffffffffffffff160217905550600190506133c4565b60006132d87320e12a1f859b3feae5fb2a0a32c18f5a65555bbf612e54565b111561333c577320e12a1f859b3feae5fb2a0a32c18f5a65555bbf600160006101000a81548173ffffffffffffffffffffffffffffffffffffffff021916908373ffffffffffffffffffffffffffffffffffffffff160217905550600190506133c4565b600061335b7351efaf4c8b3c9afbd5ab9f4bbc82784ab6ef8faa612e54565b11156133bf577351efaf4c8b3c9afbd5ab9f4bbc82784ab6ef8faa600160006101000a81548173ffffffffffffffffffffffffffffffffffffffff021916908373ffffffffffffffffffffffffffffffffffffffff160217905550600190506133c4565b600090505b90565b80600290805190602001906133dd9291906133e1565b5050565b828054600181600116156101000203166002900490600052602060002090601f016020900481019282601f1061342257805160ff1916838001178555613450565b82800160010185558215613450579182015b8281111561344f578251825591602001919060010190613434565b5b50905061345d9190613461565b5090565b61348391905b8082111561347f576000816000905550600101613467565b5090565b9056fe4f776e61626c653a206e6577206f776e657220697320746865207a65726f206164647265737352617465205377617020687373206265656e20696e6974696174656420616e64207468652070726f7661626c65207175657279207761732073656e742c207374616e64696e6720627920666f722074686520616e737765722e2e536166654d6174683a206d756c7469706c69636174696f6e206f766572666c6f7750726f7661626c6520717565727920776173204e4f542073656e742c20706c656173652061646420736f6d652045544820746f20636f76657220666f72207468652071756572792f6f7074696d697a6174696f6e206665656a736f6e2868747470733a2f2f6170692e6b72616b656e2e636f6d2f302f7075626c69632f5469636b65723f706169723d455448584254292e726573756c742e58455448585842542e632e30a165627a7a72305820c10aee32888e1f6e1aecd006c3e5c87a0a9d2dbaa83e72d3628eea9e5aa76b110029436f6e7374727563746f722077617320696e697469617465642e2043616c6c20276765744574685072696365496e55534456696150726f7661626c6528292720746f2073656e64207468652050726f7661626c652051756572792e",
  "source": "\r\npragma solidity ^0.5.0;\r\n\r\nimport \"openzeppelin-solidity/contracts/utils/ReentrancyGuard.sol\";\r\nimport \"openzeppelin-solidity/contracts/ownership/Ownable.sol\";\r\nimport \"openzeppelin-solidity/contracts/math/SafeMath.sol\";\r\n\r\nimport \"../AaveProtocol/aave-protocol/contracts/configuration/LendingPoolAddressesProvider.sol\";\r\nimport \"../AaveProtocol/aave-protocol/contracts/lendingpool/LendingPool.sol\";\r\nimport \"../AaveProtocol/aave-protocol/contracts/lendingpool/LendingPoolCore.sol\";\r\nimport \"../AaveProtocol/aave-protocol/contracts/lendingpool/LendingPoolDataProvider.sol\";\r\nimport \"../AaveProtocol/aave-protocol/contracts/libraries/CoreLibrary.sol\";\r\nimport \"../AaveProtocol/aave-protocol/contracts/configuration/AddressStorage.sol\";\r\nimport \"../AaveProtocol/aave-protocol/contracts/interfaces/ILendingPoolAddressesProvider.sol\";\r\n\r\nimport \"./provableAPI.sol\";\r\n\r\n\r\n// RateSwitcher contract will automate the interest rate mode depending on market\r\n// variables. Which are determined by the base interests rates, untilization,\r\n// and rate scaling ratios.\r\n//()\r\ncontract RateSwitcher is usingProvable, Ownable{\r\n    using SafeMath for uint256;\r\n    using WadRayMath for uint256;\r\n    using Address for address payable;\r\n\r\n    //@dev Events\r\n    event SwapLog(address indexed _user, address indexed _reserve, uint256 _rate);\r\n    event LogConstructorInitiated(string nextStep);\r\n    event LogPriceUpdated(string price);\r\n    event LogNewProvableQuery(string description);\r\n\r\n    //user address\r\n    address userAddress;\r\n\r\n    string datasource = \"URL\";\r\n    uint256 public queryPrice;\r\n    string public ethPriceInUSD;\r\n\r\n    // Contract initialization\r\n    LendingPoolAddressesProvider public lpAddressesProvider;\r\n    LendingPoolCore lendingPoolCore;\r\n    LendingPool lendingPool;\r\n\r\n    //contructor for this Smart Contract\r\n    // @dev retrieves the contract of the LendingPoolAddressesProvider\r\n    constructor() public {\r\n         lpAddressesProvider = LendingPoolAddressesProvider(0x9C6C63aA0cD4557d7aE6D9306C06C093A2e35408);\r\n         lendingPool = LendingPool(lpAddressesProvider.getLendingPool());\r\n         lendingPoolCore = LendingPoolCore(lpAddressesProvider.getLendingPoolCore());\r\n\r\n         provable_setCustomGasPrice(21 * 10 ** 9);\r\n         queryPrice = provable_getPrice(datasource);\r\n         emit LogConstructorInitiated(\"Constructor was initiated. Call 'getEthPriceInUSDViaProvable()' to send the Provable Query.\");\r\n    }\r\n\r\n    function testLendingPoolAbstraction(address _reserve) public view returns (uint256){\r\n        uint256 currentFixedBorrowRate = lendingPoolCore.getReserveCurrentFixedBorrowRate(_reserve);\r\n        return currentFixedBorrowRate;\r\n    }\r\n\r\n    function testLendingPoolCoreAbstraction(address _reserve) public view returns (uint256){\r\n        uint256 currentVariableBorrowRate = lendingPoolCore.getReserveCurrentVariableBorrowRate(_reserve);\r\n        return currentVariableBorrowRate;\r\n    }\r\n\r\n    function testGetUserReserveData(address _reserve, address _user) public view returns (uint256, uint256){\r\n        (, , , ,\r\n        uint256 borrowRateMode, uint256 borrowRate, , , , ,) = lendingPool.getUserReserveData(_reserve, _user);\r\n\r\n        return (borrowRateMode, borrowRate);\r\n    }\r\n\r\n    mapping (bytes32 => bool) public pendingQueries;\r\n\r\n    //provable callback function\r\n    function __callback(bytes32 _myid, string memory _result,  bytes memory _proof) public {\r\n       require(msg.sender == provable_cbAddress());\r\n       require(pendingQueries[_myid]==true);\r\n       ethPriceInUSD = _result;\r\n       emit LogPriceUpdated(ethPriceInUSD);\r\n       getEthPriceInUSDViaProvable();\r\n   }\r\n\r\n    function rateSwapIndividual(address _reserve) public {\r\n         uint256 currentVariableBorrowRate = lendingPoolCore.getReserveCurrentVariableBorrowRate(_reserve);\r\n         uint256 userCurrentFixedBorrowRate = lendingPoolCore.getUserCurrentFixedBorrowRate(_reserve, msg.sender);\r\n         (,,,uint256 _principalBorrowBalance, uint256 _borrowRateMode,\r\n         uint256 _borrowRate,,,,,) = lendingPool.getUserReserveData(_reserve, msg.sender);\r\n\r\n         uint256 variableRateDue = (currentVariableBorrowRate.rayDiv(12)).rayMul(_principalBorrowBalance);\r\n         uint256 stableRateDue = (userCurrentFixedBorrowRate.rayDiv(12)).rayMul(_principalBorrowBalance);\r\n\r\n         //Conditional to verify that they have are active on this reserve\r\n         if(_principalBorrowBalance > 0){\r\n             //Fixed rate to Variable Rate swap\r\n             if((_borrowRateMode == 0) && (_borrowRate > currentVariableBorrowRate)) {\r\n                 uint256 savedAmount = stableRateDue.sub(variableRateDue);\r\n                 uint256 minimumAmount = _principalBorrowBalance.div(10);\r\n                 if(savedAmount > minimumAmount){\r\n                     lendingPool.swapBorrowRateMode(_reserve);\r\n                     emit SwapLog(msg.sender, _reserve, currentVariableBorrowRate);\r\n                 }\r\n             }\r\n             //Variable Rate to Fixed Rate swap\r\n             if((_borrowRateMode == 1) && (_borrowRate > userCurrentFixedBorrowRate)){\r\n                 uint256 savedAmount = variableRateDue.sub(stableRateDue);\r\n                 uint256 minimumAmount = _principalBorrowBalance.div(10);\r\n                 if(savedAmount > minimumAmount){\r\n                     lendingPool.swapBorrowRateMode(_reserve);\r\n                     emit SwapLog(msg.sender, _reserve, userCurrentFixedBorrowRate);\r\n                 }\r\n             }\r\n         }\r\n    }\r\n\r\n    function rateSwapAll(address _userAddress) public {\r\n        //gets the list of reserves\r\n        address[] memory reservesListLocal = lendingPool.getReserves();\r\n        //@dev for loop that iterates through every resvere and updates the users borrowRateMode\r\n        // WARN the for loop is currently unbounded\r\n        for(uint i = 0; i < reservesListLocal.length; i++){\r\n            uint256 currentVariableBorrowRate = lendingPoolCore.getReserveCurrentVariableBorrowRate(reservesListLocal[i]);\r\n            //uint256 currentFixedBorrowRate = lendingPool.getReserveCurrentFixedBorrowRate(reservesListLocal[i]);\r\n            uint256 userCurrentFixedBorrowRate = lendingPoolCore.getUserCurrentFixedBorrowRate(reservesListLocal[i], _userAddress);\r\n            (,,,uint256 _principalBorrowBalance, uint256 _borrowRateMode,\r\n            uint256 _borrowRate,,,,,) = lendingPool.getUserReserveData(reservesListLocal[i], _userAddress);\r\n\r\n            uint256 variableRateDue = (currentVariableBorrowRate.rayDiv(12)).rayMul(_principalBorrowBalance);\r\n            uint256 stableRateDue = (userCurrentFixedBorrowRate.rayDiv(12)).rayMul(_principalBorrowBalance);\r\n\r\n            //Conditional to verify that they have are active on this reserve\r\n            if(_principalBorrowBalance > 0){\r\n                //Fixed rate to Variable Rate swap\r\n                if((_borrowRateMode == 0) && (_borrowRate > currentVariableBorrowRate)) {\r\n                    uint256 savedAmount = stableRateDue.sub(variableRateDue);\r\n                    uint256 minimumAmount = _principalBorrowBalance.div(10);\r\n                    if(savedAmount > minimumAmount){\r\n                        lendingPool.swapBorrowRateMode(reservesListLocal[i]);\r\n                        emit SwapLog(_userAddress, reservesListLocal[i], currentVariableBorrowRate);\r\n                    }\r\n                }\r\n\r\n                //Variable Rate to Fixed Rate swap\r\n                if((_borrowRateMode == 1) && (_borrowRate > userCurrentFixedBorrowRate)){\r\n                    uint256 savedAmount = variableRateDue.sub(stableRateDue);\r\n                    uint256 minimumAmount = _principalBorrowBalance.div(10);\r\n                    if(savedAmount > minimumAmount){\r\n                        lendingPool.swapBorrowRateMode(reservesListLocal[i]);\r\n                        emit SwapLog(_userAddress, reservesListLocal[i], userCurrentFixedBorrowRate);\r\n                    }\r\n                }\r\n            }\r\n        }\r\n    } //end of rateSwap function\r\n\r\n    function getEthPriceInUSDViaProvable() public payable{\r\n        require(queryPrice > 0);\r\n        userAddress = msg.sender;\r\n        if ((msg.value >= queryPrice)) {\r\n             msg.sender.transfer(msg.value - queryPrice);\r\n             //get results 180 seconds from now\r\n             bytes32 queryId = provable_query(180, \"URL\", \"json(https://api.kraken.com/0/public/Ticker?pair=ETHXBT).result.XETHXXBT.c.0\");\r\n             pendingQueries[queryId] = true;\r\n             //after the query, call rate swap all to optimize al the reserve interest rates\r\n             rateSwapAll(userAddress);\r\n             emit LogNewProvableQuery(\"Rate Swap hss been initiated and the provable query was sent, standing by for the answer..\");\r\n         }\r\n         else{\r\n             emit LogNewProvableQuery(\"Provable query was NOT sent, please add some ETH to cover for the query/optimization fee\");\r\n         }\r\n    }\r\n}\r\n",
  "sourcePath": "C:\\Users\\Jared\\AaveGitBounty\\contracts\\RateSwitcher.sol",
  "compiler": {
    "name": "solc",
    "version": "0.5.8+commit.23d335f2.Emscripten.clang"
  },
  "schemaVersion": "3.0.17",
  "updatedAt": "2019-11-12T04:05:58.068Z",
  "devdoc": {
    "methods": {
      "__callback(bytes32,string)": {
        "details": "The following `__callback` functions are just placeholders ideally\r     meant to be defined in child contract when proofs are used.\r     The function bodies simply silence compiler warnings.\r"
      },
      "isOwner()": {
        "details": "Returns true if the caller is the current owner."
      },
      "owner()": {
        "details": "Returns the address of the current owner."
      },
      "renounceOwnership()": {
        "details": "Leaves the contract without owner. It will not be possible to call `onlyOwner` functions anymore. Can only be called by the current owner.     * NOTE: Renouncing ownership will leave the contract without an owner, thereby removing any functionality that is only available to the owner."
      },
      "transferOwnership(address)": {
        "details": "Transfers ownership of the contract to a new account (`newOwner`). Can only be called by the current owner."
      }
    }
  },
  "userdoc": {
    "methods": {}
  }
}