{
  "contractName": "UintStorage",
  "abi": [
    {
      "constant": true,
      "inputs": [
        {
          "name": "_key",
          "type": "bytes32"
        }
      ],
      "name": "getUint",
      "outputs": [
        {
          "name": "",
          "type": "uint256"
        }
      ],
      "payable": false,
      "stateMutability": "view",
      "type": "function"
    }
  ],
  "bytecode": "0x6080604052348015600f57600080fd5b5060b48061001e6000396000f3fe6080604052348015600f57600080fd5b506004361060285760003560e01c8063bd02d0f514602d575b600080fd5b605660048036036020811015604157600080fd5b8101908080359060200190929190505050606c565b6040518082815260200191505060405180910390f35b600080600083815260200190815260200160002054905091905056fea165627a7a723058208b47249f334ac96a5ee5e465e2bf208a44f6cdf7316ab909a99fd341dab8b5b80029",
  "source": "pragma solidity ^0.5.0;\r\n\r\ncontract UintStorage {\r\n    mapping(bytes32 => uint256) private uints;\r\n\r\n    function getUint(bytes32 _key) public view returns (uint256) {\r\n        return uints[_key];\r\n    }\r\n\r\n    function _setUint(bytes32 _key, uint256 _value) internal {\r\n        uints[_key] = _value;\r\n    }\r\n\r\n}\r\n",
  "sourcePath": "C:\\Users\\Jared\\AaveGitBounty\\AaveProtocol\\aave-protocol\\contracts\\configuration\\UintStorage.sol",
  "compiler": {
    "name": "solc",
    "version": "0.5.8+commit.23d335f2.Emscripten.clang"
  },
  "schemaVersion": "3.0.17",
  "updatedAt": "2019-11-05T03:53:31.007Z",
  "devdoc": {
    "methods": {}
  },
  "userdoc": {
    "methods": {}
  }
}